:100000002AC044C043C042C041C040C03FC03EC0FF
:100010003DC03CC03BC03AC039C02CC437C036C01C
:1000200035C034C033C032C031C030C02FC02EC044
:100030002DC02CC05FC677C679C67FC684C6BFC632
:10004000A5C7CAC6D4C6E1C6FDC630C7CAC60EC754
:1000500074C7AAC685C711241FBECFEFD4E0DEBF88
:10006000CDBF11E0A0E0B1E0E0E6F5E102C005900F
:100070000D92A032B107D9F723E0A0E2B1E001C0B0
:100080001D92A235B207E1F71CD568CAB9CF81E04D
:1000900080933D0289EE92E21B9903C01092B20058
:1000A00004C00197C9F780E008958091B2008A30BA
:1000B000E0F31B99F8CF20E030E080E09AE041E0E7
:1000C00050E0935F6091B2006917E0F31B9B07C09B
:1000D000BA01022E01C0660F0A94EAF7862B2F5F41
:1000E0003F4F923771F79091B2009F37E0F31B9B1F
:1000F000DACF10923D0208952B981092B2009091A1
:10010000B2009D30E0F39DE080FF02C02B9A01C059
:100110002B98935F86952091B2002917E0F39537CD
:1001200099F72B9A8091B2008238E0F308952091DC
:100130003001809144029091450238E0AC014227A1
:100140009695879540FF04C041E0842740EA9427B4
:100150002695315099F7909345028093440220935D
:10016000300108950F931F93CF938C01C62F1092E7
:10017000450210924402109232011092310187DF41
:100180008093300190913D02911124C0F801819338
:100190008F01CDDFC15099F780913501882301F19E
:1001A00076DF8093310180913D02811113C06FDFB2
:1001B0008093320180913D0281110CC02091440254
:1001C0003091450280913101909132012817390711
:1001D00049F406C08FEF91E0803339F090E005C01C
:1001E00056DFF9CF54DF82ECF6CF892FCF911F91E4
:1001F0000F9108950F931F93CF938C01C62F239ACD
:1002000085E88A95F1F700001092450210924402A9
:10021000F80181918F01809330016EDF88DFC1503A
:10022000B9F780913501882331F08091440264DF71
:100230008091450261DF2398CF911F910F9108951E
:10024000CF93DF93CDB7DEB76D970FB6F894DEBFCF
:100250000FBECDBF8091000190910101A0910201DC
:100260008B8F9C8FAD8F81E1E4E0F1E0DE01119690
:1002700001900D928A95E1F761E1CE010196BADF16
:1002800068E0CE0142966EDF8823C9F0FE017296C7
:10029000DE015B96CE01459631912D9132130EC051
:1002A000E817F907C9F78D89809337018E89809304
:1002B00036018F898093350181E001C080E06D9621
:1002C0000FB6F894DEBF0FBECDBFDF91CF9108957A
:1002D000CF93C82FDCDEC15090913D02992319F0D5
:1002E000C111F8CF8FEFCF910895CF93DF9300D056
:1002F000CDB7DEB78DEF89831A8262E0CE01019619
:1003000079DF81E0E5DF813C19F0CAD280E001C0ED
:1003100081E00F900F90DF91CF910895CF93DF93FD
:1003200000D0CDB7DEB719821A8281E08093350103
:1003300062E0CE0101965EDFB3D20F900F90DF91A5
:10034000CF910895CF93DF9300D000D0CDB7DEB723
:100350009091420280913E029F3F11F48F3F81F0C5
:100360002FEF29831A829B838C8364E0CE01019650
:1003700041DF82E0ADDF91E0803319F090E001C011
:1003800091E0892F0F900F900F900F90DF91CF91F8
:100390000895CF93DF9300D000D0CDB7DEB78EEFB6
:1003A00089831A821B82809143028C83811102C04F
:1003B00081E08B8364E0CE0101961CDF82E088DF60
:1003C0008F3F61F460914302809133019091340139
:1003D00011DF88E27DDF91E0803309F090E0892F22
:1003E0000F900F900F900F90DF91CF910895CF93C2
:1003F000DF9300D0CDB7DEB7A5DF8823D9F0809199
:1004000043028A8380914102823029F0843029F0AE
:10041000813029F402C087E001C083E0898362E073
:10042000CE010196E7DE6091430280913301909105
:10043000340198DE0F900F90DF91CF910895CF9304
:10044000DF9300D0CDB7DEB77DDF882381F084E075
:100450008983809143028A8362E0CE010196CADEDD
:100460006091430280913301909134017BDE0F90C3
:100470000F90DF91CF910895CF93DF9300D0CDB748
:10048000DEB760DF982F882391F083DF982F8823D1
:1004900071F085E0898381E08A8362E0CE01019674
:1004A000A9DE80E015DF91E0803309F090E0892F2C
:1004B0000F900F90DF91CF910895CF93DF9300D0ED
:1004C000CDB7DEB73FDF882379F082E0898381E012
:1004D0008A8362E0CE0101968DDE80E0F9DE803312
:1004E00011F481E001C080E00F900F90DF91CF9177
:1004F0000895CF93DF9300D0CDB7DEB723DF982FD9
:10050000882389F046DF982F882369F081E089836A
:100510008A8362E0CE0101966DDE82E3D9DE91E04E
:10052000803309F090E0892F0F900F90DF91CF91E9
:100530000895CF93DF9300D0CDB7DEB703DF8823D4
:1005400069F027DF882351F084E0898381E08A8382
:1005500062E0CE0101964EDE84E0BADE0F900F908D
:10056000DF91CF9108952B982B9A08951092350121
:1005700010923601109237011092380193B193FB1B
:10058000992790F9239A2B988DE38A95F1F700002B
:100590001C9992602C9824982B9A23989093370159
:1005A00081E0911101C080E00895239ADCDF249A54
:1005B00008952C982498D7DF23980895CF93DF933C
:1005C000F4DF2C98D0DF2C9ACEDF2C982498D8E03A
:1005D000C0E0C695C8DF1C99C068D150D1F7E9DFEB
:1005E0008C2FDF91CF910895CF93DF93CFEFDFEF83
:1005F000E5DF80FD04C0209711F02197F9CF81E05D
:10060000CD2B09F480E0DF91CF910895CF93DF9354
:10061000D82FCBDF2C9AA7DFA6DFC8E0D0FF02C01F
:100620002C9A01C02C989FDFD695C150B9F7DF9165
:10063000CF91BFCFCF93DF932C982498CFEFDFEFEC
:1006400092DF219711F01C9BFBCF81E0CD2B09F4A9
:1006500080E0DF91CF910895CF9310924A03A5DFF8
:100660002C9881DF80DF7FDF7EDFE4DF882391F05D
:10067000C8E080914A03869580934A0374DF1C9BEF
:1006800005C080914A03806880934A03C15089F76E
:1006900090DF81E0CF910895A7DF882341F0DCDF70
:1006A000882329F081E090914A039D3009F080E091
:1006B000089580E0ABDFD0DF80914A0388508B3211
:1006C00010F010924A0380914A03809335010895F7
:1006D000CF93DF93D82F69DF2C9A45DF2C9843DF27
:1006E00042DF41DFC8E0D0FF02C02C9A01C02C9845
:1006F0003ADFD695C150B9F79DDF882351F059DF15
:10070000CFEFDFEF5BDF81FF04C0209711F021976F
:10071000F9CFDF91CF91089580914202D9DF809186
:100720003E02D6DF80914302D3DFB6CFCF93C82FEE
:1007300084EB6CDF8C2FCCDFCF91AECF17DF811134
:1007400002C080E00895B5DF8823D9F382E05EDF40
:1007500082E0BEDF84E0BCDF8BED90E00197F1F733
:1007600000C0000081E0B4DF9FEB2AED80E09150F3
:1007700020408040E1F700C0000082E0D7DF8823FE
:1007800001F36ADF80914A03809336018FEF3EDFE9
:1007900080E89EDF8FEC97E00197F1F700C0000042
:1007A0008FEE34DF82E094DF81E00895CF9386E01E
:1007B000BDDF811102C080E01BC0AEDF8823D9F30A
:1007C000C091430211DF8823B1F346DF882399F3F8
:1007D000E0913301F0913401CF01019690933401FF
:1007E0008093330180914A038083C15059F781E09F
:1007F000CF910895CF9387E099DF8823A9F08CDF0C
:10080000882391F0C0914302E0913301F0913401CB
:10081000CF0101969093340180933301808158DF9A
:10082000C15091F7CF91E0CE80E0CF910895CF9362
:10083000C0914202C695CF3068F488E077DF882304
:1008400049F08C2F45DF28DF882321F080E040DF4E
:10085000CF91CACE80E0CF91089583E067DF8823EF
:1008600039F08EED35DF8DEA33DF85EA31DFBCCE3E
:1008700080E008951F920F920FB60F921124F0019D
:1008800009940F900FBE0F901F9018958091410210
:10089000882329F083E08093B10023982B9A089550
:1008A00010923601109235010895EF92FF920F9346
:1008B0001F93CF93DF9310923601109235018091F0
:1008C0004102882361F0853008F0EFC0C8E3D0E032
:1008D00014E003E0FF24F39482E0E82EB4C02EDF9E
:1008E000E2C08091C00087FDD7C080914102843072
:1008F00009F4AEC017D5882309F4AAC000934102B9
:1009000080913501909136018730934909F4A7C051
:1009100080913501909136018A30934909F49FC046
:1009200080913501909136018F30934909F497C039
:10093000809135019091360131E08B30944909F076
:1009400030E080913501909136018031934F09F468
:1009500088C080913501909136018033934F09F41E
:1009600080C080913501909136018031944F09F417
:1009700078C080913501909136018039934F09F408
:1009800070C080913501909136018035984F09F4FF
:1009900068C08091350190913601813B984E09F4F1
:1009A00060C0809135019091360121E0823B984EE4
:1009B00009F020E0809135019091360186309F4109
:1009C00009F451C0809135019091360186309343EE
:1009D00009F449C0809135019091360186309443E5
:1009E00009F441C0809135019091360186309543DC
:1009F000D1F1809135019091360186309B4299F179
:100A0000809135019091360151E040E08630974465
:100A100009F050E0852F942F482F311127C0211164
:100A200025C0992790914102913018F52197B9F18D
:100A3000811134C08FE79AE126E081509040204038
:100A4000E1F700C000008091C10084FF4ECF49CF84
:100A5000F7DB882309F454CF1093410251CF31E0E2
:100A600070CF21E0A7CF81E090E0D6CF81E090E089
:100A7000D9CF933010F09430C9F6222319F0F092B8
:100A80004102D4CF332319F0E0924102CFCF442367
:100A900069F210934102CACF80E001C081E09091D9
:100AA000410290933801811105C0109236011092D5
:100AB000350180E0DF91CF911F910F91FF90EF9072
:100AC00008950FB6F894A89580916000886180938E
:100AD0006000109260000FBED9DE04D569D0F1CF5E
:100AE0009627092E0294202D2F702927692F602523
:100AF000660F607E2627602D6927607F6695092E28
:100B0000000C661F9695969596959F719627982747
:100B1000822F08952F923F92EF92FF921F93CF93CF
:100B2000DF93E1016EE280E090E0DADF6F81D8DFF1
:100B300060914202D5DF60913E02D2DF6E81D0DF4C
:100B4000382F292FEC80FD801E81F70161917F01F4
:100B5000832F922FC5DF382F292F1150B1F76B81CA
:100B6000BFDFF82EE92E8EE2D2D48F81D0D48091CF
:100B70004202CDD480913E02CAD48E81C8D41E8157
:100B8000EC81FD818081C3D48C819D8101969D8300
:100B90008C831150A9F78B81BAD48E2DB8D48F2DA8
:100BA000DF91CF911F91FF90EF903F902F90AFC4B6
:100BB0002F923F924F925F926F927F928F929F926D
:100BC000AF92BF92CF92DF92EF92FF920F931F935B
:100BD000CF93DF93CDB7DEB72A970FB6F894DEBF79
:100BE0000FBECDBFF8942E0129E0420E511C06E441
:100BF00012E022E0B22E39E3C32E31E0D32E44E0DE
:100C0000A42E55E3652E51E0752E8CD48F32E9F772
:100C10001A8619865E824D8281E08F8383D488870D
:100C200090914B039111F1CF8F3211F47BD48887CF
:100C30006FE280E090E054DF688552DF7C0172D47F
:100C40008093420290914B03992311F081E03FC0C1
:100C5000682FC70145DF7C0165D480933E029091E7
:100C60004B039111F3CF682FC7013ADF7C015AD4AF
:100C70008B8390914B039111E9CF682FC70130DF2F
:100C80007C013B8096E4892E92E0992E4BD4F401AE
:100C900081934F0190914B039111D8CF682FC701D9
:100CA0001FDF7C013A943110F1CF3CD48A838091CC
:100CB0004B038111CBCF36D4898380914B038111B3
:100CC000C5CF29813A81E216F30609F083E08C83CF
:100CD00081115DC11093340100933301E8858E2F9B
:100CE00090E0FC01F097E131F10508F04FC1E65EBC
:100CF000FF4F099480913501882309F448C1809100
:100D00004102833020F4813038F4D3DC06C08330D4
:100D100041F0843009F03BC1E8DA811138C18FE03D
:100D200048C0A4D2FACF8BE6898731C189E08F838E
:100D300085E191E09E838D832AC1BF8288EC8987FB
:100D400093E09A8724C1FE0131961F01E3DE809172
:100D50004102882329F0853020F423982B9A01C082
:100D600005DC9EDDFFEF21EE84E0F1502040804065
:100D7000E1F700C000002A960FB6F894DEBF0FBE60
:100D8000CDBFDF91CF911F910F91FF90EF90DF903A
:100D9000CF90BF90AF909F908F907F906F905F901B
:100DA0004F903F902F90089580914602853018F023
:100DB00089E08C83ECC08093410268DDE8C08091BB
:100DC0004102833020F4813028F4D0DBE0C084304D
:100DD00009F0DDC0A3DADBC0AF827E826D8265DD03
:100DE0009CCF809141028111D2C02B98D0C08091BC
:100DF0004102833028F4813008F0C8C02EDD8DCF49
:100E0000833009F0A6C02ED388CF90914102943050
:100E100018F4923020F0BAC0943009F0B8C0809134
:100E200046028987943019F4880F880F01C0880F13
:100E30008093420210923E02911102C0F8DC6DCF05
:100E40003CDB6BCF8091460280934302809141024C
:100E5000833020F4813030F4A9DC18C0833021F0D5
:100E60008430D9F4C4DA12C019D310C0809146027C
:100E70008093430280914102823039F020F0833028
:100E800051F0843051F4BC8208C0D9DA811105C018
:100E90008FE08C8302C00BD3F9CF8C81811177C096
:100EA000809143028F831E830D8371C08B81809359
:100EB00043028FE08C8380914102833018F48130AB
:100EC00030F035C08330B9F1843089F160C092DCF4
:100ED000882309F45CC0D0923401C092330166DCEF
:100EE000882309F454C01C82109334010093330109
:100EF000D0924002C0923F0280914302A091330100
:100F0000B0913401E0913F02F09140022C91908128
:100F10002913AC821196B0933401A093330131961A
:100F2000F0934002E0933F02815041F730C0E1DA94
:100F3000882369F127C0C4D2FBCF8B818093430201
:100F40008FE08C8380914102823031F0F8F0833061
:100F500029F08430E1F41AC08FDAEACFBAD2E8CFB0
:100F6000E090410294E0E91211C08B81809343022A
:100F70008FE0F82EFC82DDDA803321F0803C21F412
:100F8000EC8205C01C8203C0FC8201C0BC82FE0151
:100F900031961F01BFDD39CE909150039827909371
:100FA000500398E02B9A1092B20080FF0FC020915E
:100FB000B2002031E0F32B981092B2002091B200E1
:100FC0002031E0F38695915069F708952091B200A1
:100FD0002830E0F32B981092B2002091B200283014
:100FE000E0F32B9A1092B2002091B2002830E0F387
:100FF0002B981092B2002091B2002830E0F3E2CF9B
:10100000239A8FEFC9DF8FEFC7DF8FE7C5DF10921D
:1010100050038BE1C1DF80914D038F5F80934D03BF
:10102000BBCF80915003B8DF2B9A1092B200809111
:10103000B2008830E0F3239808951092B2001B9B11
:101040000AC08091B2008E37D0F38FEF089580915F
:10105000B2008E37D0F71B9BFACF8091B2008093FD
:101060004F0390915103981788F01092B2001B9B88
:1010700009C08091B2008E37D0F3E7CF8091B200E3
:101080008E3718F71B9BFACF80E0089581E0089512
:10109000FC01108280E090E041E050E01092B2004C
:1010A0001B9B0AC02091B2002E37D0F380E0089538
:1010B0002091B2002E37D0F71B9BFACF3091B200AF
:1010C00020915103231780F01092B2001B9B09C09E
:1010D0002091B2002E37D0F3E9CF2091B2002E3705
:1010E00028F71B9BFACF09C060819A01082E01C026
:1010F000220F0A94EAF7262B208301968830910567
:1011000069F690914C038081892780934C0381E09C
:101110000895CF93DF9388E18093510380914E032C
:10112000853139F0823129F0813031F0C3E2D0E0ED
:1011300005C0C0E6DAEE02C0C1E0D0E07EDF87FF86
:1011400004C02197D9F780E015C0CAE076DF8F3F51
:10115000D1F3C150D9F780914F03982F969586957A
:101160008695890F8093510368DF8F3F61F31816CE
:10117000DCF381E0DF91CF910895EF92FF920F931E
:101180001F93CF93DF9300D01F92CDB7DEB77C01C2
:101190001B82BFDF811102C080E05EC010924C0351
:1011A000CE01039675DF8823B9F38B818B31A1F7CC
:1011B000CE0103966DDF882379F39B8180914D03E7
:1011C0009813EACFCE01029663DF882329F38A8140
:1011D000823010F7CE0101965BDF8823E9F2898126
:1011E0009A81892BC9F2CE01039652DF8823A1F29E
:1011F0008B818E3089F6CE0103964ADF882361F217
:101200009B8180914E039813C7CFCE01039640DF98
:10121000882311F28B818111BFCF00E010E0C7015C
:10122000800F911F29813A8122503109021713073B
:1012300038F42EDF882309F4AFCF0F5F1F4FEFCFB5
:10124000CE01039625DF882309F4A6CF80914C03B5
:101250008111A2CF2B9A81E00F900F900F90DF9118
:10126000CF911F910F91FF90EF900895CF9381E060
:1012700080934E03C5DE80E08FDE81E08DDE8EE060
:101280008BDE81E089DECDDE80E291E076DFC82F63
:10129000811102C005DB01C0C1E08C2FCF91089500
:1012A000FF920F931F93CF93DF938C01C62FF42EE1
:1012B000D22F8DE180934E03A3DE80E06DDE88E0C7
:1012C0006BDE8EE069DE8DE167DE84E065DE84E062
:1012D00063DE80E061DE8C2F5FDE8F2D5DDE8D2F83
:1012E0005BDE80E059DE9DDE80E291E046DF882310
:1012F00099F08091200181110EC080912101C817C1
:1013000011F0811108C080912201811104C08091E7
:101310002301F801808381E0DF91CF911F910F912C
:10132000FF900895A3DF882389F021E040E060E387
:1013300086E391E0B5DF882349F022E040E060E3F6
:1013400085E391E0ADDF91E0811101C090E0892F4C
:101350000895809142028F3F21F480913E028F3F99
:10136000D1F086E080934E034BDE80E015DE85E011
:1013700013DE8EE011DE86E00FDE80E00DDE80E021
:101380000BDE8091420208DE80913E0205DE49DEDE
:1013900080E291E0F2CE81E00895CF93C1E08091A8
:1013A00043028111C0E02CDE80E0F6DD84E0F4DD54
:1013B0008EE0F2DD80914E03EFDD8C2FEDDD80912C
:1013C0004302EADD80EAE8DD2CDE80913301909172
:1013D0003401CF91D2CE0F931F93CF93DF93C0915F
:1013E0004302CC2339F08C2F90E00A96182F092F56
:1013F000D0E003C01AE001E0D1E002DE802FCCDDB6
:10140000812FCADD8EE0C8DD80914E03C5DD8D2FB2
:10141000C3DD8C2FC1DD80E0BFDD80E0BDDD80E07D
:10142000BBDD80E0B9DD80E0B7DD80E0B5DD80E0E8
:10143000B3DDE0913301F09134018081ADDD809125
:1014400033019091340101969093340180933301DC
:10145000C15079F7E6DD80E291E0DF91CF911F91F5
:101460000F918BCE82E180934E03CADD80E094DD44
:1014700087E092DD8EE090DD82E18EDD84E18CDD1F
:1014800080E08ADD8CEA88DD88E886DD83E184DD22
:1014900086E782DDC6DD80E291E06FCE5ADF8823E9
:1014A00021F084E180934E0378CF80E0089551DFEE
:1014B000882321F086E180934E036FCF80E008956A
:1014C00048DF882321F083E180934E0384CF80E0BE
:1014D00008953FDF882321F085E180934E037BCF81
:1014E00080E00895E0ECF0E080818D7F80838CE0E7
:1014F00090E09093C5008093C40086E08093C20082
:1015000088E18093C10085E08093810008959091E7
:10151000C00095FFFCCF8093C6008091C00086FF7D
:10152000FCCF089510924B03109285001092840016
:101530008091C00087FD0FC080918400909185004C
:1015400021E0853C39E0930708F420E020934B0329
:10155000853C994068F38091C6000895F894FFCFC8
:101560003437310000000000000000000D424C48FC
:10157000656C69F47D347741526D38385F3800000E
:00000001FF
