:100000000C9483000C94A2000C94A2000C94A20007
:100010000C94A2000C94A2000C94A2000C94A200D8
:100020000C94A2000C94A2000C94A2000C94A200C8
:100030000C94A2000C94A2000C94A2000C94A200B8
:100040000C94A2000C94A2000C94A2000C94A200A8
:100050000C9413050C94A2000C94A2000C94A20022
:100060000C94A2000C94A2000C94A2000C94A20088
:100070000C94A2000C94A2000C94A2000C94A20078
:100080000C94A2000C94A2000C94A2000C94A20068
:100090000C94A2000C94A2000C94A2000C94A20058
:1000A0000C94A2000C94A2000C94A2000C94A20048
:1000B0000C94A2000C94A2000C94A2000C94A20038
:1000C0000C94A2000C94A2000C94A2000C94A20028
:1000D0000C94A2000C94A2000C94A2000C94A20018
:1000E0000C94A2007907950798079F07A507E507D5
:1000F000DF08F407000810082F086808FA07460808
:10010000B308D907C80811241FBECFEFD1E2DEBF64
:10011000CDBF12E0A0E0B2E0E6E7F8E100E00BBFFF
:1001200002C007900D92A232B107D9F724E0A2E2F3
:10013000B2E001C01D92A435B207E1F70E943D066E
:100140000C94390C0C94000081E080933F0383ED04
:1001500095E41A9903C01092B20004C00197C9F740
:1001600080E008958091B2008A30E0F31A99F8CFC8
:1001700020E030E080E09AE041E050E0935F609161
:10018000B2006917E0F31A9B07C0BA01022E01C042
:10019000660F0A94EAF7862B2F5F3F4F923771F76D
:1001A0009091B2009F37E0F31A9BDACF10923F0391
:1001B00008952A981092B2009091B2009D30E0F319
:1001C0009DE080FF02C02A9A01C02A98935F86951D
:1001D0002091B2002917E0F3953799F72A9A809178
:1001E000B2008238E0F308952091320280914603F4
:1001F0009091470338E0AC0142279695879540FFE0
:1002000004C041E0842740EA94272695315099F7AD
:1002100090934703809346032093320208950F93EF
:100220001F93CF938C01C62F109247031092460361
:1002300010923402109233020E94A4008093320282
:1002400090913F03911127C0F80181938F010E9483
:10025000F400C15089F780913702882311F10E9480
:10026000A4008093330280913F03811114C00E9447
:10027000A4008093340280913F0381110CC020912F
:10028000460330914703809133029091340228173E
:10029000390751F406C08FEF91E0803349F090E0C8
:1002A00007C00E94A400F8CF0E94A40082ECF4CF03
:1002B000892FCF911F910F9108950F931F93CF9383
:1002C0008C01C62F229A87EC90E00197F1F700C0CD
:1002D00000001092470310924603F80181918F01AC
:1002E000809332020E94D9000E94F400C150A9F705
:1002F00080913702882341F0809146030E94D90003
:10030000809147030E94D9002298CF911F910F91AD
:100310000895CF93DF93CDB7DEB76D970FB6F894FE
:10032000DEBF0FBECDBF8091000290910102A0916F
:1003300002028B8F9C8FAD8F81E1E4E0F2E0DE0161
:10034000119601900D928A95E1F761E1CE01019637
:100350000E945D0168E0CE0142960E940F01882351
:10036000C9F0FE017296DE015B96CE014596319191
:100370002D9132130EC0E817F907C9F78D898093C4
:1003800039028E89809338028F898093370281E009
:1003900001C080E06D960FB6F894DEBF0FBECDBFF2
:1003A000DF91CF910895CF93C82F0E94A400C15030
:1003B00090913F03992319F0C111F7CF8FEFCF919F
:1003C0000895CF93DF9300D0CDB7DEB78DEF89834B
:1003D0001A8262E0CE0101960E945D0181E00E94D6
:1003E000D301813C21F00E94290580E001C081E019
:1003F0000F900F90DF91CF910895CF93DF9300D0AE
:10040000CDB7DEB719821A8281E08093370262E0AD
:10041000CE0101960E945D010E9429050F900F9068
:10042000DF91CF910895CF93DF9300D000D0CDB767
:10043000DEB790914403809140039F3F11F48F3FBA
:1004400091F02FEF29831A829B838C8364E0CE0185
:1004500001960E945D0182E00E94D30191E0803309
:1004600019F090E001C091E0892F0F900F900F904C
:100470000F90DF91CF910895CF93DF9300D000D0FC
:10048000CDB7DEB78EEF89831A821B828091450338
:100490008C83811102C081E08B8364E0CE010196E0
:1004A0000E945D0182E00E94D3018F3F71F4609150
:1004B000450380913502909136020E945D0188E2E9
:1004C0000E94D30191E0803309F090E0892F0F90D2
:1004D0000F900F900F90DF91CF910895CF93DF93FE
:1004E00000D0CDB7DEB70E9413028823E9F08091D7
:1004F00045038A8380914303823029F0843029F0B8
:10050000813029F402C087E001C083E0898362E082
:10051000CE0101960E945D016091450380913502F4
:10052000909136020E940F010F900F90DF91CF91B2
:100530000895CF93DF9300D0CDB7DEB70E941302AA
:10054000882391F084E08983809145038A8362E067
:10055000CE0101960E945D016091450380913502B4
:10056000909136020E940F010F900F90DF91CF9172
:100570000895CF93DF9300D0CDB7DEB70E9413026A
:10058000982F8823A9F00E943C02982F882381F09D
:1005900085E0898381E08A8362E0CE0101960E9432
:1005A0005D0180E00E94D30191E0803309F090E08A
:1005B000892F0F900F90DF91CF910895CF93DF9304
:1005C00000D0CDB7DEB70E941302882389F082E005
:1005D000898381E08A8362E0CE0101960E945D01F9
:1005E00080E00E94D301803311F481E001C080E0FB
:1005F0000F900F90DF91CF910895CF93DF9300D0AC
:10060000CDB7DEB70E941302982F8823A1F00E9475
:100610003C02982F882379F081E089838A8362E005
:10062000CE0101960E945D0182E30E94D30191E018
:10063000803309F090E0892F0F900F90DF91CF91D8
:100640000895CF93DF9300D0CDB7DEB70E94130299
:10065000882381F00E943C02882361F084E0898332
:1006600081E08A8362E0CE0101960E945D0184E010
:100670000E94D3010F900F90DF91CF9108952A9897
:10068000000000002A9A0895109237021092380252
:100690001092390210923A0293B192FB992790F985
:1006A000229A2A9880E88A95F1F71B9992602B98F4
:1006B00023982A9A8AE08A95F1F700C022989093AD
:1006C000390281E0911101C080E00895229A0E94D0
:1006D0003F03239A08952B9823980E943F03229862
:1006E0000895CF93DF930E9466032B980E943F03E7
:1006F0002B9A0E943F032B982398D8E0C0E0C69520
:100700000E943F031B99C068D150C9F70E946B0338
:100710008C2FDF91CF910895CF93DF93CFEFDFEF51
:100720000E94710380FD04C0209711F02197F8CF3B
:1007300081E0CD2B09F480E0DF91CF910895CF9334
:10074000DF93D82F0E9466032B9A0E943F030E94DA
:100750003F03C8E0D0FF02C02B9A01C02B980E9433
:100760003F03D695C150B1F7DF91CF910C946B0345
:10077000CF93DF932B982398CFEFDFEF0E943F03B7
:10078000219711F01B9BFACF81E0CD2B09F480E07B
:10079000DF91CF910895CF9310924C040E9466038D
:1007A0002B980E943F030E943F030E943F030E9438
:1007B0003F030E94B8038823A1F0C8E080914C0455
:1007C000869580934C040E943F031B9B05C080913B
:1007D0004C04806880934C04C15081F70E946B03E5
:1007E00081E0CF9108950E948C03882349F00E94F4
:1007F000CB03882329F081E090914C049D3009F0CF
:1008000080E0089580E00E949F030E94CB038091C6
:100810004C0488508B3210F010924C0480914C04A0
:10082000809337020895CF93DF93D82F0E946603F9
:100830002B9A0E943F032B980E943F030E943F0384
:100840000E943F03C8E0D0FF02C02B9A01C02B9842
:100850000E943F03D695C150B1F70E94B803882388
:1008600061F00E946B03CFEFDFEF0E94710381FF05
:1008700004C0209711F02197F8CFDF91CF91089510
:10088000809144030E941304809140030E9413044A
:10089000809145030E9413040C94F303CF93C82F57
:1008A00084EB0E949F038C2F0E941304CF910C9421
:1008B000F3030E944403811102C080E008950E9466
:1008C00002048823D1F382E00E949F0382E00E9409
:1008D000130484E00E94130487EB91E00197F1F781
:1008E00000C0000081E00E9413049FE725EB81E037
:1008F000915020408040E1F700C0000082E00E945B
:100900004E048823D1F20E94CB0380914C04809343
:1009100038028FEF0E949F0380E80E9413048FE942
:100920009FE00197F1F700C000008FEE0E949F0347
:1009300082E00E94130481E00895CF9386E00E9434
:100940004E04811102C080E01EC00E944004882332
:10095000D1F3C09145030E948C038823A1F30E9428
:10096000CB03882381F3E0913502F0913602CF0169
:100970000196909336028093350280914C048083D7
:10098000C15049F781E0CF910895CF9387E00E944D
:100990004E048823C1F00E9440048823A1F0C09136
:1009A0004503E0913502F0913602CF010196909314
:1009B00036028093350280810E941304C15089F76A
:1009C000CF910C948C0380E0CF910895CF93C09188
:1009D0004403C695CF3090F488E00E944E048823EB
:1009E00069F08C2F0E9413040E94F303882331F0D6
:1009F00080E00E941304CF910C948C0380E0CF918F
:100A0000089583E00E944E04882359F08EED0E94E1
:100A100013048DEA0E94130485EA0E9413040C94C7
:100A20008C0380E008951F920F920FB60F9211244D
:100A30000C9400000F900FBE0F901F90189580919E
:100A40004303882329F084E08093B10022982A9AF6
:100A5000089510923802109237020895EF92FF9293
:100A60000F931F93CF93DF931092380210923702A7
:100A700080914303882361F0853008F0F2C0C8E319
:100A8000D0E014E003E0FF24F39482E0E82EB6C047
:100A90000E945904E4C08091C00087FDD9C08091B4
:100AA0004303843009F4AFC00E94D60A882309F4B6
:100AB000AAC0009343038091370290913802873097
:100AC000934909F4A8C080913702909138028A3086
:100AD000934909F4A0C080913702909138028F3079
:100AE000934909F498C0809137029091380231E01F
:100AF0008B30944909F030E08091370290913802B0
:100B00008031934F09F489C0809137029091380267
:100B10008033934F09F481C080913702909138025D
:100B20008031944F09F479C0809137029091380256
:100B30008039934F09F471C0809137029091380247
:100B40008035984F09F469C080913702909138023E
:100B5000813B984E09F461C0809137029091380230
:100B600021E0823B984E09F020E08091370290917D
:100B7000380286309F4109F452C08091370290912B
:100B800038028630934309F44AC08091370290912D
:100B900038028630944309F442C080913702909124
:100BA000380286309543D9F180913702909138020E
:100BB00086309B42A1F1809137029091380251E03A
:100BC00040E08630974409F050E0852F942F482F5D
:100BD000311128C0211126C09927909143039130EB
:100BE00020F52197C1F1811135C08FEF94E32CE0FE
:100BF000815090402040E1F700C000008091C1008A
:100C000084FF4DCF48CF0E948901882309F453CF38
:100C10001093430350CF31E06FCF21E0A6CF81E0A6
:100C200090E0D5CF81E090E0D8CF933010F09430B1
:100C3000C1F6222319F0F0924303D3CF332319F0E6
:100C4000E0924303CECF442361F210934303C9CF14
:100C500080E001C081E09091430390933A028111BA
:100C600005C0109238021092370280E0DF91CF91D8
:100C70001F910F91FF90EF9008950FB6F894A895EB
:100C800080916000886180936000109260000FBEC8
:100C90000E941F050E94F40B0E94C706EECF962704
:100CA000092E0294202D2F702927692F6025660FA9
:100CB000607E2627602D6927607F6695092E000CCF
:100CC000661F9695969596959F7196279827822FE1
:100CD00008952F923F92EF92FF921F93CF93DF934D
:100CE000E1016EE280E090E00E944F066F810E9479
:100CF0004F06609144030E944F06609140030E949A
:100D00004F066E810E944F06382F292FEC80FD8000
:100D10001E81F70161917F01832F922F0E944F0660
:100D2000382F292F1150A9F76B810E944F06F82EFA
:100D3000E92E8EE20E94090C8F810E94090C80919D
:100D400044030E94090C809140030E94090C8E818B
:100D50000E94090C1E81EC81FD8180810E94090C9A
:100D60008C819D8101969D838C831150A1F78B818D
:100D70000E94090C8E2D0E94090C8F2DDF91CF91BE
:100D80001F91FF90EF903F902F900C94090C2F92A1
:100D90003F924F925F926F927F928F929F92AF920B
:100DA000BF92CF92DF92EF92FF920F931F93CF9358
:100DB000DF93CDB7DEB72A970FB6F894DEBF0FBE2C
:100DC000CDBFF8942E0129E0420E511C08E413E037
:100DD00022E0B22E3BE3C32E32E0D32E44E0A42E19
:100DE00057E3652E52E0752E0E94140C8F32E1F706
:100DF0001A8619865E824D8281E08F830E94140CD0
:100E0000888790914D049111EFCF8F3219F40E9491
:100E1000140C88876FE280E090E00E944F0668859E
:100E20000E944F067C010E94140C80934403909111
:100E30004D04992311F081E048C0682FC7010E943A
:100E40004F067C010E94140C8093400390914D0446
:100E50009111F1CF682FC7010E944F067C010E94BB
:100E6000140C8B8390914D049111E5CF682FC7012D
:100E70000E944F067C013B8098E4892E93E0992ED6
:100E80000E94140CF40181934F0190914D04911133
:100E9000D2CF682FC7010E944F067C013A943110CF
:100EA000EFCF0E94140C8A8380914D048111C3CF2F
:100EB0000E94140C898380914D048111BCCF29813B
:100EC0003A81E216F30609F083E08C83811178C140
:100ED0001093360200933502E8858E2F90E0FC01D6
:100EE000F097E131F10508F06AC1EE58FF4F0C941C
:100EF000300C80913702882309F462C1809143034A
:100F0000833028F4813040F40E94020407C083300B
:100F100049F0843009F054C10E94E101811150C1AF
:100F20008FE04CC00E94640AF9CF8BE6898748C1E4
:100F30008CE08F8385E192E09E838D8341C1BF82E7
:100F400088EC898793E09A873BC1FE0131961F01A7
:100F50000E94690680914303882329F0853028F494
:100F600022982A9A02C00E9444030E942905FFEF9A
:100F700023EC89E0F15020408040E1F700C0000000
:100F80002A960FB6F894DEBF0FBECDBFDF91CF918A
:100F90001F910F91FF90EF90DF90CF90BF90AF9097
:100FA0009F908F907F906F905F904F903F902F9089
:100FB000089580914803853018F089E08C8300C142
:100FC000809343030E941F05FBC08091430383303D
:100FD00028F4813030F40E944403F2C0843009F0D8
:100FE000EFC00E94FD01ECC0AF827E826D820E9444
:100FF0002E0594CF809143038111E2C02A98E0C06E
:1010000080914303833030F4813008F0D8C00E94CF
:10101000010584CF833009F0B2C00E949F0B7ECFC0
:1010200090914303943018F4923020F0C8C094306B
:1010300009F0C6C0809148038987943019F4880F5D
:10104000880F01C0880F80934403109240039111D0
:1010500003C00E94E60462CF0E94DE025FCF80914F
:1010600048038093450380914303833028F4813003
:1010700038F40E949D041BC0833029F08430F9F4B9
:101080000E946E0214C00E94C80B11C080914803D8
:101090008093450380914303823039F020F0833000
:1010A00059F0843061F4BC820AC00E949902811117
:1010B00006C08FE08C8303C00E94D30BF8CF8C81D5
:1010C00081117EC0809145038F831E830D8378C07C
:1010D0008B81809345038FE08C8380914303833021
:1010E00018F4813030F037C08330D1F1843099F179
:1010F00067C00E94C504882309F462C0D0923602FA
:10110000C09235020E949D04882309F459C01C82B4
:101110001093360200933502D0924203C0924103ED
:1011200080914503A0913502B0913602E0914103D0
:10113000F09142032C9190812913AC821196B093C7
:101140003602A09335023196F0934203E0934103B7
:10115000815041F735C00E94FD02882389F12BC0E0
:101160000E94DE0BFACF8B81809345038FE08C8346
:1011700080914303823031F010F1833031F08430BC
:10118000F9F41DC00E94B902E8CF0E94E90BE5CF37
:10119000E090430394E0E91212C08B8180934503F1
:1011A0008FE0F82EFC820E942103803321F0803CE6
:1011B00021F4EC8205C01C8203C0FC8201C0BC8209
:1011C000FE0131961F010E9469060ECE90915204D5
:1011D00098279093520498E02A9A1092B20080FFC8
:1011E0000FC02091B2002031E0F32A981092B20093
:1011F0002091B2002031E0F38695915069F708956F
:101200002091B2002830E0F32A981092B200209189
:10121000B2002830E0F32A9A1092B2002091B20076
:101220002830E0F32A981092B2002091B2002830C2
:10123000E0F3E2CF229A8FEF0E94E6088FEF0E9440
:10124000E6088FE70E94E608109252048BE10E94A4
:10125000E60880914F048F5F80934F040C94E6085A
:10126000809152040E94E6082A9A1092B20080915E
:10127000B2008830E0F3229808951092B2001A9BD1
:101280000AC08091B2008E37D0F38FEF089580911D
:10129000B2008E37D0F71A9BFACF8091B2008093BC
:1012A000510490915304981788F01092B2001A9B41
:1012B00009C08091B2008E37D0F3E7CF8091B200A1
:1012C0008E3718F71A9BFACF80E0089581E00895D1
:1012D000FC01108280E090E041E050E01092B2000A
:1012E0001A9B0AC02091B2002E37D0F380E00895F7
:1012F0002091B2002E37D0F71A9BFACF3091B2006E
:1013000020915304231780F01092B2001A9B09C059
:101310002091B2002E37D0F3E9CF2091B2002E37C2
:1013200028F71A9BFACF09C060819A01082E01C0E4
:10133000220F0A94EAF7262B208301968830910524
:1013400069F690914E048081892780934E0481E054
:101350000895CF93DF9388E18093530480915004E4
:10136000853139F0823129F0813031F0C6E4D0E0A6
:1013700005C0C0E6DAEE02C0C1E0D0E00E943D093F
:1013800087FF04C02197D1F780E017C0CAE00E9410
:101390003D098F3FC9F3C150D1F780915104982F77
:1013A000969586958695890F809353040E943D09F2
:1013B0008F3F51F31816D4F381E0DF91CF91089558
:1013C000EF92FF920F931F93CF93DF9300D01F9262
:1013D000CDB7DEB77C011B820E94A909811102C032
:1013E00080E068C010924E04CE0103960E94680906
:1013F0008823B1F38B818B3199F7CE0103960E943C
:101400006809882369F39B8180914F049813E8CF82
:10141000CE0102960E946809882311F38A818230E6
:10142000F8F6CE0101960E9468098823C9F28981E5
:101430009A81892BA9F2CE0103960E94680988231C
:1014400079F28B818E3061F6CE0103960E94680995
:10145000882331F29B81809150049813C1CFCE0133
:1014600003960E946809882309F4BACF8B81811101
:10147000B7CF00E010E0C701800F911F29813A81AA
:10148000225031090217130740F40E94680988238B
:1014900009F4A6CF0F5F1F4FEECFCE0103960E9437
:1014A0006809882309F49CCF80914E04811198CF5C
:1014B0002A9A81E00F900F900F90DF91CF911F91AA
:1014C0000F91FF90EF900895CF9381E080935004A7
:1014D0000E941A0980E00E94E60881E00E94E60866
:1014E0008EE00E94E60881E00E94E6080E94300932
:1014F00082E292E00E94E009C82F811103C00E949D
:10150000290501C0C1E08C2FCF910895FF920F9360
:101510001F93CF93DF938C01C62FF42ED22F8DE132
:10152000809350040E941A0980E00E94E60888E037
:101530000E94E6088EE00E94E6088DE10E94E6081F
:1015400084E00E94E60884E00E94E60880E00E94B1
:10155000E6088C2F0E94E6088F2D0E94E6088D2F4A
:101560000E94E60880E00E94E6080E94300982E2BC
:1015700092E00E94E009882399F080912202811173
:101580000EC080912302C81711F0811108C080910C
:101590002402811104C080912502F801808381E03A
:1015A000DF91CF911F910F91FF9008950E94640ADF
:1015B000882399F021E040E060E388E392E00E9414
:1015C000860A882351F022E040E060E387E392E05E
:1015D0000E94860A91E0811101C090E0892F089550
:1015E000809144038F3F21F4809140038F3F29F184
:1015F00086E0809350040E941A0980E00E94E60869
:1016000085E00E94E6088EE00E94E60886E00E94DF
:10161000E60880E00E94E60880E00E94E6088091EB
:1016200044030E94E608809140030E94E6080E945D
:10163000300982E292E00C94E00981E00895CF93B2
:10164000C1E0809145038111C0E00E941A0980E049
:101650000E94E60884E00E94E6088EE00E94E60808
:10166000809150040E94E6088C2F0E94E608809129
:1016700045030E94E60880EA0E94E6080E943009BD
:101680008091350290913602CF910C94E0090F932E
:101690001F93CF93DF93C0914503CC2339F08C2F58
:1016A00090E00A96182F092FD0E003C01AE001E05D
:1016B000D1E00E941A09802F0E94E608812F0E9423
:1016C000E6088EE00E94E608809150040E94E60839
:1016D0008D2F0E94E6088C2F0E94E60880E00E9471
:1016E000E60880E00E94E60880E00E94E60880E0CC
:1016F0000E94E60880E00E94E60880E00E94E6087A
:1017000080E00E94E608E0913502F0913602808187
:101710000E94E608809135029091360201969093DE
:10172000360280933502C15071F70E94300982E27F
:1017300092E0DF91CF911F910F910C94E00982E12B
:10174000809350040E941A0980E00E94E60887E016
:101750000E94E6088EE00E94E60882E10E94E60808
:1017600084E10E94E60880E00E94E6088CEA0E947C
:10177000E60888E80E94E60883E10E94E60886E71A
:101780000E94E6080E94300982E292E00C94E0098F
:101790000E94F00A882329F084E1809350040C947D
:1017A0001F0B80E008950E94F00A882329F086E14B
:1017B000809350040C941F0B80E008950E94F00A5F
:1017C000882329F083E1809350040C94470B80E038
:1017D00008950E94F00A882329F085E1809350043F
:1017E0000C94470B80E00895E0ECF0E080818D7F61
:1017F000808389E190E09093C5008093C40086E0E7
:101800008093C20088E18093C10085E080938100CD
:1018100008959091C00095FFFCCF8093C600809101
:10182000C00086FFFCCF089510924D0410928500F1
:10183000109284008091C00087FD0FC080918400C9
:101840009091850021E0853C39E0930708F420E081
:1018500020934D04853C994068F38091C60008951B
:10186000EE0FFF1F0024001C0BBE0790F691E02D29
:061870000994F894FFCF7B
:101876003437310000000000000000000D424C48E3
:10188600656C69F47D347741526D313238305F31A1
:0218960036001A
:00000001FF
