:100000000C944D000C946A000C946A000C946A00E5
:100010000C946A000C946A000C946A000C946A00B8
:100020000C946A000C946A000C946A000C946A00A8
:100030000C946A000C94F6050C946A000C946A0007
:100040000C946A000C946A000C946A000C946A0088
:100050000C946A000C946A000C946A000C946A0078
:100060000C946A000C946A003807470756076A0721
:100070007F079307A707BB0741095D096009670967
:100080006E09AF09D10ACA09F009000A1F0A580A05
:10009000C109360AA50AA409BA0A11241FBECFEF66
:1000A000D4E0DEBFCDBF11E0A0E0B1E0E4E2FEE1CC
:1000B00002C005900D92A232B107D9F723E0A2E267
:1000C000B1E001C01D92AC35B207E1F70E9406080D
:1000D0000C94100F0C94000081E080934702E09193
:1000E0003301F09134012AEB38E0808140913201F4
:1000F00090E002C0959587954A95E2F780FD03C090
:100100001092B20005C02150310979F780E00895BE
:100110008091B2008A30E0F3E0913301F091340134
:1001200080812091320190E002C0959587952A95B3
:10013000E2F780FDEBCF40E050E080E09AE061E044
:1001400070E0935F2091B2002917E0F32081A09125
:10015000320130E002C035952795AA95E2F720FFDD
:1001600007C09B01042E01C0220F0A94EAF7822BDC
:100170004F5F5F4F923729F79091B2009F37E0F3BE
:1001800020819091320130E002C0359527959A95F3
:10019000E2F720FFBBCF1092470208954091320151
:1001A000E0913A01F0913B01908121E030E002C002
:1001B000220F331F4A95E2F720953095292320839B
:1001C0001092B2009091B2009D30E0F39DE041E0CA
:1001D00050E0E0913A01F0913B01209132016081C1
:1001E000DA0102C0AA0FBB1F2A95E2F79D0180FF2A
:1001F00002C0262B03C02095309526232083935FD1
:1002000086952091B2002917E0F3953711F73091C8
:100210003201E0913A01F0913B01208181E090E0D0
:1002200001C0880F3A95EAF7822B80838091B20053
:100230008238E0F308952091350180914E0290912B
:100240004F0238E0AC0142279695879540FF04C0E5
:1002500041E0842740EA94272695315099F79093FE
:100260004F0280934E022093350108950F931F9300
:10027000CF938C01C62F10924F0210924E02109213
:100280003701109236010E946C00809335019091E5
:100290004702911127C0F80181938F010E941B0131
:1002A000C15089F780913E01882311F10E946C00B2
:1002B0008093360180914702811114C00E946C0026
:1002C000809337018091470281110CC020914E022A
:1002D00030914F02809136019091370128173907EC
:1002E00051F406C08FEF91E0803349F090E007C0F1
:1002F0000E946C00F8CF0E946C0082ECF4CF892F32
:10030000CF911F910F9108950F931F93CF938C015D
:10031000C62F30913201E0913801F09139012081EE
:1003200081E090E001C0880F3A95EAF7822B808344
:1003300085E88A95F1F7000010924F0210924E0264
:10034000F80181918F01809335010E94CE000E94B7
:100350001B01C150A9F780913E01882341F0809193
:100360004E020E94CE0080914F020E94CE0030913A
:100370003201E0913801F0913901208181E090E073
:1003800002C0880F991F3A95E2F7809590958223D5
:100390008083CF911F910F910895CF93DF93CDB7B5
:1003A000DEB76D970FB6F894DEBF0FBECDBF80915C
:1003B000000190910101A09102018B8F9C8FAD8F64
:1003C00081E1E4E0F1E0DE01119601900D928A9561
:1003D000E1F761E1CE0101960E94840168E0CE015F
:1003E00042960E9436018823C9F0FE017296DE0112
:1003F0005B96CE01459631912D9132130EC0E817D0
:10040000F907C9F78D89809340018E8980933F0158
:100410008F8980933E0181E001C080E06D960FB628
:10042000F894DEBF0FBECDBFDF91CF910895CF937B
:10043000C82F0E946C00C15090914702992319F077
:10044000C111F7CF8FEFCF910895CF93DF9300D0F5
:10045000CDB7DEB78DEF89831A8262E0CE010196B7
:100460000E94840181E00E941702813C21F00E94D9
:10047000020680E001C081E00F900F90DF91CF91E4
:100480000895CF93DF9300D0CDB7DEB719821A82DB
:1004900081E080933E0162E0CE0101960E948401DA
:1004A0000E9402060F900F90DF91CF910895CF9395
:1004B000DF9300D000D0CDB7DEB790914C02809191
:1004C00048029F3F11F48F3F91F02FEF29831A824A
:1004D0009B838C8364E0CE0101960E94840182E0BC
:1004E0000E94170291E0803319F090E001C091E082
:1004F000892F0F900F900F900F90DF91CF9108955B
:10050000CF93DF9300D000D0CDB7DEB78EEF8983D5
:100510001A821B8280914D028C83811102C081E07E
:100520008B8364E0CE0101960E94840182E00E94E8
:1005300017028F3F71F460914D0280913C019091C0
:100540003D010E94840188E20E94170291E08033FD
:1005500009F090E0892F0F900F900F900F90DF918E
:10056000CF910895CF93DF9300D0CDB7DEB70E942F
:1005700057028823E9F080914D028A8380914B02D3
:10058000823029F0843029F0813029F402C087E0DC
:1005900001C083E0898362E0CE0101960E9484015C
:1005A00060914D0280913C0190913D010E94360185
:1005B0000F900F90DF91CF910895CF93DF9300D0EC
:1005C000CDB7DEB70E945702882391F084E089837B
:1005D00080914D028A8362E0CE0101960E948401DF
:1005E00060914D0280913C0190913D010E94360145
:1005F0000F900F90DF91CF910895CF93DF9300D0AC
:10060000CDB7DEB70E945702982F8823A9F00E9429
:100610008002982F882381F085E0898381E08A8396
:1006200062E0CE0101960E94840180E00E941702E0
:1006300091E0803309F090E0892F0F900F90DF91C7
:10064000CF910895CF93DF9300D0CDB7DEB70E944E
:100650005702882389F082E0898381E08A8362E0FF
:10066000CE0101960E94840180E00E94170280332F
:1006700011F481E001C080E00F900F90DF91CF91E5
:100680000895CF93DF9300D0CDB7DEB70E94570215
:10069000982F8823A1F00E948002982F882379F058
:1006A00081E089838A8362E0CE0101960E94840101
:1006B00082E30E94170291E0803309F090E0892FD5
:1006C0000F900F90DF91CF910895CF93DF9300D0DB
:1006D000CDB7DEB70E945702882381F00E948002C6
:1006E000882361F084E0898381E08A8362E0CE011F
:1006F00001960E94840184E00E9417020F900F90DF
:10070000DF91CF91089520913201E0913A01F0916B
:100710003B01408181E090E0BC0102C0660F771F81
:100720002A95E2F79B012095309524232083309170
:100730003201E0913A01F0913B01208101C0880F24
:100740003A95EAF7822B8083089510923E01109229
:100750003F0110924001109241010E94E5070E9462
:10076000DC0720913201E0913801F091390140819C
:1007700081E090E0BC0102C0660F771F2A95E2F786
:100780009B012095309524232083E7ECF0E03197FE
:10079000F1F700C00000E0913301F09134012081B5
:1007A0004091320130E002C0359527954A95E2F735
:1007B000217040913201E0913801F091390130818E
:1007C000BC0102C0660F771F4A95E2F7AB01432BCD
:1007D000408340913201E0913A01F0913B01308138
:1007E00002C0880F991F4A95E2F780959095832360
:1007F000808375E37A95F1F700001C9922602C98AC
:10080000249840913201E0913A01F0913B0130810E
:1008100081E090E0BC0102C0660F771F4A95E2F7C5
:10082000AB01432B408340913201E0913801F091BC
:100830003901308102C0880F991F4A95E2F78095EF
:100840009095832380832093400181E0211101C092
:1008500080E0089530913201E0913801F091390142
:10086000208181E090E001C0880F3A95EAF7822B61
:1008700080830E948303249A08952C9824980E94D0
:10088000830330913201E0913801F09139012081E8
:1008900081E090E002C0880F991F3A95E2F78095B9
:1008A0009095822380830895CF93DF930E942A043A
:1008B0002C980E9483032C9A0E9483032C982498DE
:1008C000D8E0C0E0C6950E9483031C99C068D1504F
:1008D000C9F70E943D048C2FDF91CF910895CF93EB
:1008E000DF93CFEFDFEF0E94540480FD04C0209718
:1008F00011F02197F8CF81E0CD2B09F480E0DF9152
:10090000CF910895CF93DF93D82F0E942A042C9A79
:100910000E9483030E948303C8E0D0FF02C02C9A88
:1009200001C02C980E948303D695C150B1F7DF9186
:10093000CF910C943D04CF93DF932C982498CFEF64
:10094000DFEF0E948303219711F01C9BFACF81E017
:10095000CD2B09F480E0DF91CF910895CF931092D1
:1009600054030E942A042C980E9483030E9483034C
:100970000E9483030E9483030E949B048823A1F0AA
:10098000C8E0809154038695809354030E948303AA
:100990001C9B05C080915403806880935403C15010
:1009A00081F70E943D0481E0CF9108950E946F0479
:1009B000882349F00E94AE04882329F081E09091B9
:1009C00054039D3009F080E0089580E00E94820485
:1009D0000E94AE048091540388508B3210F0109224
:1009E00054038091540380933E010895CF93DF9385
:1009F000D82F0E942A042C9A0E9483032C980E94CC
:100A000083030E9483030E948303C8E0D0FF02C0D7
:100A10002C9A01C02C980E948303D695C150B1F73F
:100A20000E949B04882361F00E943D04CFEFDFEF1A
:100A30000E94540481FF04C0209711F02197F8CF41
:100A4000DF91CF91089580914C020E94F60480912D
:100A500048020E94F60480914D020E94F6040C9414
:100A6000D604CF93C82F84EB0E9482048C2F0E945F
:100A7000F604CF910C94D6040E94A503811102C004
:100A800080E008950E94E5048823D1F382E00E946B
:100A9000820482E00E94F60484E00E94F6048BED5A
:100AA00090E00197F1F700C0000081E00E94F60499
:100AB0009FEB2AED80E0915020408040E1F700C09C
:100AC000000082E00E9431058823D1F20E94AE042A
:100AD0008091540380933F018FEF0E94820480E84D
:100AE0000E94F6048FEC97E00197F1F700C0000038
:100AF0008FEE0E94820482E00E94F60481E0089555
:100B0000CF9386E00E943105811102C080E01EC0B3
:100B10000E9423058823D1F3C0914D020E946F04E7
:100B20008823A1F30E94AE04882381F3E0913C0165
:100B3000F0913D01CF01019690933D0180933C01DE
:100B4000809154038083C15049F781E0CF9108958B
:100B5000CF9387E00E9431058823C1F00E942305CE
:100B60008823A1F0C0914D02E0913C01F0913D013C
:100B7000CF01019690933D0180933C0180810E94BA
:100B8000F604C15089F7CF910C946F0480E0CF91A7
:100B90000895CF93C0914C02C695CF3090F488E071
:100BA0000E943105882369F08C2F0E94F6040E9470
:100BB000D604882331F080E00E94F604CF910C9493
:100BC0006F0480E0CF91089583E00E94310588236F
:100BD00059F08EED0E94F6048DEA0E94F60485EA33
:100BE0000E94F6040C946F0480E008951F920F9207
:100BF0000FB60F9211240C9400000F900FBE0F90AF
:100C00001F90189510923F0110923E010895EF92A7
:100C1000FF920F931F93CF93DF9310923F01109297
:100C20003E0180914B02882361F0853008F0EFC0CF
:100C3000C3E0D0E014E003E0FF24F39482E0E82E68
:100C4000B3C00E943C05E1C08091C00087FDD6C0C2
:100C500080914B02843009F4ACC00E94B00D88230F
:100C600009F4A7C000934B0280913E0190913F018F
:100C70008730934909F4A5C080913E0190913F01CE
:100C80008A30934909F49DC080913E0190913F01C3
:100C90008F30934909F495C080913E0190913F01B6
:100CA00031E08B30944909F030E080913E01909121
:100CB0003F018031934F09F486C080913E019091AD
:100CC0003F018033934F09F47EC080913E019091A3
:100CD0003F018031944F09F476C080913E0190919C
:100CE0003F018039934F09F46EC080913E0190918D
:100CF0003F018035984F09F466C080913E01909184
:100D00003F01813B984E09F45EC080913E01909175
:100D10003F0121E0823B984E09F020E080913E01A6
:100D200090913F0186309F4109F44FC080913E0170
:100D300090913F018630934309F447C080913E0172
:100D400090913F018630944309F43FC080913E0169
:100D500090913F0186309543C1F180913E01909181
:100D60003F0186309B4289F180913E0190913F0185
:100D700051E040E08630974409F050E0852F942FF1
:100D8000482F311125C0211123C0992790914B0282
:100D9000913008F52197A9F1811132C08FE39CE9C8
:100DA0000197F1F700C000008091C10084FF50CF8F
:100DB0004BCF0E94CD01882309F456CF10934B02EC
:100DC00053CF31E072CF21E0A9CF81E090E0D8CFBE
:100DD00081E090E0DBCF933010F09430D9F62223FD
:100DE00019F0F0924B02D6CF332319F0E0924B0268
:100DF000D1CF442379F210934B02CCCF80E001C0D5
:100E000081E090914B0290934101811105C01092B5
:100E10003F0110923E0180E0DF91CF911F910F9131
:100E2000FF90EF900895909146029817B1F090913D
:100E30004B02911112C040913201E0913A01F091C0
:100E40003B01908121E030E002C0220F331F4A9520
:100E5000E2F72095309529232083482F50E0483031
:100E6000510508F09DC0FA01EC5CFF4F0C940A0F8D
:100E700024E230E0309339012093380125E230E05C
:100E800030933B0120933A0123E230E05AC024E240
:100E900030E0309339012093380125E230E030937F
:100EA0003B0120933A0123E230E037C024E230E0F6
:100EB000309339012093380125E230E030933B0133
:100EC00020933A0123E230E0309334012093330140
:100ED00091E064C024E230E030933901209338017E
:100EE00025E230E030933B0120933A0123E230E0E9
:100EF00030933401209333011092320151C027E224
:100F000030E0309339012093380128E230E030930B
:100F10003B0120933A0126E230E0309334012093E4
:100F2000330192E03BC027E230E030933901209357
:100F3000380128E230E030933B0120933A0126E269
:100F400030E0309334012093330193E027C027E24F
:100F500030E0309339012093380128E230E03093BB
:100F60003B0120933A0126E230E030933401209394
:100F7000330194E013C027E230E03093390120932D
:100F8000380128E230E030933B0120933A0126E219
:100F900030E0309334012093330195E09093320197
:100FA0008093460208952B9A2A9A299A289A429A5F
:100FB000439A449A459A08952B982A9829982898F4
:100FC00042984398449845980895239A229A219AE2
:100FD000209A3A9A3B9A3C9A3D9A089523982298EF
:100FE000219820983A983B983C983D980895809194
:100FF0004B02882351F083E08093B1000E94EE07FA
:101000000E94D30780E00C94130708950FB6F8945C
:10101000A8958091600088618093600010926000C4
:101020000FBE0E94F7070E94CE0E0E949008EECFDE
:101030009627092E0294202D2F702927692F6025CD
:10104000660F607E2627602D6927607F6695092ED2
:10105000000C661F9695969596959F7196279827F2
:10106000822F08952F923F92EF92FF921F93CF937A
:10107000DF93E1016EE280E090E00E9418086F814A
:101080000E94180860914C020E9418086091480262
:101090000E9418086E810E941808382F292FEC80B2
:1010A000FD801E81F70161917F01832F922F0E94A5
:1010B0001808382F292F1150A9F76B810E941808A2
:1010C000F82EE92E8EE20E94E30E8F810E94E30E3D
:1010D00080914C020E94E30E809148020E94E30E30
:1010E0008E810E94E30E1E81EC81FD8180810E9431
:1010F000E30E8C819D8101969D838C831150A1F715
:101100008B810E94E30E8E2D0E94E30E8F2DDF91C6
:10111000CF911F91FF90EF903F902F900C94E30E92
:101120002F923F924F925F926F927F928F929F92F7
:10113000AF92BF92CF92DF92EF92FF920F931F93E5
:10114000CF93DF93CDB7DEB72A970FB6F894DEBF03
:101150000FBECDBFF8945E0129E0A20EB11C00E5E0
:1011600012E022E4C22E21E0D22E44244394512CDA
:101170004EE3642E41E0742E0E94EE0E8F32E1F7B2
:101180001A861986BE82AD8241E04F830E94EE0E20
:101190008887909155039111EFCF8F3219F40E94F7
:1011A000EE0E88876FE280E090E00E941808688564
:1011B0000E9418087C010E94EE0E80934C029091D0
:1011C0005503992311F081E048C0682FC7010E94A0
:1011D00018087C010E94EE0E8093480290915503FE
:1011E0009111F1CF682FC7010E9418087C010E945D
:1011F000EE0E8B83909155039111E5CF682FC701B7
:101200000E9418087C013B8090E5892E92E0992E7F
:101210000E94EE0EF40181934F01909155039111BC
:10122000D2CF682FC7010E9418087C013A94311070
:10123000EFCF0E94EE0E8A83809155038111C3CFB8
:101240000E94EE0E8983809155038111BCCF2981C4
:101250003A81E216F30609F083E08C838111A3C181
:1012600010933D0100933C01E8858E2F90E0FC0136
:10127000F097E131F10508F094C1E45CFF4F0C9464
:101280000A0F80913E01882309F48DC180914B02A1
:10129000833028F4813040F40E94E50407C0833095
:1012A00049F0843009F07FC10E94250281117BC181
:1012B0008FE078C10E943E0DF9CF8BE6898773C11C
:1012C0008BE08F8345E151E05E834D836CC182E00A
:1012D0008F8388EC898753E05A8765C1CE010196D8
:1012E0001C010E94320880914B02811106C00E94AD
:1012F000A5030E94EE070E94DC0780E00E9413070E
:101300000E9402069FEFE1EEF4E09150E040F040D1
:10131000E1F700C000002A960FB6F894DEBF0FBEBA
:10132000CDBFDF91CF911F910F91FF90EF90DF9094
:10133000CF90BF90AF909F908F907F906F905F9075
:101340004F903F902F90089580915002853010F07B
:1013500089E028C180934B020E94F70724C1809145
:101360005002883090F40E94130780914B02833022
:1013700028F4813060F40E94A50315C1843039F04F
:1013800012C180915002883090F088E00BC10E9419
:10139000410209C1809150028830B8F70E941307BA
:1013A00024E02F837E826D820E9407067FCF0E94F9
:1013B000130780914B028111F6C080913201E091B8
:1013C0003A01F0913B012081A20102C0440F551F58
:1013D0008A95E2F7CA018095909582238083E3C0C5
:1013E00080914B02833030F4813008F0DAC00E94E3
:1013F000E4055CCF833009F0B4C00E94790E56CF6B
:1014000090914B02943018F4923020F0CAC094307E
:1014100009F0C9C0809150028987943019F4880F6F
:10142000880F01C0880F80934C02109248029111DE
:1014300003C00E94C9053ACF0E94220337CF809192
:10144000500280934D0280914B02833028F481300A
:1014500038F40E9480051BC0833029F08430F9F4F1
:101460000E94B20214C00E94A20E11C080915002CC
:1014700080934D0280914B02823039F020F083300E
:1014800059F0843061F482E005C00E94DD028111D0
:1014900006C08FE08C8303C00E94AD0EF8CF8C8114
:1014A000811181C080914D028F831E830D837BC08B
:1014B0008B8180934D028FE08C8380914B0283302F
:1014C00018F4813030F039C08330E1F18430A9F173
:1014D0006AC00E94A805882309F465C0D0923D0126
:1014E000C0923C010E948005882309F45CC01C82E4
:1014F00010933D0100933C01D0924A02C0924902F0
:1015000080914D02A0913C01B0913D01E0914902D2
:10151000F0914A022C919081291711F054E05C83DC
:101520001196B0933D01A0933C013196F0934A028D
:10153000E0934902815031F736C00E94410388236D
:1015400091F12BC00E94B80EFACF8B8180934D028F
:101550008FE08C8380914B02823031F010F1833028
:1015600031F0843001F51DC00E94FD02E8CF0E94D9
:10157000C30EE5CFE0904B0284E0E81212C08B81ED
:1015800080934D028FE0F82EFC820E946503803329
:1015900021F0803C21F4EC8206C01C8204C0FC8255
:1015A00002C082E08C83FE0131961F010E94320846
:1015B000E3CD90915A03982790935A0398E021E045
:1015C00030E0E0913A01F0913B01409132016081BD
:1015D000D90102C0AA0FBB1F4A95E2F7AD01462B05
:1015E00040831092B20080FF20C04091B200403191
:1015F000E0F340913201E0913A01F0913B016081CA
:10160000D90102C0AA0FBB1F4A95E2F7AD01409570
:101610005095462340831092B2004091B200403171
:10162000E0F38695915069F608954091B2004830F4
:10163000E0F340913201E0913A01F0913B01608189
:10164000D90102C0AA0FBB1F4A95E2F7AD01409530
:101650005095462340831092B2004091B20048302A
:10166000E0F340913201E0913A01F0913B01608159
:10167000D90102C0AA0FBB1F4A95E2F7AD01462B64
:1016800040831092B2004091B2004830E0F34091A4
:101690003201E0913A01F0913B016081D90102C031
:1016A000AA0FBB1F4A95E2F7AD014095509546231E
:1016B00040831092B2004091B2004830E0F3B1CFC5
:1016C00030913201E0913801F0913901208181E0BF
:1016D00090E001C0880F3A95EAF7822B80838FEF64
:1016E0000E94D90A8FEF0E94D90A8FE70E94D90A77
:1016F00010925A038BE10E94D90A809157038F5FA1
:10170000809357030C94D90A80915A030E94D90AF6
:1017100030913201E0913A01F0913B01208181E06A
:1017200090E001C0880F3A95EAF7822B80831092EF
:10173000B2008091B2008830E0F330913201E09144
:101740003801F0913901208181E090E002C0880FDA
:10175000991F3A95E2F780959095822380830895AA
:101760001092B200E0913301F09134018081209118
:10177000320190E002C0959587952A95E2F780FFA7
:101780000AC08091B2008E3788F38FEF0895809160
:10179000B2008E37D0F780812091320190E002C0F4
:1017A000959587952A95E2F780FFF1CF8091B20059
:1017B0008093590390915B03981738F11092B2000F
:1017C000E0913301F091340180812091320190E069
:1017D00002C0959587952A95E2F780FF09C0809110
:1017E000B2008E3788F3D1CF8091B2008E3768F681
:1017F00080812091320190E002C0959587952A95CD
:10180000E2F780FFF1CF80E0089581E00895FC01C8
:10181000108280E090E041E050E01092B200A09190
:101820003301B09134012C916091320130E002C05B
:10183000359527956A95E2F720FF0AC02091B200FE
:101840002E3788F380E008952091B2002E37D0F72C
:101850002C916091320130E002C0359527956A9550
:10186000E2F720FFF1CF3091B20020915B03231704
:1018700030F11092B200A0913301B09134012C915B
:101880006091320130E002C0359527956A95E2F704
:1018900020FF09C02091B2002E3788F3D3CF2091CA
:1018A000B2002E3778F62C916091320130E002C000
:1018B000359527956A95E2F720FFF1CF09C0608141
:1018C0009A01082E01C0220F0A94EAF7262B2083E2
:1018D00001968830910509F0A0CF90915603808140
:1018E00089278093560381E00895CF93DF9388E1A1
:1018F00080935B0380915803853139F0823129F060
:10190000813031F0C3E2D0E005C0C0E6DAEE02C0BB
:10191000C1E0D0E00E94B00B87FF04C02197D1F74F
:1019200080E017C0CAE00E94B00B8F3FC9F3C150DE
:10193000D1F780915903982F969586958695890FB2
:1019400080935B030E94B00B8F3F51F31816D4F3C2
:1019500081E0DF91CF910895EF92FF920F931F9353
:10196000CF93DF9300D01F92CDB7DEB77C011B82EF
:101970000E94750C811102C080E076C0109256035F
:10198000CE0103960E94070C8823B1F38B818B3123
:1019900099F7CE0103960E94070C882369F39B8177
:1019A000809157039813E8CFCE0102960E94070C4E
:1019B000882311F38A818230F8F6CE0101960E94C5
:1019C000070C8823C9F289819A81892BA9F2CE015B
:1019D00003960E94070C882379F28B818E3061F682
:1019E000CE0103960E94070C882331F29B818091DF
:1019F00058039813C1CFCE0103960E94070C882389
:101A000009F4BACF8B818111B7CF00E010E0C70194
:101A1000800F911F29813A81225031090217130743
:101A200040F40E94070C882309F4A6CF0F5F1F4FD4
:101A3000EECFCE0103960E94070C882309F49CCFB9
:101A400080915603811198CF30913201E0913A0193
:101A5000F0913B01208181E090E001C0880F3A9530
:101A6000EAF7822B808381E00F900F900F90DF9137
:101A7000CF911F910F91FF90EF900895CF9381E048
:101A8000809358030E94600B80E00E94D90A81E095
:101A90000E94D90A8EE00E94D90A81E00E94D90AE8
:101AA0000E94840B82E291E00E94AC0CC82F81114D
:101AB00003C00E94020601C0C1E08C2FCF9108959F
:101AC000FF920F931F93CF93DF938C01C62FF42EB9
:101AD000D22F8DE1809358030E94600B80E00E941A
:101AE000D90A88E00E94D90A8EE00E94D90A8DE1C5
:101AF0000E94D90A84E00E94D90A84E00E94D90A8F
:101B000080E00E94D90A8C2F0E94D90A8F2D0E9452
:101B1000D90A8D2F0E94D90A80E00E94D90A0E941A
:101B2000840B82E291E00E94AC0C882399F08091B2
:101B3000220181110EC080912301C81711F081117B
:101B400008C080912401811104C080912501F80111
:101B5000808381E0DF91CF911F910F91FF900895D5
:101B60000E943E0D882399F021E040E060E38FE37E
:101B700091E00E94600D882351F022E040E060E394
:101B80008EE391E00E94600D91E0811101C090E030
:101B9000892F089580914C028F3F21F48091480253
:101BA0008F3F29F186E0809358030E94600B80E00C
:101BB0000E94D90A85E00E94D90A8EE00E94D90AC3
:101BC00086E00E94D90A80E00E94D90A80E00E9443
:101BD000D90A80914C020E94D90A809148020E9441
:101BE000D90A0E94840B82E291E00C94AC0C81E053
:101BF0000895CF93C1E080914D028111C0E00E9411
:101C0000600B80E00E94D90A84E00E94D90A8EE02D
:101C10000E94D90A809158030E94D90A8C2F0E94F1
:101C2000D90A80914D020E94D90A80EA0E94D90AFD
:101C30000E94840B80913C0190913D01CF910C94C6
:101C4000AC0C0F931F93CF93DF93C0914D02CC2325
:101C500039F08C2F90E00A96182F092FD0E003C09E
:101C60001AE001E0D1E00E94600B802F0E94D90AA7
:101C7000812F0E94D90A8EE00E94D90A80915803D0
:101C80000E94D90A8D2F0E94D90A8C2F0E94D90A4E
:101C900080E00E94D90A80E00E94D90A80E00E9478
:101CA000D90A80E00E94D90A80E00E94D90A80E027
:101CB0000E94D90A80E00E94D90AE0913C01F0918B
:101CC0003D0180810E94D90A80913C0190913D01A3
:101CD000019690933D0180933C01C15071F70E94A1
:101CE000840B82E291E0DF91CF911F910F910C94D0
:101CF000AC0C82E1809358030E94600B80E00E944C
:101D0000D90A87E00E94D90A8EE00E94D90A82E1AE
:101D10000E94D90A84E10E94D90A80E00E94D90A6F
:101D20008CEA0E94D90A88E80E94D90A83E10E94BD
:101D3000D90A86E70E94D90A0E94840B82E291E0C8
:101D40000C94AC0C0E94CA0D882329F084E1809386
:101D500058030C94F90D80E008950E94CA0D882361
:101D600029F086E1809358030C94F90D80E00895E2
:101D70000E94CA0D882329F083E1809358030C94B4
:101D8000210E80E008950E94CA0D882329F085E184
:101D9000809358030C94210E80E00895E0ECF0E06D
:101DA00080818D7F80838CE090E09093C50080934C
:101DB000C40086E08093C20088E18093C10085E082
:101DC0008093810008959091C00095FFFCCF80938F
:101DD000C6008091C00086FFFCCF08951092550385
:101DE00010928500109284008091C00087FD0FC082
:101DF000809184009091850021E0853C39E0930733
:101E000008F420E020935503853C994068F38091C5
:101E1000C6000895EE0FFF1F0590F491E02D099480
:041E2000F894FFCF64
:101E24003437310000000000000000000D424C482F
:101E3400656C69F47D6D347741526D3136385F38A5
:021E440000009C
:00000001FF
