:100000000C94BD000C94DE000C94DE000C94DE0019
:100010000C94DE000C94DE000C94DE000C94DE00E8
:100020000C94DE000C94DE000C94DE000C94DE00D8
:100030000C94DE000C94DE000C94DE000C94DE00C8
:100040000C94DE000C94DE000C94DE000C94DE00B8
:100050000C9477060C94DE000C94DE000C94DE0009
:100060000C94DE000C94DE000C94DE000C94DE0098
:100070000C94DE000C94DE000C94DE000C94DE0088
:100080000C94DE000C94DE000C94DE000C94DE0078
:100090000C94DE000C94DE000C94DE000C94DE0068
:1000A0000C94DE000C94DE000C94DE000C94DE0058
:1000B0000C94DE000C94DE000C94DE000C94DE0048
:1000C0000C94DE000C94DE000C94DE000C94DE0038
:1000D0000C94DE000C94DE000C94DE000C94DE0028
:1000E0000C94DE00BF07CE07E307F7070B081F08D5
:1000F000330847080F0A2B0A2E0A350A3C0A7D0AE4
:100100009F0B980ABE0ACE0AED0A260B8F0A040B33
:10011000730B720A880B0C94260B0C94720A0C94C5
:10012000350A0C940F0A0C94ED0A0C94E3070C9416
:100130008F0A0C943C0A0C94040B0C94F7070C9453
:10014000BE0A0C947D0A0C941F080C949F0B0C940F
:10015000730B0C94BF070C94CE070C94880B0C9473
:100160002B0A0C9447080C940B080C94CE0A0C94A0
:10017000980A0C9433080C942E0A11241FBECFEF5A
:10018000D1E2DEBFCDBF00E00CBF12E0A0E0B2E0E4
:10019000E2ECFFE100E00BBF02C007900D92A43239
:1001A000B107D9F724E0A4E2B2E001C01D92AE3558
:1001B000B207E1F70E94D2080C94DF0F0C94000004
:1001C00081E080934903E0913502F091360220EC02
:1001D00032E180814091340290E002C0959587958C
:1001E0004A95E2F780FD03C01092B20005C021508D
:1001F000310979F780E008958091B2008A30E0F308
:10020000E0913502F091360280812091340290E035
:1002100002C0959587952A95E2F780FDEBCF40E0E7
:1002200050E080E09AE061E070E0935F2091B200DE
:100230002917E0F32081A091340230E002C0359507
:100240002795AA95E2F720FF07C09B01042E01C065
:10025000220F0A94EAF7822B4F5F5F4F923729F7FC
:100260009091B2009F37E0F320819091340230E00A
:1002700002C0359527959A95E2F720FFBBCF1092E3
:100280004903089540913402E0913C02F0913D020F
:10029000908121E030E002C0220F331F4A95E2F73F
:1002A00020953095292320831092B2009091B200BE
:1002B0009D30E0F39DE041E050E0E0913C02F091A0
:1002C0003D02209134026081DA0102C0AA0FBB1FF7
:1002D0002A95E2F79D0180FF02C0262B03C02095DE
:1002E000309526232083935F86952091B2002917AD
:1002F000E0F3953711F730913402E0913C02F09130
:100300003D02208181E090E001C0880F3A95EAF734
:10031000822B80838091B2008238E0F3089520918F
:100320003702809150039091510338E0AC0142278D
:100330009695879540FF04C041E0842740EA9427C2
:100340002695315099F79093510380935003209351
:10035000370208950F931F93CF938C01C62F1092ED
:1003600051031092500310923902109238020E94E9
:10037000E0008093370290914903911127C0F80162
:1003800081938F010E948F01C15089F780914002B3
:10039000882311F10E94E000809338028091490384
:1003A000811114C00E94E0008093390280914903BA
:1003B00081110CC02091500330915103809138027B
:1003C000909139022817390751F406C08FEF91E058
:1003D000803349F090E007C00E94E000F8CF0E940F
:1003E000E00082ECF4CF892FCF911F910F910895F7
:1003F0000F931F93CF938C01C62F30913402E0915D
:100400003A02F0913B02208181E090E001C0880F28
:100410003A95EAF7822B808387EC90E00197F1F719
:1004200000C000001092510310925003F801819116
:100430008F01809337020E9442010E948F01C150B8
:10044000A9F780914002882341F0809150030E94D7
:100450004201809151030E94420130913402E091A7
:100460003A02F0913B02208181E090E002C0880FC7
:10047000991F3A95E2F78095909582238083CF91DA
:100480001F910F910895CF93DF93CDB7DEB76D978E
:100490000FB6F894DEBF0FBECDBF809100029091E1
:1004A0000102A09102028B8F9C8FAD8F81E1E4E06D
:1004B000F2E0DE01119601900D928A95E1F761E17B
:1004C000CE0101960E94F80168E0CE0142960E949A
:1004D000AA018823C9F0FE017296DE015B96CE0167
:1004E000459631912D9132130EC0E817F907C9F7DF
:1004F0008D89809342028E89809341028F898093F7
:10050000400281E001C080E06D960FB6F894DEBF36
:100510000FBECDBFDF91CF910895CF93C82F0E941A
:10052000E000C15090914903992319F0C111F7CF10
:100530008FEFCF910895CF93DF931F921F92CDB786
:10054000DEB78DEF89831A8262E0CE0101960E94A8
:10055000F80181E00E948D02813C21F00E94830617
:1005600080E001C081E00F900F90DF91CF9108955E
:10057000CF93DF931F921F92CDB7DEB719821A82F5
:1005800081E08093400262E0CE0101960E94F80172
:100590000E9483060F900F90DF91CF910895CF9323
:1005A000DF9300D01F92CDB7DEB790914E038091BC
:1005B0004A039F3F11F48F3F91F02FEF29831A8256
:1005C0009B838C8364E0CE0101960E94F80182E057
:1005D0000E948D0291E0803319F090E001C091E01B
:1005E000892F0F900F900F900F90DF91CF9108956A
:1005F000CF93DF9300D01F92CDB7DEB78EEF898304
:100600001A821B8280914F038C83811102C081E08A
:100610008B8364E0CE0101960E94F80182E00E9483
:100620008D028F3F71F460914F0380913E02909153
:100630003F020E94F80188E20E948D0291E080331F
:1006400009F090E0892F0F900F900F900F90DF919D
:10065000CF910895CF93DF931F921F92CDB7DEB74E
:100660000E94CF028823E9F080914F038A83809112
:100670004D03823029F0843029F0813029F402C002
:1006800087E001C083E0898362E0CE0101960E9489
:10069000F80160914F0380913E0290913F020E94C9
:1006A000AA010F900F90DF91CF910895CF93DF9320
:1006B0001F921F92CDB7DEB70E94CF02882391F020
:1006C00084E0898380914F038A8362E0CE010196A2
:1006D0000E94F80160914F0380913E0290913F0289
:1006E0000E94AA010F900F90DF91CF910895CF93B0
:1006F000DF931F921F92CDB7DEB70E94CF02982FD3
:100700008823A9F00E94F802982F882381F085E0C1
:10071000898381E08A8362E0CE0101960E94F8011C
:1007200080E00E948D0291E0803309F090E0892FF3
:100730000F900F90DF91CF910895CF93DF931F9289
:100740001F92CDB7DEB70E94CF02882389F082E0E6
:10075000898381E08A8362E0CE0101960E94F801DC
:1007600080E00E948D02803311F481E001C080E0BE
:100770000F900F90DF91CF910895CF93DF931F9249
:100780001F92CDB7DEB70E94CF02982F8823A1F029
:100790000E94F802982F882379F081E089838A8368
:1007A00062E0CE0101960E94F80182E30E948D0270
:1007B00091E0803309F090E0892F0F900F90DF9146
:1007C000CF910895CF93DF931F921F92CDB7DEB7DD
:1007D0000E94CF02882381F00E94F802882361F0F2
:1007E00084E0898381E08A8362E0CE0101960E94E1
:1007F000F80184E00E948D020F900F90DF91CF915D
:10080000089520913402E0913C02F0913D02408134
:1008100081E090E0BC0102C0660F771F2A95E2F7E5
:100820009B01209530952423208330913402E09160
:100830003C02F0913D02208101C0880F3A95EAF711
:10084000822B8083089510924002109241021092F0
:100850004202109243020E9491080E94780820915F
:100860003402E0913A02F0913B02408181E090E055
:10087000BC0102C0660F771F2A95E2F79B01209505
:10088000309524232083EFE8F1E03197F1F700C0A1
:100890000000E0913502F09136022081409134024F
:1008A00030E002C0359527954A95E2F721704091D6
:1008B0003402E0913A02F0913B023081BC0102C067
:1008C000660F771F4A95E2F7AB01432B40834091B7
:1008D0003402E0913C02F0913D02308102C0880F69
:1008E000991F4A95E2F7809590958323808370E75E
:1008F0007A95F1F71B9922602B9823984091340246
:10090000E0913C02F0913D02308181E090E0BC0139
:1009100002C0660F771F4A95E2F7AB01432B408375
:1009200075E07A95F1F7000040913402E0913A02C7
:10093000F0913B02308102C0880F991F4A95E2F77F
:1009400080959095832380832093420281E021113A
:1009500001C080E0089530913402E0913A02F091B4
:100960003B02208181E090E001C0880F3A95EAF7D0
:10097000822B80830E940104239A08952B98239848
:100980000E94010430913402E0913A02F0913B025E
:10099000208181E090E002C0880F991F3A95E2F72C
:1009A00080959095822380830895CF93DF930E9452
:1009B000AB042B980E9401042B9A0E9401042B98EF
:1009C0002398D8E0C0E0C6950E9401041B99C06836
:1009D000D150C9F70E94BE048C2FDF91CF910895AA
:1009E000CF93DF93CFEFDFEF0E94D50480FD04C0EB
:1009F000209711F02197F8CF81E0CD2B09F480E00A
:100A0000DF91CF910895CF93DF93D82F0E94AB044D
:100A10002B9A0E9401040E940104C8E0D0FF02C08A
:100A20002B9A01C02B980E940104D695C150B1F7B2
:100A3000DF91CF910C94BE04CF93DF932B98239832
:100A4000CFEFDFEF0E940104219711F01B9BFACF3B
:100A500081E0CD2B09F480E0DF91CF910895CF9311
:100A6000109256040E94AB042B980E9401040E942D
:100A700001040E9401040E9401040E941C058823B5
:100A8000A1F0C8E0809156048695809356040E9498
:100A900001041B9B05C08091560480688093560416
:100AA000C15081F70E94BE0481E0CF9108950E9459
:100AB000F004882349F00E942F05882329F081E063
:100AC000909156049D3009F080E0089580E00E94E6
:100AD00003050E942F058091560488508B3210F038
:100AE0001092560480915604809340020895CF934B
:100AF000DF93D82F0E94AB042B9A0E9401042B98FD
:100B00000E9401040E9401040E940104C8E0D0FF79
:100B100002C02B9A01C02B980E940104D695C150A7
:100B2000B1F70E941C05882361F00E94BE04CFEF3C
:100B3000DFEF0E94D50481FF04C0209711F02197B8
:100B4000F8CFDF91CF91089580914E030E947705F1
:100B500080914A030E94770580914F030E94770598
:100B60000C945705CF93C82F84EB0E9403058C2F5C
:100B70000E947705CF910C9457050E9423048111A0
:100B800002C080E008950E9466058823D1F382E0C8
:100B90000E94030582E00E94770584E00E947705A9
:100BA00087EB91E00197F1F700C0000081E00E941F
:100BB00077059FE725EB81E0915020408040E1F7E9
:100BC00000C0000082E00E94B2058823D1F20E949A
:100BD0002F0580915604809341028FEF0E940305F8
:100BE00080E80E9477058FE99FE00197F1F700C048
:100BF00000008FEE0E94030582E00E94770581E0ED
:100C00000895CF9386E00E94B205811102C080E072
:100C10001EC00E94A4058823D1F3C0914F030E94F7
:100C2000F0048823A1F30E942F05882381F3E0912B
:100C30003E02F0913F02CF01019690933F028093D4
:100C40003E02809156048083C15049F781E0CF91E4
:100C50000895CF9387E00E94B2058823C1F00E94D7
:100C6000A4058823A1F0C0914F03E0913E02F091CA
:100C70003F02CF01019690933F0280933E02808114
:100C80000E947705C15089F7CF910C94F00480E061
:100C9000CF910895CF93C0914E03C695CF3090F475
:100CA00088E00E94B205882369F08C2F0E947705A6
:100CB0000E945705882331F080E00E947705CF918C
:100CC0000C94F00480E0CF91089583E00E94B20577
:100CD000882359F08EED0E9477058DEA0E947705F2
:100CE00085EA0E9477050C94F00480E008951F9235
:100CF0000F920FB60F9211240C9400000F900FBEAC
:100D00000F901F9018951092410210924002089582
:100D1000EF92FF920F931F93CF93DF9310924102B4
:100D20001092400280914D03882361F0853008F0D5
:100D3000F2C0C3E0D0E014E003E0FF24F39482E0CB
:100D4000E82EB6C00E94BD05E4C08091C00087FDBA
:100D5000D9C080914D03843009F4AFC00E947D0E4C
:100D6000882309F4AAC000934D038091400290911A
:100D700041028730934909F4A8C0809140029091C4
:100D800041028A30934909F4A0C0809140029091B9
:100D900041028F30934909F498C0809140029091AC
:100DA000410231E08B30944909F030E080914002FB
:100DB000909141028031934F09F489C080914002A3
:100DC000909141028033934F09F481C08091400299
:100DD000909141028031944F09F479C08091400292
:100DE000909141028039934F09F471C08091400283
:100DF000909141028035984F09F469C0809140027A
:100E000090914102813B984E09F461C0809140026B
:100E10009091410221E0823B984E09F020E08091C0
:100E200040029091410286309F4109F452C0809166
:100E30004002909141028630934309F44AC0809168
:100E40004002909141028630944309F442C080915F
:100E500040029091410286309543D9F18091400241
:100E60009091410286309B42A1F180914002909185
:100E7000410251E040E08630974409F050E0852F70
:100E8000942F482F311128C0211126C09927909105
:100E90004D03913020F52197C1F1811135C08FEFBD
:100EA00099EF20E0815090402040E1F700C0000021
:100EB0008091C10084FF4DCF48CF0E944302882318
:100EC00009F453CF10934D0350CF31E06FCF21E0A1
:100ED000A6CF81E090E0D5CF81E090E0D8CF9330ED
:100EE00010F09430C1F6222319F0F0924D03D3CFC5
:100EF000332319F0E0924D03CECF442361F21093D7
:100F00004D03C9CF80E001C081E090914D039093E3
:100F10004302811105C0109241021092400280E00C
:100F2000DF91CF911F910F91FF90EF900895282F9F
:100F3000809148038217B1F080914D03811112C056
:100F400040913402E0913C02F0913D02308181E019
:100F500090E002C0880F991F4A95E2F7809590951E
:100F600083238083822F90E08830910508F0A4C00D
:100F7000FC018827EE58FF4F8F4F0C94D70F84E267
:100F800090E090933B0280933A0285E290E0909348
:100F90003D0280933C0283E290E037C08AE091E01A
:100FA00090933B0280933A028BE091E090933D0254
:100FB00080933C0289E091E0909336028093350261
:100FC0001092340279C08AE091E090933B028093C2
:100FD0003A028BE091E090933D0280933C0289E0DD
:100FE00091E0909336028093350281E063C08AE0FD
:100FF00091E090933B0280933A028BE091E09093D2
:101000003D0280933C0289E091E090933602809308
:10101000350282E04FC08AE091E090933B028093DA
:101020003A028BE091E090933D0280933C0289E08C
:1010300091E0909336028093350283E03BC08AE0D2
:1010400091E090933B0280933A028BE091E0909381
:101050003D0280933C0289E091E0909336028093B8
:10106000350284E027C08AE091E090933B028093B0
:101070003A028BE091E090933D0280933C0289E03C
:1010800091E0909336028093350285E013C08AE0A8
:1010900091E090933B0280933A028BE091E0909331
:1010A0003D0280933C0289E091E090933602809368
:1010B000350286E0809334022093480308952A9AEB
:1010C000EBE0F1E0808181608083808182608083B9
:1010D000808184608083808188608083808180615A
:1010E0008083808180628083808180648083089592
:1010F0002A98EBE0F1E080818E7F808380818D7F74
:10110000808380818B7F80838081877F80838081C3
:101110008F7E808380818F7D808380818F7B8083A1
:101120000895229AEAE0F1E08081816080838081E5
:1011300082608083808184608083808188608083F6
:1011400080818061808380818062808380818064EF
:10115000808308952298EAE0F1E080818E7F808389
:1011600080818D7F808380818B7F80838081877F5A
:10117000808380818F7E808380818F7D808380814A
:101180008F7B8083089580914D03882351F084E004
:101190008093B1000E94AA080E945F0880E00C942E
:1011A000970708950FB6F894A8958091600088611C
:1011B00080936000109260000FBE0E94C3080E94DE
:1011C0009B0F0E945C09EECF9627092E0294202DDA
:1011D0002F702927692F6025660F607E2627602DD6
:1011E0006927607F6695092E000C661F9695969577
:1011F00096959F7196279827822F08952F923F9258
:10120000EF92FF921F93CF93DF93E1016EE280E0B4
:1012100090E00E94E4086F810E94E40860914E0310
:101220000E94E40860914A030E94E4086E810E94D3
:10123000E408382F292FEC80FD801E81F701619191
:101240007F01832F922F0E94E408382F292F1150FD
:10125000A9F76B810E94E408F82EE92E8EE20E9425
:10126000B00F8F810E94B00F80914E030E94B00F8B
:1012700080914A030E94B00F8E810E94B00F1E81A0
:10128000EC81FD8180810E94B00F8C819D8101964F
:101290009D838C831150A1F78B810E94B00F8E2DFE
:1012A0000E94B00F8F2DDF91CF911F91FF90EF9093
:1012B0003F902F900C94B00F2F923F924F925F92DD
:1012C0006F927F928F929F92AF92BF92CF92DF9256
:1012D000EF92FF920F931F93CF93DF93CDB7DEB7BB
:1012E0002A970FB6F894DEBF0FBECDBFF8945E010B
:1012F00029E0A20EB11C02E513E024E4C22E22E094
:10130000D22E44244394512C40E4642E42E0742EA7
:101310000E94BB0F8F32E1F71A861986BE82AD821A
:1013200041E04F830E94BB0F888790915704911131
:10133000EFCF8F3219F40E94BB0F88876FE280E0F5
:1013400090E00E94E40868850E94E4087C010E9405
:10135000BB0F80934E0390915704992311F081E0C5
:1013600048C0682FC7010E94E4087C010E94BB0F9F
:1013700080934A03909157049111F1CF682FC701D0
:101380000E94E4087C010E94BB0F8B83909157045C
:101390009111E5CF682FC7010E94E4087C013B80D2
:1013A00092E5892E93E0992E0E94BB0FF401819360
:1013B0004F01909157049111D2CF682FC7010E941D
:1013C000E4087C013A943110EFCF0E94BB0F8A836E
:1013D000809157048111C3CF0E94BB0F89838091F4
:1013E00057048111BCCF29813A81E216F30609F036
:1013F00083E08C838111A5C110933F0200933E02CC
:10140000E8858E2F90E0FC01F097E131F10508F0BE
:1014100096C18827E658FF4F8F4F0C94D70F8091C5
:101420004002882309F48DC180914D03833028F454
:10143000813040F40E94660507C0833049F0843053
:1014400009F07FC10E949B0281117BC18FE078C1AE
:101450000E940B0EF9CF8BE6898773C18DE08F83D5
:1014600045E152E05E834D836CC182E08F8388EC5E
:10147000898753E05A8765C1CE0101961C010E94FD
:10148000FE0880914D03811106C00E9423040E9432
:10149000AA080E94780880E00E9497070E948306AD
:1014A0009FEFE3ECF9E09150E040F040E1F700C03D
:1014B00000002A960FB6F894DEBF0FBECDBFDF91B5
:1014C000CF911F910F91FF90EF90DF90CF90BF9041
:1014D000AF909F908F907F906F905F904F903F90D4
:1014E0002F90089580915203853010F089E028C133
:1014F00080934D030E94C30824C180915203883019
:1015000090F40E94970780914D03833028F4813036
:1015100060F40E94230415C1843039F012C1809117
:101520005203883090F088E00BC10E94B80209C1D4
:10153000809152038830B8F70E94970724E02F83E8
:101540007E826D820E9488067FCF0E9497078091DD
:101550004D038111F6C080913402E0913C02F0917C
:101560003D022081A20102C0440F551F8A95E2F777
:10157000CA018095909582238083E3C080914D03BA
:10158000833030F4813008F0DAC00E9465065CCF09
:10159000833009F0B4C00E94460F56CF90914D039E
:1015A000943018F4923020F0CAC0943009F0C9C0C9
:1015B000809152038987943019F4880F880F01C0F5
:1015C000880F80934E0310924A03911103C00E942A
:1015D0004A063ACF0E949D0337CF809152038093F1
:1015E0004F0380914D03833028F4813038F40E94FA
:1015F00001061BC0833029F08430F9F40E942A03CD
:1016000014C00E946F0F11C08091520380934F034A
:1016100080914D03823039F020F0833059F08430CE
:1016200061F482E005C00E945603811106C08FE07C
:101630008C8303C00E947A0FF8CF8C81811181C006
:1016400080914F038F831E830D837BC08B8180939A
:101650004F038FE08C8380914D03833018F48130E9
:1016600030F039C08330E1F18430A9F16AC00E94C2
:101670002906882309F465C0D0923F02C0923E0239
:101680000E940106882309F45CC01C8210933F026B
:1016900000933E02D0924C03C0924B0380914F03C3
:1016A000A0913E02B0913F02E0914B03F0914C03B8
:1016B0002C919081291711F054E05C831196B0931E
:1016C0003F02A0933E023196F0934C03E0934B030C
:1016D000815031F736C00E94BD03882391F12BC0A1
:1016E0000E94850FFACF8B8180934F038FE08C830C
:1016F00080914D03823031F010F1833031F084302D
:1017000001F51DC00E947703E8CF0E94900FE5CF3E
:10171000E0904D0384E0E81212C08B8180934F0368
:101720008FE0F82EFC820E94E203803321F0803C9F
:1017300021F4EC8206C01C8204C0FC8202C082E05C
:101740008C83FE0131961F010E94FE08E1CD90912D
:101750005C04982790935C0498E021E030E0E091ED
:101760003C02F0913D02409134026081D90102C0F7
:10177000AA0FBB1F4A95E2F7AD01462B408310929A
:10178000B20080FF20C04091B2004031E0F34091B0
:101790003402E0913C02F0913D026081D90102C027
:1017A000AA0FBB1F4A95E2F7AD014095509546231D
:1017B00040831092B2004091B2004031E0F3869530
:1017C000915069F608954091B2004830E0F340919D
:1017D0003402E0913C02F0913D026081D90102C0E7
:1017E000AA0FBB1F4A95E2F7AD01409550954623DD
:1017F00040831092B2004091B2004830E0F3409133
:101800003402E0913C02F0913D026081D90102C0B6
:10181000AA0FBB1F4A95E2F7AD01462B40831092F9
:10182000B2004091B2004830E0F340913402E091C0
:101830003C02F0913D026081D90102C0AA0FBB1F9A
:101840004A95E2F7AD0140955095462340831092AA
:10185000B2004091B2004830E0F3B1CF3091340291
:10186000E0913A02F0913B02208181E090E001C0DA
:10187000880F3A95EAF7822B80838FEF0E94A70B9F
:101880008FEF0E94A70B8FE70E94A70B10925C04BA
:101890008BE10E94A70B809159048F5F80935904BC
:1018A0000C94A70B80915C040E94A70B309134022A
:1018B000E0913C02F0913D02208181E090E001C086
:1018C000880F3A95EAF7822B80831092B2008091BC
:1018D000B2008830E0F330913402E0913A02F091A6
:1018E0003B02208181E090E002C0880F991F3A9569
:1018F000E2F7809590958223808308951092B2003C
:10190000E0913502F091360280812091340290E01E
:1019100002C0959587952A95E2F780FF0AC08091CD
:10192000B2008E3788F38FEF08958091B2008E3722
:10193000D0F780812091340290E002C09595879580
:101940002A95E2F780FFF1CF8091B20080935B048B
:1019500090915D04981738F11092B200E091350231
:10196000F091360280812091340290E002C095957A
:1019700087952A95E2F780FF09C08091B2008E37E3
:1019800088F3D1CF8091B2008E3768F680812091A4
:10199000340290E002C0959587952A95E2F780FF82
:1019A000F1CF80E0089581E00895FC01108280E08D
:1019B00090E041E050E01092B200A0913502B09169
:1019C00036022C916091340230E002C035952795A3
:1019D0006A95E2F720FF0AC02091B2002E3788F303
:1019E00080E008952091B2002E37D0F72C916091BD
:1019F000340230E002C0359527956A95E2F720FF62
:101A0000F1CF3091B20020915D04231730F1109294
:101A1000B200A0913502B09136022C91609134024F
:101A200030E002C0359527956A95E2F720FF09C09E
:101A30002091B2002E3788F3D3CF2091B2002E37F9
:101A400078F62C916091340230E002C035952795EC
:101A50006A95E2F720FFF1CF09C060819A01082E54
:101A600001C0220F0A94EAF7262B208301968830C2
:101A7000910509F0A0CF9091580480818927809327
:101A8000580481E00895CF93DF9388E180935D044B
:101A900080915A04853139F0823129F0813031F05A
:101AA000C6E4D0E005C0C0E6DAEE02C0C1E0D0E096
:101AB0000E947E0C87FF04C02197D1F780E017C0F9
:101AC000CAE00E947E0C8F3FC9F3C150D1F78091CC
:101AD0005B04982F969586958695890F80935D0473
:101AE0000E947E0C8F3F51F31816D4F381E0DF91F2
:101AF000CF910895EF92FF920F931F93CF93DF93AF
:101B000000D0CDB7DEB77C011B820E94430D81114E
:101B100002C080E076C010925804CE0103960E9465
:101B2000D50C8823B1F38B818B3199F7CE010396C5
:101B30000E94D50C882369F39B81809159049813E6
:101B4000E8CFCE0102960E94D50C882311F38A813A
:101B50008230F8F6CE0101960E94D50C8823C9F296
:101B600089819A81892BA9F2CE0103960E94D50C16
:101B7000882379F28B818E3061F6CE0103960E9424
:101B8000D50C882331F29B8180915A049813C1CFE0
:101B9000CE0103960E94D50C882309F4BACF8B811D
:101BA0008111B7CF00E010E0C701800F911F29819C
:101BB0003A81225031090217130740F40E94D50CD4
:101BC000882309F4A6CF0F5F1F4FEECFCE010396F7
:101BD0000E94D50C882309F49CCF80915804811170
:101BE00098CF30913402E0913C02F0913D02208187
:101BF00081E090E001C0880F3A95EAF7822B80835C
:101C000081E00F900F900F90DF91CF911F910F9176
:101C1000FF90EF900895CF9381E080935A040E9443
:101C20002E0C80E00E94A70B81E00E94A70B8EE0A3
:101C30000E94A70B81E00E94A70B0E94520C84E235
:101C400092E00E947A0DC82F811103C00E94830682
:101C500001C0C1E08C2FCF910895FF920F931F9385
:101C6000CF93DF938C01C62FF42ED22F8DE180937A
:101C70005A040E942E0C80E00E94A70B88E00E946C
:101C8000A70B8EE00E94A70B8DE10E94A70B84E0BA
:101C90000E94A70B84E00E94A70B80E00E94A70B84
:101CA0008C2F0E94A70B8F2D0E94A70B8D2F0E94B7
:101CB000A70B80E00E94A70B0E94520C84E292E0E6
:101CC0000E947A0D882399F08091240281110EC020
:101CD00080912502C81711F0811108C08091260259
:101CE000811104C080912702F801808381E0DF9197
:101CF000CF911F910F91FF9008950E940B0E8823A2
:101D000099F021E040E060E381E492E00E942D0E32
:101D1000882351F022E040E060E380E492E00E94FA
:101D20002D0E91E0811101C090E0892F08958091DE
:101D30004E038F3F21F480914A038F3F29F186E0C3
:101D400080935A040E942E0C80E00E94A70B85E02D
:101D50000E94A70B8EE00E94A70B86E00E94A70BB3
:101D600080E00E94A70B80E00E94A70B80914E03A9
:101D70000E94A70B80914A030E94A70B0E94520C5D
:101D800084E292E00C947A0D81E00895CF93C1E053
:101D900080914F038111C0E00E942E0C80E00E94D0
:101DA000A70B84E00E94A70B8EE00E94A70B8091F6
:101DB0005A040E94A70B8C2F0E94A70B80914F03FF
:101DC0000E94A70B80EA0E94A70B0E94520C8091F0
:101DD0003E0290913F02CF910C947A0D0F931F9386
:101DE000CF93DF93C0914F03CC2339F08C2F90E039
:101DF0000A96182F092FD0E003C01AE001E0D1E0C5
:101E00000E942E0C802F0E94A70B812F0E94A70BEF
:101E10008EE00E94A70B80915A040E94A70B8D2F81
:101E20000E94A70B8C2F0E94A70B80E00E94A70B9B
:101E300080E00E94A70B80E00E94A70B80E00E9438
:101E4000A70B80E00E94A70B80E00E94A70B80E018
:101E50000E94A70BE0913E02F0913F0280810E9418
:101E6000A70B80913E0290913F02019690933F0212
:101E700080933E02C15071F70E94520C84E292E0BE
:101E8000DF91CF911F910F910C947A0D82E1809395
:101E90005A040E942E0C80E00E94A70B87E00E944B
:101EA000A70B8EE00E94A70B82E10E94A70B84E1A2
:101EB0000E94A70B80E00E94A70B8CEA0E94A70B50
:101EC00088E80E94A70B83E10E94A70B86E70E9487
:101ED000A70B0E94520C84E292E00C947A0D0E94AF
:101EE000970E882329F084E180935A040C94C60E3F
:101EF00080E008950E94970E882329F086E1809360
:101F00005A040C94C60E80E008950E94970E882310
:101F100029F083E180935A040C94EE0E80E008953A
:101F20000E94970E882329F085E180935A040C942F
:101F3000EE0E80E00895E0ECF0E080818D7F8083FC
:101F400089E190E09093C5008093C40086E080937F
:101F5000C20088E18093C10085E0809381000895EC
:101F60009091C00095FFFCCF8093C6008091C00087
:101F700086FFFCCF089510925704109285001092AE
:101F800084008091C00087FD0FC0809184009091F3
:101F9000850021E0853C39E0930708F420E0209398
:101FA0005704853C994068F38091C6000895EE0F70
:101FB000FF1F881F8BBF0790F691E02D1994F894AE
:021FC000FFCF51
:101FC2003437310000000000000000000D424C4890
:101FD200656C69F47D6D347741526D323536305F10
:041FE2003136000094
:00000001FF
