:100000000C94A5000C94C6000C94C6000C94C60079
:100010000C94C6000C94C6000C94C6000C94C60048
:100020000C94C6000C94C6000C94C6000C94C60038
:100030000C94C6000C94C6000C94C6000C94C60028
:100040000C94C6000C94C6000C94C6000C94C60018
:100050000C943F050C94C6000C94C6000C94C6008A
:100060000C94C6000C94C6000C94C6000C94C600F8
:100070000C94C6000C94C6000C94C6000C94C600E8
:100080000C94C6000C94C6000C94C6000C94C600D8
:100090000C94C6000C94C6000C94C6000C94C600C8
:1000A0000C94C6000C94C6000C94C6000C94C600B8
:1000B0000C94C6000C94C6000C94C6000C94C600A8
:1000C0000C94C6000C94C6000C94C6000C94C60098
:1000D0000C94C6000C94C6000C94C6000C94C60088
:1000E0000C94C600A707C307C607CD07D30713089C
:1000F0000D0922082E083E085D0896082808740895
:10010000E1080708F6080C94F6080C943E080C94D5
:1001100096080C94C6070C940D090C94D3070C9404
:1001200013080C94A7070C9407080C945D080C9412
:1001300028080C9474080C9422080C94E1080C9480
:10014000CD070C942E080C94C30711241FBECFEFCB
:10015000D1E2DEBFCDBF00E00CBF12E0A0E0B2E014
:10016000EEECF8E100E00BBF02C007900D92A23266
:10017000B107D9F724E0A2E2B2E001C01D92A43594
:10018000B207E1F70E9469060C94650C0C9400001C
:1001900081E080933F0383ED95E41B9903C01092A7
:1001A000B20004C00197C9F780E008958091B200C1
:1001B0008A30E0F31B99F8CF20E030E080E09AE04D
:1001C00041E050E0935F6091B2006917E0F31B9B40
:1001D00007C0BA01022E01C0660F0A94EAF7862B07
:1001E0002F5F3F4F923771F79091B2009F37E0F346
:1001F0001B9BDACF10923F0308952B981092B20008
:100200009091B2009D30E0F39DE080FF02C02B9AF8
:1002100001C02B98935F86952091B2002917E0F3D7
:10022000953799F72B9A8091B2008238E0F30895C0
:1002300020913202809146039091470338E0AC014F
:1002400042279695879540FF04C041E0842740EA05
:1002500094272695315099F790934703809346034E
:100260002093320208950F931F93CF938C01C62FD2
:1002700010924703109246031092340210923302F8
:100280000E94C8008093320290913F03911127C0D1
:10029000F80181938F010E941801C15089F7809164
:1002A0003702882311F10E94C800809333028091A5
:1002B0003F03811114C00E94C800809334028091D2
:1002C0003F0381110CC02091460330914703809178
:1002D0003302909134022817390751F406C08FEF8A
:1002E00091E0803349F090E007C00E94C800F8CF49
:1002F0000E94C80082ECF4CF892FCF911F910F91FB
:1003000008950F931F93CF938C01C62F239A87ECE8
:1003100090E00197F1F700C000001092470310929F
:100320004603F80181918F01809332020E94FD0003
:100330000E941801C150A9F780913702882341F02B
:10034000809146030E94FD00809147030E94FD00BA
:100350002398CF911F910F910895CF93DF93CDB73D
:10036000DEB76D970FB6F894DEBF0FBECDBF80919C
:10037000000290910102A09102028B8F9C8FAD8FA1
:1003800081E1E4E0F2E0DE01119601900D928A95A0
:10039000E1F761E1CE0101960E94810168E0CE01A2
:1003A00042960E9433018823C9F0FE017296DE0155
:1003B0005B96CE01459631912D9132130EC0E81710
:1003C000F907C9F78D89809339028E8980933802A5
:1003D0008F898093370281E001C080E06D960FB66F
:1003E000F894DEBF0FBECDBFDF91CF910895CF93BC
:1003F000C82F0E94C800C15090913F03992319F063
:10040000C111F7CF8FEFCF910895CF93DF931F9254
:100410001F92CDB7DEB78DEF89831A8262E0CE01DD
:1004200001960E94810181E00E94F701813C21F048
:100430000E94550580E001C081E00F900F90DF9190
:10044000CF910895CF93DF931F921F92CDB7DEB760
:1004500019821A8281E08093370262E0CE01019610
:100460000E9481010E9455050F900F90DF91CF915E
:100470000895CF93DF9300D01F92CDB7DEB7909150
:100480004403809140039F3F11F48F3F91F02FEF81
:1004900029831A829B838C8364E0CE0101960E949B
:1004A000810182E00E94F70191E0803319F090E031
:1004B00001C091E0892F0F900F900F900F90DF9166
:1004C000CF910895CF93DF9300D01F92CDB7DEB7C1
:1004D0008EEF89831A821B82809145038C83811160
:1004E00002C081E08B8364E0CE0101960E9481010D
:1004F00082E00E94F7018F3F71F460914503809183
:100500003502909136020E94810188E20E94F70133
:1005100091E0803309F090E0892F0F900F900F90B9
:100520000F90DF91CF910895CF93DF931F921F9289
:10053000CDB7DEB70E9439028823E9F080914503E8
:100540008A8380914303823029F0843029F08130FE
:1005500029F402C087E001C083E0898362E0CE0114
:1005600001960E948101609145038091350290912E
:1005700036020E9433010F900F90DF91CF910895C2
:10058000CF93DF931F921F92CDB7DEB70E9439023F
:10059000882391F084E08983809145038A8362E017
:1005A000CE0101960E948101609145038091350240
:1005B000909136020E9433010F900F90DF91CF91FE
:1005C0000895CF93DF931F921F92CDB7DEB70E949D
:1005D0003902982F8823A9F00E946202982F88235D
:1005E00081F085E0898381E08A8362E0CE01019613
:1005F0000E94810180E00E94F70191E0803309F0C0
:1006000090E0892F0F900F90DF91CF910895CF93B5
:10061000DF931F921F92CDB7DEB70E943902882365
:1006200089F082E0898381E08A8362E0CE010196CD
:100630000E94810180E00E94F701803311F481E083
:1006400001C080E00F900F90DF91CF910895CF937C
:10065000DF931F921F92CDB7DEB70E943902982F09
:100660008823A1F00E946202982F882379F081E00C
:1006700089838A8362E0CE0101960E94810182E330
:100680000E94F70191E0803309F090E0892F0F90EC
:100690000F90DF91CF910895CF93DF931F921F9218
:1006A000CDB7DEB70E943902882381F00E94620232
:1006B000882361F084E0898381E08A8362E0CE014F
:1006C00001960E94810184E00E94F7010F900F9033
:1006D000DF91CF9108952B98000000002B9A089588
:1006E00010923702109238021092390210923A0298
:1006F00093B193FB992790F9239A2B9880E88A95D8
:10070000F1F71C9992602C9824982B9A8AE08A958C
:10071000F1F700C023989093390281E0911101C054
:1007200080E00895239A0E946B03249A08952C98E0
:1007300024980E946B0323980895CF93DF930E941F
:1007400092032C980E946B032C9A0E946B032C98A6
:100750002498D8E0C0E0C6950E946B031C99C0683D
:10076000D150C9F70E9497038C2FDF91CF91089544
:10077000CF93DF93CFEFDFEF0E949D0380FD04C096
:10078000209711F02197F8CF81E0CD2B09F480E07C
:10079000DF91CF910895CF93DF93D82F0E949203DA
:1007A0002C9A0E946B030E946B03C8E0D0FF02C02A
:1007B0002C9A01C02C980E946B03D695C150B1F7BA
:1007C000DF91CF910C949703CF93DF932C982498CB
:1007D000CFEFDFEF0E946B03219711F01C9BFACF44
:1007E00081E0CD2B09F480E0DF91CF910895CF9384
:1007F00010924C040E9492032C980E946B030E945A
:100800006B030E946B030E946B030E94E403882326
:10081000A1F0C8E080914C04869580934C040E941E
:100820006B031C9B05C080914C04806880934C0432
:10083000C15081F70E94970381E0CF9108950E94F3
:10084000B803882349F00E94F703882329F081E048
:1008500090914C049D3009F080E0089580E00E9462
:10086000CB030E94F70380914C0488508B3210F028
:1008700010924C0480914C04809337020895CF93DA
:10088000DF93D82F0E9492032C9A0E946B032C981E
:100890000E946B030E946B030E946B03C8E0D0FFB1
:1008A00002C02C9A01C02C980E946B03D695C150AF
:1008B000B1F70E94E403882361F00E949703CFEF11
:1008C000DFEF0E949D0381FF04C0209711F0219764
:1008D000F8CFDF91CF910895809144030E943F04A7
:1008E000809140030E943F04809145030E943F0491
:1008F0000C941F04CF93C82F84EB0E94CB038C2F42
:100900000E943F04CF910C941F040E947003811138
:1009100002C080E008950E942E048823D1F382E073
:100920000E94CB0382E00E943F0484E00E943F04C7
:1009300087EB91E00197F1F700C0000081E00E9491
:100940003F049FE725EB81E0915020408040E1F794
:1009500000C0000082E00E947A048823D1F20E9445
:10096000F70380914C04809338028FEF0E94CB03F1
:1009700080E80E943F048FE99FE00197F1F700C0F3
:1009800000008FEE0E94CB0382E00E943F0481E0D2
:100990000895CF9386E00E947A04811102C080E01E
:1009A0001EC00E946C048823D1F3C09145030E94AD
:1009B000B8038823A1F30E94F703882381F3E09111
:1009C0003502F0913602CF01019690933602809362
:1009D000350280914C048083C15049F781E0CF916A
:1009E0000895CF9387E00E947A048823C1F00E9483
:1009F0006C048823A1F0C0914503E0913502F09189
:100A00003602CF01019690933602809335028081A1
:100A10000E943F04C15089F7CF910C94B80380E045
:100A2000CF910895CF93C0914403C695CF3090F4F1
:100A300088E00E947A04882369F08C2F0E943F048A
:100A40000E941F04882331F080E00E943F04CF9170
:100A50000C94B80380E0CF91089583E00E947A045B
:100A6000882359F08EED0E943F048DEA0E943F04D6
:100A700085EA0E943F040C94B80380E008951F9219
:100A80000F920FB60F9211240C9400000F900FBE1E
:100A90000F901F90189580914303882329F084E0DC
:100AA0008093B10023982B9A0895109238021092E7
:100AB00037020895EF92FF920F931F93CF93DF9326
:100AC000109238021092370280914303882361F01C
:100AD000853008F0F2C0C8E3D0E014E003E0FF2462
:100AE000F39482E0E82EB6C00E948504E4C08091B1
:100AF000C00087FDD9C080914303843009F4AFC0A2
:100B00000E94030B882309F4AAC000934303809139
:100B10003702909138028730934909F4A8C0809138
:100B20003702909138028A30934909F4A0C080912D
:100B30003702909138028F30934909F498C0809120
:100B400037029091380231E08B30944909F030E05F
:100B500080913702909138028031934F09F489C017
:100B600080913702909138028033934F09F481C00D
:100B700080913702909138028031944F09F479C006
:100B800080913702909138028039934F09F471C0F7
:100B900080913702909138028035984F09F469C0EE
:100BA0008091370290913802813B984E09F461C0E0
:100BB000809137029091380221E0823B984E09F0F3
:100BC00020E0809137029091380286309F4109F4ED
:100BD00052C080913702909138028630934309F4D5
:100BE0004AC080913702909138028630944309F4CC
:100BF00042C0809137029091380286309543D9F1F6
:100C0000809137029091380286309B42A1F1809109
:100C100037029091380251E040E08630974409F065
:100C200050E0852F942F482F311128C0211126C064
:100C3000992790914303913020F52197C1F18111BB
:100C400035C08FEF94E32CE0815090402040E1F7D5
:100C500000C000008091C10084FF4DCF48CF0E94AA
:100C6000AD01882309F453CF1093430350CF31E0F3
:100C70006FCF21E0A6CF81E090E0D5CF81E090E07A
:100C8000D8CF933010F09430C1F6222319F0F092AF
:100C90004303D3CF332319F0E0924303CECF442351
:100CA00061F210934303C9CF80E001C081E09091CD
:100CB000430390933A02811105C0109238021092BA
:100CC000370280E0DF91CF911F910F91FF90EF905D
:100CD00008950FB6F894A89580916000886180937C
:100CE0006000109260000FBE0E944B050E94210C14
:100CF0000E94F306EECF9627092E0294202D2F7026
:100D00002927692F6025660F607E2627602D6927B9
:100D1000607F6695092E000C661F969596959695B0
:100D20009F7196279827822F08952F923F92EF92D6
:100D3000FF921F93CF93DF93E1016EE280E090E09A
:100D40000E947B066F810E947B06609144030E9493
:100D50007B06609140030E947B066E810E947B06A9
:100D6000382F292FEC80FD801E81F70161917F01D2
:100D7000832F922F0E947B06382F292F1150A9F71D
:100D80006B810E947B06F82EE92E8EE20E94360CC3
:100D90008F810E94360C809144030E94360C809112
:100DA00040030E94360C8E810E94360C1E81EC811D
:100DB000FD8180810E94360C8C819D8101969D83EE
:100DC0008C831150A1F78B810E94360C8E2D0E94CE
:100DD000360C8F2DDF91CF911F91FF90EF903F90B8
:100DE0002F900C94360C2F923F924F925F926F92FD
:100DF0007F928F929F92AF92BF92CF92DF92EF92AB
:100E0000FF920F931F93CF93DF93CDB7DEB72A974F
:100E10000FB6F894DEBF0FBECDBFF8942E0129E0C7
:100E2000420E511C08E413E022E0B22E3BE3C32E35
:100E300032E0D32E44E0A42E57E3652E52E0752E07
:100E40000E94410C8F32E1F71A8619865E824D822C
:100E500081E08F830E94410C888790914D0491110D
:100E6000EFCF8F3219F40E94410C88876FE280E047
:100E700090E00E947B0668850E947B067C010E94B0
:100E8000410C8093440390914D04992311F081E02B
:100E900048C0682FC7010E947B067C010E94410C5C
:100EA0008093400390914D049111F1CF682FC701B9
:100EB0000E947B067C010E94410C8B8390914D0423
:100EC0009111E5CF682FC7010E947B067C013B8012
:100ED00098E4892E93E0992E0E94410CF4018193AD
:100EE0004F0190914D049111D2CF682FC7010E94FC
:100EF0007B067C013A943110EFCF0E94410C8A832B
:100F000080914D048111C3CF0E94410C898380914F
:100F10004D048111BCCF29813A81E216F30609F014
:100F200083E08C8381117AC11093360200933502DD
:100F3000E8858E2F90E0FC01F097E131F10508F093
:100F40006CC18827EE58FF4F8F4F0C945D0C809139
:100F50003702882309F462C180914303833028F467
:100F6000813040F40E942E0407C0833049F0843061
:100F700009F054C10E940502811150C18FE04CC09C
:100F80000E94910AF9CF8BE6898748C18CE08F8354
:100F900085E192E09E838D8341C1BF8288EC898781
:100FA00093E09A873BC1FE0131961F010E9495068E
:100FB00080914303882329F0853028F423982B9AC5
:100FC00002C00E9470030E945505FFEF23EC89E0E8
:100FD000F15020408040E1F700C000002A960FB693
:100FE000F894DEBF0FBECDBFDF91CF911F910F915F
:100FF000FF90EF90DF90CF90BF90AF909F908F9039
:101000007F906F905F904F903F902F9008958091C8
:101010004803853018F089E08C8300C18093430336
:101020000E944B05FBC080914303833028F481303C
:1010300030F40E947003F2C0843009F0EFC00E94C7
:101040002202ECC0AF827E826D820E945A0594CF4C
:10105000809143038111E2C02B98E0C0809143034B
:10106000833030F4813008F0D8C00E942D0584CF41
:10107000833009F0B2C00E94CC0B7ECF9091430325
:10108000943018F4923020F0C8C0943009F0C6C0F3
:10109000809148038987943019F4880F880F01C024
:1010A000880F8093440310924003911103C00E9463
:1010B000120562CF0E9407035FCF8091480380939F
:1010C000450380914303833028F4813038F40E9433
:1010D000C9041BC0833029F08430F9F40E949402C3
:1010E00014C00E94F50B11C0809148038093450302
:1010F00080914303823039F020F0833059F08430FE
:1011000061F4BC820AC00E94C002811106C08FE057
:101110008C8303C00E94000CF8CF8C8181117EC0AB
:10112000809145038F831E830D8378C08B818093CC
:1011300045038FE08C8380914303833018F4813022
:1011400030F037C08330D1F1843099F167C00E940C
:10115000F104882309F462C0D0923602C0923502AD
:101160000E94C904882309F459C01C8210933602D6
:1011700000933502D0924203C0924103809145030F
:10118000A0913502B0913602E0914103F091420303
:101190002C9190812913AC821196B0933602A093C2
:1011A00035023196F0934203E0934103815041F7B9
:1011B00035C00E942703882389F12BC00E940B0CA5
:1011C000FACF8B81809345038FE08C83809143031A
:1011D000823031F010F1833031F08430F9F41DC0E9
:1011E0000E94E102E8CF0E94160CE5CFE090430395
:1011F00094E0E91212C08B81809345038FE0F82EB2
:10120000FC820E944C03803321F0803C21F4EC826C
:1012100005C01C8203C0FC8201C0BC82FE01319665
:101220001F010E9495060CCE90915204982790932E
:10123000520498E02B9A1092B20080FF0FC02091C8
:10124000B2002031E0F32B981092B2002091B2004E
:101250002031E0F38695915069F708952091B2000E
:101260002830E0F32B981092B2002091B200283081
:10127000E0F32B9A1092B2002091B2002830E0F3F4
:101280002B981092B2002091B2002830E0F3E2CF08
:10129000239A8FEF0E9414098FEF0E9414098FE7A1
:1012A0000E941409109252048BE10E94140980914B
:1012B0004F048F5F80934F040C9414098091520463
:1012C0000E9414092B9A1092B2008091B2008830CB
:1012D000E0F3239808951092B2001B9B0AC08091FE
:1012E000B2008E37D0F38FEF08958091B2008E3721
:1012F000D0F71B9BFACF8091B2008093510490915C
:101300005304981788F01092B2001B9B09C080917B
:10131000B2008E37D0F3E7CF8091B2008E3718F746
:101320001B9BFACF80E0089581E00895FC011082B4
:1013300080E090E041E050E01092B2001B9B0AC0B8
:101340002091B2002E37D0F380E008952091B200B2
:101350002E37D0F71B9BFACF3091B2002091530467
:10136000231780F01092B2001B9B09C02091B2009D
:101370002E37D0F3E9CF2091B2002E3728F71B9BF0
:10138000FACF09C060819A01082E01C0220F0A9489
:10139000EAF7262B208301968830910569F6909113
:1013A0004E048081892780934E0481E00895CF9375
:1013B000DF9388E18093530480915004853139F0A4
:1013C000823129F0813031F0C6E4D0E005C0C0E6BA
:1013D000DAEE02C0C1E0D0E00E946B0987FF04C0D2
:1013E0002197D1F780E017C0CAE00E946B098F3FB8
:1013F000C9F3C150D1F780915104982F96958695E5
:101400008695890F809353040E946B098F3F51F397
:101410001816D4F381E0DF91CF910895EF92FF92F7
:101420000F931F93CF93DF9300D0CDB7DEB77C012E
:101430001B820E94D709811102C080E068C010920F
:101440004E04CE0103960E9496098823B1F38B8146
:101450008B3199F7CE0103960E949609882369F390
:101460009B8180914F049813E8CFCE0102960E9491
:101470009609882311F38A818230F8F6CE0101960D
:101480000E9496098823C9F289819A81892BA9F241
:10149000CE0103960E949609882379F28B818E30C3
:1014A00061F6CE0103960E949609882331F29B8152
:1014B000809150049813C1CFCE0103960E949609E3
:1014C000882309F4BACF8B818111B7CF00E010E0F7
:1014D000C701800F911F29813A81225031090217DB
:1014E000130740F40E949609882309F4A6CF0F5FE2
:1014F0001F4FEECFCE0103960E949609882309F470
:101500009CCF80914E04811198CF2B9A81E00F904F
:101510000F900F90DF91CF911F910F91FF90EF905F
:101520000895CF9381E0809350040E94480980E0A1
:101530000E94140981E00E9414098EE00E9414099F
:1015400081E00E9414090E945E0982E292E00E94FA
:101550000E0AC82F811103C00E94550501C0C1E0C9
:101560008C2FCF910895FF920F931F93CF93DF930A
:101570008C01C62FF42ED22F8DE1809350040E944F
:10158000480980E00E94140988E00E9414098EE056
:101590000E9414098DE10E94140984E00E9414093C
:1015A00084E00E94140980E00E9414098C2F0E949C
:1015B00014098F2D0E9414098D2F0E94140980E0B8
:1015C0000E9414090E945E0982E292E00E940E0AC3
:1015D000882399F08091220281110EC0809123020C
:1015E000C81711F0811108C080912402811104C034
:1015F00080912502F801808381E0DF91CF911F91D6
:101600000F91FF9008950E94910A882399F021E09C
:1016100040E060E388E392E00E94B30A882351F03F
:1016200022E040E060E387E392E00E94B30A91E0A9
:10163000811101C090E0892F0895809144038F3F6C
:1016400021F4809140038F3F29F186E0809350047C
:101650000E94480980E00E94140985E00E94140954
:101660008EE00E94140986E00E94140980E00E9426
:10167000140980E00E941409809144030E94140917
:10168000809140030E9414090E945E0982E292E068
:101690000C940E0A81E00895CF93C1E08091450338
:1016A0008111C0E00E94480980E00E94140984E092
:1016B0000E9414098EE00E941409809150040E9437
:1016C00014098C2F0E941409809145030E9414096B
:1016D00080EA0E9414090E945E098091350290916F
:1016E0003602CF910C940E0A0F931F93CF93DF9382
:1016F000C0914503CC2339F08C2F90E00A96182F27
:10170000092FD0E003C01AE001E0D1E00E944809AF
:10171000802F0E941409812F0E9414098EE00E94DC
:101720001409809150040E9414098D2F0E941409FD
:101730008C2F0E94140980E00E94140980E00E940E
:10174000140980E00E94140980E00E94140980E0DE
:101750000E94140980E00E94140980E00E9414098C
:10176000E0913502F091360280810E941409809147
:10177000350290913602019690933602809335029D
:10178000C15071F70E945E0982E292E0DF91CF9131
:101790001F910F910C940E0A82E1809350040E94D5
:1017A000480980E00E94140987E00E9414098EE035
:1017B0000E94140982E10E94140984E10E94140924
:1017C00080E00E9414098CEA0E94140988E80E94B3
:1017D000140983E10E94140986E70E9414090E94FB
:1017E0005E0982E292E00C940E0A0E941D0B88238F
:1017F00029F084E1809350040C944C0B80E0089510
:101800000E941D0B882329F086E1809350040C94DC
:101810004C0B80E008950E941D0B882329F083E182
:10182000809350040C94740B80E008950E941D0B6B
:10183000882329F085E1809350040C94740B80E098
:101840000895E0ECF0E080818D7F808389E190E075
:101850009093C5008093C40086E08093C20088E125
:101860008093C10085E08093810008959091C0002D
:1018700095FFFCCF8093C6008091C00086FFFCCF0F
:10188000089510924D04109285001092840080916A
:10189000C00087FD0FC0809184009091850021E0F9
:1018A000853C39E0930708F420E020934D04853C03
:1018B000994068F38091C6000895EE0FFF1F881FBE
:0E18C0008BBF0790F691E02D1994F894FFCF9E
:1018CE003437310000000000000000000D424C488B
:1018DE00656C69F47D347741526D323536305F3147
:0218EE003600C2
:00000001FF
