:100000000C948B000C94AA000C94AA000C94AA00E7
:100010000C94AA000C94AA000C94AA000C94AA00B8
:100020000C94AA000C94AA000C94AA000C94AA00A8
:100030000C94AA000C94AA000C94AA000C94AA0098
:100040000C94AA000C94AA000C94AA000C94AA0088
:100050000C943B060C94AA000C94AA000C94AA00E1
:100060000C94AA000C94AA000C94AA000C94AA0068
:100070000C94AA000C94AA000C94AA000C94AA0058
:100080000C94AA000C94AA000C94AA000C94AA0048
:100090000C94AA000C94AA000C94AA000C94AA0038
:1000A0000C94AA000C94AA000C94AA000C94AA0028
:1000B0000C94AA000C94AA000C94AA000C94AA0018
:1000C0000C94AA000C94AA000C94AA000C94AA0008
:1000D0000C94AA000C94AA000C94AA000C94AA00F8
:1000E0000C94AA0080078F07A407B807CC07E00785
:1000F000F4070808CE09EA09ED09F409FB093C0AEE
:100100005E0B570A7D0A8D0AAC0AE50A4E0AC30A3D
:10011000320B310A470B11241FBECFEFD1E2DEBFF5
:10012000CDBF12E0A0E0B2E0E4E4FFE100E00BBFED
:1001300002C007900D92A432B107D9F724E0A4E2DF
:10014000B2E001C01D92AE35B207E1F70E949308FC
:100150000C94A00F0C94000081E080934903E0917F
:100160003502F091360220EC32E180814091340278
:1001700090E002C0959587954A95E2F780FD03C00F
:100180001092B20005C02150310979F780E008953E
:100190008091B2008A30E0F3E0913502F0913602AE
:1001A00080812091340290E002C0959587952A9530
:1001B000E2F780FDEBCF40E050E080E09AE061E0C4
:1001C00070E0935F2091B2002917E0F32081A091A5
:1001D000340230E002C035952795AA95E2F720FF5A
:1001E00007C09B01042E01C0220F0A94EAF7822B5C
:1001F0004F5F5F4F923729F79091B2009F37E0F33E
:1002000020819091340230E002C0359527959A956F
:10021000E2F720FFBBCF10924903089540913402CA
:10022000E0913C02F0913D02908121E030E002C07B
:10023000220F331F4A95E2F720953095292320831A
:100240001092B2009091B2009D30E0F39DE041E049
:1002500050E0E0913C02F0913D0220913402608137
:10026000DA0102C0AA0FBB1F2A95E2F79D0180FFA9
:1002700002C0262B03C02095309526232083935F50
:1002800086952091B2002917E0F3953711F7309148
:100290003402E0913C02F0913D02208181E090E047
:1002A00001C0880F3A95EAF7822B80838091B200D3
:1002B0008238E0F3089520913702809150039091A5
:1002C000510338E0AC0142279695879540FF04C062
:1002D00041E0842740EA94272695315099F790937E
:1002E0005103809350032093370208950F931F9377
:1002F000CF938C01C62F109251031092500310928D
:100300003902109238020E94AC008093370290911B
:100310004903911127C0F80181938F010E945B016D
:10032000C15089F780914002882311F10E94AC00EE
:100330008093380280914903811114C00E94AC005F
:10034000809339028091490381110CC020915003A0
:100350003091510380913802909139022817390762
:1003600051F406C08FEF91E0803349F090E007C070
:100370000E94AC00F8CF0E94AC0082ECF4CF892F31
:10038000CF911F910F9108950F931F93CF938C01DD
:10039000C62F30913402E0913A02F0913B02208165
:1003A00081E090E001C0880F3A95EAF7822B8083C4
:1003B00087EC90E00197F1F700C000001092510324
:1003C00010925003F80181918F01809337020E94AF
:1003D0000E010E945B01C150A9F780914002882361
:1003E00041F0809150030E940E01809151030E94C0
:1003F0000E0130913402E0913A02F0913B022081EB
:1004000081E090E002C0880F991F3A95E2F780954D
:10041000909582238083CF911F910F910895CF9360
:10042000DF93CDB7DEB76D970FB6F894DEBF0FBE82
:10043000CDBF8091000290910102A09102028B8FAA
:100440009C8FAD8F81E1E4E0F2E0DE011196019036
:100450000D928A95E1F761E1CE0101960E94C401F7
:1004600068E0CE0142960E9476018823C9F0FE0121
:100470007296DE015B96CE01459631912D91321335
:100480000EC0E817F907C9F78D89809342028E895B
:10049000809341028F898093400281E001C080E017
:1004A0006D960FB6F894DEBF0FBECDBFDF91CF9132
:1004B0000895CF93C82F0E94AC00C150909149037A
:1004C000992319F0C111F7CF8FEFCF910895CF93F2
:1004D000DF9300D0CDB7DEB78DEF89831A8262E05B
:1004E000CE0101960E94C40181E00E945902813C24
:1004F00021F00E94470680E001C081E00F900F903C
:10050000DF91CF910895CF93DF9300D0CDB7DEB7C1
:1005100019821A8281E08093400262E0CE01019646
:100520000E94C4010E9447060F900F90DF91CF9167
:100530000895CF93DF9300D000D0CDB7DEB7909170
:100540004E0380914A039F3F11F48F3F91F02FEFAC
:1005500029831A829B838C8364E0CE0101960E94DA
:10056000C40182E00E94590291E0803319F090E0CA
:1005700001C091E0892F0F900F900F900F90DF91A5
:10058000CF910895CF93DF9300D000D0CDB7DEB7E1
:100590008EEF89831A821B8280914F038C83811195
:1005A00002C081E08B8364E0CE0101960E94C40109
:1005B00082E00E9459028F3F71F460914F03809155
:1005C0003E0290913F020E94C40188E20E945902BB
:1005D00091E0803309F090E0892F0F900F900F90F9
:1005E0000F90DF91CF910895CF93DF9300D0CDB7D7
:1005F000DEB70E9499028823E9F080914F038A8335
:1006000080914D03823029F0843029F0813029F423
:1006100002C087E001C083E0898362E0CE010196D9
:100620000E94C40160914F0380913E0290913F026D
:100630000E9476010F900F90DF91CF910895CF9394
:10064000DF9300D0CDB7DEB70E949902882391F0E6
:1006500084E0898380914F038A8362E0CE01019612
:100660000E94C40160914F0380913E0290913F022D
:100670000E9476010F900F90DF91CF910895CF9354
:10068000DF9300D0CDB7DEB70E949902982F882360
:10069000A9F00E94C202982F882381F085E0898307
:1006A00081E08A8362E0CE0101960E94C40180E06D
:1006B0000E94590291E0803309F090E0892F0F9059
:1006C0000F90DF91CF910895CF93DF9300D0CDB7F6
:1006D000DEB70E949902882389F082E0898381E055
:1006E0008A8362E0CE0101960E94C40180E00E94EC
:1006F0005902803311F481E001C080E00F900F9027
:10070000DF91CF910895CF93DF9300D0CDB7DEB7BF
:100710000E949902982F8823A1F00E94C202982F6C
:10072000882379F081E089838A8362E0CE01019693
:100730000E94C40182E30E94590291E0803309F0D3
:1007400090E0892F0F900F90DF91CF910895CF9374
:10075000DF9300D0CDB7DEB70E949902882381F0E5
:100760000E94C202882361F084E0898381E08A8349
:1007700062E0CE0101960E94C40184E00E94590209
:100780000F900F90DF91CF91089520913402E09166
:100790003C02F0913D02408181E090E0BC0102C04A
:1007A000660F771F2A95E2F79B0120953095242349
:1007B000208330913402E0913C02F0913D0220818F
:1007C00001C0880F3A95EAF7822B80830895109232
:1007D00040021092410210924202109243020E9483
:1007E00052080E94390820913402E0913A02F091B7
:1007F0003B02408181E090E0BC0102C0660F771FA0
:100800002A95E2F79B012095309524232083EFE879
:10081000F1E03197F1F700C00000E0913502F0916E
:10082000360220814091340230E002C03595279590
:100830004A95E2F7217040913402E0913A02F0913A
:100840003B023081BC0102C0660F771F4A95E2F778
:10085000AB01432B408340913402E0913C02F09184
:100860003D02308102C0880F991F4A95E2F78095BA
:1008700090958323808370E77A95F1F71B99226026
:100880002B98239840913402E0913C02F0913D0274
:10089000308181E090E0BC0102C0660F771F4A956D
:1008A000E2F7AB01432B408375E07A95F1F7000046
:1008B00040913402E0913A02F0913B02308102C053
:1008C000880F991F4A95E2F780959095832380833E
:1008D0002093420281E0211101C080E0089530910F
:1008E0003402E0913A02F0913B02208181E090E0F5
:1008F00001C0880F3A95EAF7822B80830E94C503D6
:10090000239A08952B9823980E94C50330913402AE
:10091000E0913A02F0913B02208181E090E002C038
:10092000880F991F3A95E2F78095909582238083EE
:100930000895CF93DF930E946F042B980E94C50304
:100940002B9A0E94C5032B982398D8E0C0E0C69547
:100950000E94C5031B99C068D150C9F70E94820448
:100960008C2FDF91CF910895CF93DF93CFEFDFEFFF
:100970000E94990480FD04C0209711F02197F8CFC0
:1009800081E0CD2B09F480E0DF91CF910895CF93E2
:10099000DF93D82F0E946F042B9A0E94C5030E94F8
:1009A000C503C8E0D0FF02C02B9A01C02B980E945B
:1009B000C503D695C150B1F7DF91CF910C94820455
:1009C000CF93DF932B982398CFEFDFEF0E94C503DF
:1009D000219711F01B9BFACF81E0CD2B09F480E029
:1009E000DF91CF910895CF93109256040E946F0427
:1009F0002B980E94C5030E94C5030E94C5030E9454
:100A0000C5030E94E0048823A1F0C8E08091560449
:100A10008695809356040E94C5031B9B05C0809158
:100A20005604806880935604C15081F70E94820466
:100A300081E0CF9108950E94B404882349F00E9478
:100A4000F304882329F081E0909156049D3009F049
:100A500080E0089580E00E94C7040E94F304809122
:100A6000560488508B3210F0109256048091560430
:100A7000809340020895CF93DF93D82F0E946F0494
:100A80002B9A0E94C5032B980E94C5030E94C503A0
:100A90000E94C503C8E0D0FF02C02B9A01C02B986A
:100AA0000E94C503D695C150B1F70E94E004882387
:100AB00061F00E948204CFEFDFEF0E94990481FF72
:100AC00004C0209711F02197F8CFDF91CF910895BE
:100AD00080914E030E943B0580914A030E943B0592
:100AE00080914F030E943B050C941B05CF93C82FA8
:100AF00084EB0E94C7048C2F0E943B05CF910C947D
:100B00001B050E94E703811102C080E008950E9446
:100B10002A058823D1F382E00E94C70482E00E9464
:100B20003B0584E00E943B0587EB91E00197F1F7DC
:100B300000C0000081E00E943B059FE725EB81E0BB
:100B4000915020408040E1F700C0000082E00E9408
:100B500076058823D1F20E94F30480915604809395
:100B600041028FEF0E94C70480E80E943B058FE995
:100B70009FE00197F1F700C000008FEE0E94C704CC
:100B800082E00E943B0581E00895CF9386E00E94B9
:100B90007605811102C080E01EC00E94680588238E
:100BA000D1F3C0914F030E94B4048823A1F30E94A3
:100BB000F304882381F3E0913E02F0913F02CF01DC
:100BC000019690933F0280933E0280915604808369
:100BD000C15049F781E0CF910895CF9387E00E94FB
:100BE00076058823C1F00E9468058823A1F0C09192
:100BF0004F03E0913E02F0913F02CF0101969093A6
:100C00003F0280933E0280810E943B05C15089F7DC
:100C1000CF910C94B40480E0CF910895CF93C0910C
:100C20004E03C695CF3090F488E00E947605882365
:100C300069F08C2F0E943B050E941B05882331F030
:100C400080E00E943B05CF910C94B40480E0CF91EA
:100C5000089583E00E947605882359F08EED0E9466
:100C60003B058DEA0E943B0585EA0E943B050C94FA
:100C7000B40480E008951F920F920FB60F921124D2
:100C80000C9400000F900FBE0F901F9018951092BB
:100C90004102109240020895EF92FF920F931F932A
:100CA000CF93DF93109241021092400280914D0346
:100CB000882361F0853008F0F2C0C3E0D0E014E092
:100CC00003E0FF24F39482E0E82EB6C00E94810581
:100CD000E4C08091C00087FDD9C080914D0384306D
:100CE00009F4AFC00E943D0E882309F4AAC0009306
:100CF0004D0380914002909141028730934909F45D
:100D0000A8C080914002909141028A30934909F431
:100D1000A0C080914002909141028F30934909F424
:100D200098C0809140029091410231E08B3094490B
:100D300009F030E080914002909141028031934F60
:100D400009F489C080914002909141028033934F11
:100D500009F481C080914002909141028031944F0A
:100D600009F479C080914002909141028039934FFB
:100D700009F471C080914002909141028035984FF2
:100D800009F469C08091400290914102813B984EE4
:100D900009F461C0809140029091410221E0823BC0
:100DA000984E09F020E080914002909141028630F7
:100DB0009F4109F452C080914002909141028630D7
:100DC000934309F44AC080914002909141028630D9
:100DD000944309F442C080914002909141028630D0
:100DE0009543D9F1809140029091410286309B4217
:100DF000A1F1809140029091410251E040E08630A3
:100E0000974409F050E0852F942F482F311128C0C6
:100E1000211126C0992790914D03913020F52197FB
:100E2000C1F1811135C08FEF99EF20E081509040E2
:100E30002040E1F700C000008091C10084FF4DCF49
:100E400048CF0E940F02882309F453CF10934D031B
:100E500050CF31E06FCF21E0A6CF81E090E0D5CF39
:100E600081E090E0D8CF933010F09430C1F6222387
:100E700019F0F0924D03D3CF332319F0E0924D03D4
:100E8000CECF442361F210934D03C9CF80E001C05F
:100E900081E090914D0390934302811105C010921F
:100EA00041021092400280E0DF91CF911F910F919B
:100EB000FF90EF900895909148039817B1F09091AA
:100EC0004D03911112C040913402E0913C02F09127
:100ED0003D02908121E030E002C0220F331F4A958D
:100EE000E2F72095309529232083482F50E04830A1
:100EF000510508F0A2C0FA01EE58FF4F0C94970F6D
:100F000024E230E030933B0220933A0225E230E0C5
:100F100030933D0220933C0223E230E037C02AE0C8
:100F200031E030933B0220933A022BE031E03093E2
:100F30003D0220933C0229E031E0309336022093B9
:100F400035021092340279C02AE031E030933B023E
:100F500020933A022BE031E030933D0220933C0293
:100F600029E031E0309336022093350291E063C0EE
:100F70002AE031E030933B0220933A022BE031E04B
:100F800030933D0220933C0229E031E03093360259
:100F90002093350292E04FC02AE031E030933B02CB
:100FA00020933A022BE031E030933D0220933C0243
:100FB00029E031E0309336022093350293E03BC0C4
:100FC0002AE031E030933B0220933A022BE031E0FB
:100FD00030933D0220933C0229E031E03093360209
:100FE0002093350294E027C02AE031E030933B02A1
:100FF00020933A022BE031E030933D0220933C02F3
:1010000029E031E0309336022093350295E013C099
:101010002AE031E030933B0220933A022BE031E0AA
:1010200030933D0220933C0229E031E030933602B8
:101030002093350296E090933402809348030895FC
:101040002A9AEBE0F1E08081816080838081826078
:1010500080838081846080838081886080838081B8
:1010600080618083808180628083808180648083CE
:1010700008952A98EBE0F1E080818E7F8083808163
:101080008D7F808380818B7F80838081877F808339
:1010900080818F7E808380818F7D808380818F7B24
:1010A00080830895229AEAE0F1E080818160808364
:1010B0008081826080838081846080838081886079
:1010C0008083808180618083808180628083808151
:1010D0008064808308952298EAE0F1E080818E7F29
:1010E000808380818D7F808380818B7F80838081DE
:1010F000877F808380818F7E808380818F7D8083C6
:1011000080818F7B8083089580914D03882351F0E7
:1011100084E08093B1000E946B080E94200880E068
:101120000C945B0708950FB6F894A8958091600021
:10113000886180936000109260000FBE0E94840856
:101140000E945B0F0E941D09EECF9627092E029484
:10115000202D2F702927692F6025660F607E262796
:10116000602D6927607F6695092E000C661F969595
:10117000969596959F7196279827822F08952F927E
:101180003F92EF92FF921F93CF93DF93E1016EE2C4
:1011900080E090E00E94A5086F810E94A508609100
:1011A0004E030E94A50860914A030E94A5086E8123
:1011B0000E94A508382F292FEC80FD801E81F701A1
:1011C00061917F01832F922F0E94A508382F292F2C
:1011D0001150A9F76B810E94A508F82EE92E8EE226
:1011E0000E94700F8F810E94700F80914E030E94A9
:1011F000700F80914A030E94700F8E810E94700FC1
:101200001E81EC81FD8180810E94700F8C819D8107
:1012100001969D838C831150A1F78B810E94700FE2
:101220008E2D0E94700F8F2DDF91CF911F91FF9017
:10123000EF903F902F900C94700F2F923F924F920F
:101240005F926F927F928F929F92AF92BF92CF9256
:10125000DF92EF92FF920F931F93CF93DF93CDB75F
:10126000DEB72A970FB6F894DEBF0FBECDBFF89455
:101270005E0129E0A20EB11C02E513E024E4C22EB7
:1012800022E0D22E44244394512C40E4642E42E0C8
:10129000742E0E947B0F8F32E1F71A861986BE8268
:1012A000AD8241E04F830E947B0F88879091570465
:1012B0009111EFCF8F3219F40E947B0F88876FE274
:1012C00080E090E00E94A50868850E94A5087C0146
:1012D0000E947B0F80934E0390915704992311F045
:1012E00081E048C0682FC7010E94A5087C010E94C8
:1012F0007B0F80934A03909157049111F1CF682F8F
:10130000C7010E94A5087C010E947B0F8B839091EE
:1013100057049111E5CF682FC7010E94A5087C01F1
:101320003B8092E5892E93E0992E0E947B0FF40179
:1013300081934F01909157049111D2CF682FC7012B
:101340000E94A5087C013A943110EFCF0E947B0FD8
:101350008A83809157048111C3CF0E947B0F8983B8
:10136000809157048111BCCF29813A81E216F3069E
:1013700009F083E08C838111A3C110933F02009395
:101380003E02E8858E2F90E0FC01F097E131F105F7
:1013900008F094C1E658FF4F0C94970F80914002DB
:1013A000882309F48DC180914D03833028F4813066
:1013B00040F40E942A0507C0833049F0843009F0C8
:1013C0007FC10E94670281117BC18FE078C10E94BA
:1013D000CB0DF9CF8BE6898773C18DE08F8345E113
:1013E00052E05E834D836CC182E08F8388EC8987F5
:1013F00053E05A8765C1CE0101961C010E94BF08C7
:1014000080914D03811106C00E94E7030E946B0882
:101410000E94390880E00E945B070E9447069FEF08
:10142000E3ECF9E09150E040F040E1F700C000004B
:101430002A960FB6F894DEBF0FBECDBFDF91CF91D5
:101440001F910F91FF90EF90DF90CF90BF90AF90E2
:101450009F908F907F906F905F904F903F902F90D4
:10146000089580915203853010F089E028C180935F
:101470004D030E94840824C180915203883090F467
:101480000E945B0780914D03833028F4813060F423
:101490000E94E70315C1843039F012C180915203D4
:1014A000883090F088E00BC10E94830209C18091CE
:1014B00052038830B8F70E945B0724E02F837E82B6
:1014C0006D820E944C067FCF0E945B0780914D0386
:1014D0008111F6C080913402E0913C02F0913D020E
:1014E0002081A20102C0440F551F8A95E2F7CA016C
:1014F0008095909582238083E3C080914D03833053
:1015000030F4813008F0DAC00E9429065CCF8330C5
:1015100009F0B4C00E94060F56CF90914D0394304D
:1015200018F4923020F0CAC0943009F0C9C08091FC
:1015300052038987943019F4880F880F01C0880FEF
:1015400080934E0310924A03911103C00E940E062D
:101550003ACF0E94640337CF8091520380934F03A8
:1015600080914D03833028F4813038F40E94C50502
:101570001BC0833029F08430F9F40E94F40214C0B7
:101580000E942F0F11C08091520380934F038091CE
:101590004D03823039F020F0833059F0843061F40B
:1015A00082E005C00E941F03811106C08FE08C837A
:1015B00003C00E943A0FF8CF8C81811181C08091C5
:1015C0004F038F831E830D837BC08B8180934F03DA
:1015D0008FE08C8380914D03833018F4813030F09C
:1015E00039C08330E1F18430A9F16AC00E94ED0571
:1015F000882309F465C0D0923F02C0923E020E9447
:10160000C505882309F45CC01C8210933F02009337
:101610003E02D0924C03C0924B0380914F03A091A5
:101620003E02B0913F02E0914B03F0914C032C91AC
:101630009081291711F054E05C831196B0933F021A
:10164000A0933E023196F0934C03E0934B038150FC
:1016500031F736C00E948303882391F12BC00E948A
:10166000450FFACF8B8180934F038FE08C8380915D
:101670004D03823031F010F1833031F0843001F5C8
:101680001DC00E943F03E8CF0E94500FE5CFE090BD
:101690004D0384E0E81212C08B8180934F038FE0EA
:1016A000F82EFC820E94A703803321F0803C21F4B5
:1016B000EC8206C01C8204C0FC8202C082E08C83E3
:1016C000FE0131961F010E94BF08E3CD90915C049A
:1016D000982790935C0498E021E030E0E0913C0290
:1016E000F0913D02409134026081D90102C0AA0FFD
:1016F000BB1F4A95E2F7AD01462B40831092B20022
:1017000080FF20C04091B2004031E0F340913402AC
:10171000E0913C02F0913D026081D90102C0AA0F24
:10172000BB1F4A95E2F7AD01409550954623408393
:101730001092B2004091B2004031E0F38695915092
:1017400069F608954091B2004830E0F340913402C8
:10175000E0913C02F0913D026081D90102C0AA0FE4
:10176000BB1F4A95E2F7AD01409550954623408353
:101770001092B2004091B2004830E0F34091340240
:10178000E0913C02F0913D026081D90102C0AA0FB4
:10179000BB1F4A95E2F7AD01462B40831092B20081
:1017A0004091B2004830E0F340913402E0913C02B5
:1017B000F0913D026081D90102C0AA0FBB1F4A957A
:1017C000E2F7AD0140955095462340831092B20058
:1017D0004091B2004830E0F3B1CF30913402E09153
:1017E0003A02F0913B02208181E090E001C0880F35
:1017F0003A95EAF7822B80838FEF0E94660B8FEF7A
:101800000E94660B8FE70E94660B10925C048BE1CE
:101810000E94660B809159048F5F809359040C9449
:10182000660B80915C040E94660B30913402E0915B
:101830003C02F0913D02208181E090E001C0880FE0
:101840003A95EAF7822B80831092B2008091B20021
:101850008830E0F330913402E0913A02F0913B029B
:10186000208181E090E002C0880F991F3A95E2F74D
:10187000809590958223808308951092B200E09124
:101880003502F091360280812091340290E002C04E
:10189000959587952A95E2F780FF0AC08091B2005E
:1018A0008E3788F38FEF08958091B2008E37D0F78E
:1018B00080812091340290E002C0959587952A9509
:1018C000E2F780FFF1CF8091B20080935B049091AA
:1018D0005D04981738F11092B200E0913502F09152
:1018E000360280812091340290E002C09595879560
:1018F0002A95E2F780FF09C08091B2008E3788F305
:10190000D1CF8091B2008E3768F680812091340269
:1019100090E002C0959587952A95E2F780FFF1CF78
:1019200080E0089581E00895FC01108280E090E05D
:1019300041E050E01092B200A0913502B091360221
:101940002C916091340230E002C0359527956A955C
:10195000E2F720FF0AC02091B2002E3788F380E022
:1019600008952091B2002E37D0F72C916091340267
:1019700030E002C0359527956A95E2F720FFF1CF58
:101980003091B20020915D04231730F11092B20023
:10199000A0913502B09136022C916091340230E072
:1019A00002C0359527956A95E2F720FF09C020917E
:1019B000B2002E3788F3D3CF2091B2002E3778F6BD
:1019C0002C916091340230E002C0359527956A95DC
:1019D000E2F720FFF1CF09C060819A01082E01C013
:1019E000220F0A94EAF7262B20830196883091056E
:1019F00009F0A0CF909158048081892780935804E2
:101A000081E00895CF93DF9388E180935D04809116
:101A10005A04853139F0823129F0813031F0C6E441
:101A2000D0E005C0C0E6DAEE02C0C1E0D0E00E941E
:101A30003D0C87FF04C02197D1F780E017C0CAE0B2
:101A40000E943D0C8F3FC9F3C150D1F780915B04D8
:101A5000982F969586958695890F80935D040E94B0
:101A60003D0C8F3F51F31816D4F381E0DF91CF91F5
:101A70000895EF92FF920F931F93CF93DF9300D0BF
:101A80001F92CDB7DEB77C011B820E94020D81112F
:101A900002C080E076C010925804CE0103960E94E6
:101AA000940C8823B1F38B818B3199F7CE01039687
:101AB0000E94940C882369F39B81809159049813A8
:101AC000E8CFCE0102960E94940C882311F38A81FC
:101AD0008230F8F6CE0101960E94940C8823C9F258
:101AE00089819A81892BA9F2CE0103960E94940CD8
:101AF000882379F28B818E3061F6CE0103960E94A5
:101B0000940C882331F29B8180915A049813C1CFA1
:101B1000CE0103960E94940C882309F4BACF8B81DE
:101B20008111B7CF00E010E0C701800F911F29811C
:101B30003A81225031090217130740F40E94940C95
:101B4000882309F4A6CF0F5F1F4FEECFCE01039677
:101B50000E94940C882309F49CCF80915804811131
:101B600098CF30913402E0913C02F0913D02208107
:101B700081E090E001C0880F3A95EAF7822B8083DC
:101B800081E00F900F900F90DF91CF911F910F91F7
:101B9000FF90EF900895CF9381E080935A040E94C4
:101BA000ED0B80E00E94660B81E00E94660B8EE0E8
:101BB0000E94660B81E00E94660B0E94110C84E279
:101BC00092E00E94390DC82F811103C00E94470680
:101BD00001C0C1E08C2FCF910895FF920F931F9306
:101BE000CF93DF938C01C62FF42ED22F8DE18093FB
:101BF0005A040E94ED0B80E00E94660B88E00E9470
:101C0000660B8EE00E94660B8DE10E94660B84E0FD
:101C10000E94660B84E00E94660B80E00E94660BC7
:101C20008C2F0E94660B8F2D0E94660B8D2F0E94B9
:101C3000660B80E00E94660B0E94110C84E292E029
:101C40000E94390D882399F08091240281110EC0E1
:101C500080912502C81711F0811108C080912602D9
:101C6000811104C080912702F801808381E0DF9117
:101C7000CF911F910F91FF9008950E94CB0D882363
:101C800099F021E040E060E381E492E00E94ED0DF4
:101C9000882351F022E040E060E380E492E00E947B
:101CA000ED0D91E0811101C090E0892F08958091A0
:101CB0004E038F3F21F480914A038F3F29F186E044
:101CC00080935A040E94ED0B80E00E94660B85E031
:101CD0000E94660B8EE00E94660B86E00E94660BF7
:101CE00080E00E94660B80E00E94660B80914E03AC
:101CF0000E94660B80914A030E94660B0E94110CA1
:101D000084E292E00C94390D81E00895CF93C1E014
:101D100080914F038111C0E00E94ED0B80E00E9492
:101D2000660B84E00E94660B8EE00E94660B809139
:101D30005A040E94660B8C2F0E94660B80914F0301
:101D40000E94660B80EA0E94660B0E94110C809133
:101D50003E0290913F02CF910C94390D0F931F9347
:101D6000CF93DF93C0914F03CC2339F08C2F90E0B9
:101D70000A96182F092FD0E003C01AE001E0D1E045
:101D80000E94ED0B802F0E94660B812F0E94660B34
:101D90008EE00E94660B80915A040E94660B8D2F84
:101DA0000E94660B8C2F0E94660B80E00E94660BDF
:101DB00080E00E94660B80E00E94660B80E00E943B
:101DC000660B80E00E94660B80E00E94660B80E05C
:101DD0000E94660BE0913E02F0913F0280810E94DA
:101DE000660B80913E0290913F02019690933F02D4
:101DF00080933E02C15071F70E94110C84E292E080
:101E0000DF91CF911F910F910C94390D82E1809356
:101E10005A040E94ED0B80E00E94660B87E00E944E
:101E2000660B8EE00E94660B82E10E94660B84E1E5
:101E30000E94660B80E00E94660B8CEA0E94660B93
:101E400088E80E94660B83E10E94660B86E70E9489
:101E5000660B0E94110C84E292E00C94390D0E94F2
:101E6000570E882329F084E180935A040C94860E3F
:101E700080E008950E94570E882329F086E1809320
:101E80005A040C94860E80E008950E94570E882311
:101E900029F083E180935A040C94AE0E80E00895FB
:101EA0000E94570E882329F085E180935A040C94F0
:101EB000AE0E80E00895E0ECF0E080818D7F8083BD
:101EC00089E190E09093C5008093C40086E0809300
:101ED000C20088E18093C10085E08093810008956D
:101EE0009091C00095FFFCCF8093C6008091C00008
:101EF00086FFFCCF0895109257041092850010922F
:101F000084008091C00087FD0FC080918400909173
:101F1000850021E0853C39E0930708F420E0209318
:101F20005704853C994068F38091C6000895EE0FF0
:101F3000FF1F0024001C0BBE0790F691E02D0994B2
:041F4000F894FFCF43
:101F44003437310000000000000000000D424C480E
:101F5400656C69F47D6D347741526D313238305F90
:041F64003136000012
:00000001FF
