:100000000C9445000C9462000C9462000C94620005
:100010000C9462000C9462000C9462000C946200D8
:100020000C9462000C9462000C9462000C946200C8
:100030000C9462000C94D3040C9462000C94620043
:100040000C9462000C9462000C9462000C946200A8
:100050000C9462000C9462000C9462000C94620098
:100060000C9462000C9462003907550758075F072B
:100070006507A5079F08B407C007D007EF07280842
:10008000BA07060873089907880811241FBECFEF26
:10009000D8E0DEBFCDBF11E0A0E0B1E0E0EFF7E1D6
:1000A00002C005900D92A232B107D9F723E0A2E277
:1000B000B1E001C01D92A435B207E1F70E94FD0531
:1000C0000C94F60B0C94000081E080933F0283EDCA
:1000D00095E41B9903C01092B20004C00197C9F7C0
:1000E00080E008958091B2008A30E0F31B99F8CF48
:1000F00020E030E080E09AE041E050E0935F6091E2
:10010000B2006917E0F31B9B07C0BA01022E01C0C1
:10011000660F0A94EAF7862B2F5F3F4F923771F7ED
:100120009091B2009F37E0F31B9BDACF10923F0211
:1001300008952B981092B2009091B2009D30E0F398
:100140009DE080FF02C02B9A01C02B98935F86959B
:100150002091B2002917E0F3953799F72B9A8091F7
:10016000B2008238E0F30895209132018091460276
:100170009091470238E0AC0142279695879540FF61
:1001800004C041E0842740EA94272695315099F72E
:1001900090934702809346022093320108950F9373
:1001A0001F93CF938C01C62F1092470210924602E4
:1001B00010923401109233010E9464008093320146
:1001C00090913F02911127C0F80181938F010E9405
:1001D000B400C15089F780913701882311F10E9442
:1001E00064008093330180913F02811114C00E940A
:1001F00064008093340180913F0281110CC02091F2
:1002000046023091470280913301909134012817C2
:10021000390751F406C08FEF91E0803349F090E048
:1002200007C00E946400F8CF0E94640082ECF4CF03
:10023000892FCF911F910F9108950F931F93CF9303
:100240008C01C62F239A87EC90E00197F1F700C04C
:1002500000001092470210924602F80181918F012E
:10026000809332010E9499000E94B400C150A9F706
:1002700080913701882341F0809146020E949900C5
:10028000809147020E9499002398CF911F910F916E
:100290000895CF93DF93CDB7DEB76D970FB6F8947F
:1002A000DEBF0FBECDBF8091000190910101A091F2
:1002B00002018B8F9C8FAD8F81E1E4E0F1E0DE01E4
:1002C000119601900D928A95E1F761E1CE010196B8
:1002D0000E941D0168E0CE0142960E94CF00882353
:1002E000C9F0FE017296DE015B96CE014596319112
:1002F0002D9132130EC0E817F907C9F78D89809345
:1003000039018E89809338018F898093370181E08C
:1003100001C080E06D960FB6F894DEBF0FBECDBF72
:10032000DF91CF910895CF93C82F0E946400C150F0
:1003300090913F02992319F0C111F7CF8FEFCF9120
:100340000895CF93DF9300D0CDB7DEB78DEF8983CB
:100350001A8262E0CE0101960E941D0181E00E9496
:100360009301813C21F00E94E90480E001C081E01A
:100370000F900F90DF91CF910895CF93DF9300D02E
:10038000CDB7DEB719821A8281E08093370162E02F
:10039000CE0101960E941D010E94E9040F900F906A
:1003A000DF91CF910895CF93DF9300D000D0CDB7E8
:1003B000DEB790914402809140029F3F11F48F3F3D
:1003C00091F02FEF29831A829B838C8364E0CE0106
:1003D00001960E941D0182E00E94930191E080330A
:1003E00019F090E001C091E0892F0F900F900F90CD
:1003F0000F90DF91CF910895CF93DF9300D000D07D
:10040000CDB7DEB78EEF89831A821B8280914502B9
:100410008C83811102C081E08B8364E0CE01019660
:100420000E941D0182E00E9493018F3F71F4609150
:10043000450280913501909136010E941D0188E2AC
:100440000E94930191E0803309F090E0892F0F9092
:100450000F900F900F90DF91CF910895CF93DF937E
:1004600000D0CDB7DEB70E94D3018823E9F0809198
:1004700045028A8380914302823029F0843029F03A
:10048000813029F402C087E001C083E0898362E003
:10049000CE0101960E941D016091450280913501B7
:1004A000909136010E94CF000F900F90DF91CF9175
:1004B0000895CF93DF9300D0CDB7DEB70E94D3016C
:1004C000882391F084E08983809145028A8362E0E9
:1004D000CE0101960E941D01609145028091350177
:1004E000909136010E94CF000F900F90DF91CF9135
:1004F0000895CF93DF9300D0CDB7DEB70E94D3012C
:10050000982F8823A9F00E94FC01982F882381F05E
:1005100085E0898381E08A8362E0CE0101960E94B2
:100520001D0180E00E94930191E0803309F090E08A
:10053000892F0F900F90DF91CF910895CF93DF9384
:1005400000D0CDB7DEB70E94D301882389F082E0C6
:10055000898381E08A8362E0CE0101960E941D01B9
:1005600080E00E949301803311F481E001C080E0BB
:100570000F900F90DF91CF910895CF93DF9300D02C
:10058000CDB7DEB70E94D301982F8823A1F00E9437
:10059000FC01982F882379F081E089838A8362E0C7
:1005A000CE0101960E941D0182E30E94930191E019
:1005B000803309F090E0892F0F900F90DF91CF9159
:1005C0000895CF93DF9300D0CDB7DEB70E94D3015B
:1005D000882381F00E94FC01882361F084E08983F4
:1005E00081E08A8362E0CE0101960E941D0184E0D1
:1005F0000E9493010F900F90DF91CF9108952B9857
:10060000000000002B9A08951092370110923801D3
:100610001092390110923A0193B193FB992790F906
:10062000239A2B9880E88A95F1F71C9992602C9870
:1006300024982B9A8AE08A95F1F700C0239890932A
:10064000390181E0911101C080E00895239A0E9450
:10065000FF02249A08952C9824980E94FF02239860
:100660000895CF93DF930E9426032C980E94FF02E7
:100670002C9A0E94FF022C982498D8E0C0E0C695DE
:100680000E94FF021C99C068D150C9F70E942B0339
:100690008C2FDF91CF910895CF93DF93CFEFDFEFD2
:1006A0000E94310380FD04C0209711F02197F8CFFC
:1006B00081E0CD2B09F480E0DF91CF910895CF93B5
:1006C000DF93D82F0E9426032C9A0E94FF020E94DB
:1006D000FF02C8E0D0FF02C02C9A01C02C980E94F3
:1006E000FF02D695C150B1F7DF91CF910C942B0347
:1006F000CF93DF932C982498CFEFDFEF0E94FF0277
:10070000219711F01C9BFACF81E0CD2B09F480E0FA
:10071000DF91CF910895CF9310924C030E9426034E
:100720002C980E94FF020E94FF020E94FF020E947A
:10073000FF020E9478038823A1F0C8E080914C0357
:10074000869580934C030E94FF021C9B05C08091FC
:100750004C03806880934C03C15081F70E942B03A7
:1007600081E0CF9108950E944C03882349F00E94B4
:100770008B03882329F081E090914C039D3009F090
:1007800080E0089580E00E945F030E948B038091C7
:100790004C0388508B3210F010924C0380914C0324
:1007A000809337010895CF93DF93D82F0E942603BB
:1007B0002C9A0E94FF022C980E94FF020E94FF02C6
:1007C0000E94FF02C8E0D0FF02C02C9A01C02C9802
:1007D0000E94FF02D695C150B1F70E94780388238A
:1007E00061F00E942B03CFEFDFEF0E94310381FF06
:1007F00004C0209711F02197F8CFDF91CF91089591
:10080000809144020E94D303809140020E94D3034E
:10081000809145020E94D3030C94B303CF93C82F59
:1008200084EB0E945F038C2F0E94D303CF910C9422
:10083000B3030E940403811102C080E008950E9466
:10084000C2038823D1F382E00E945F0382E00E940A
:10085000D30384E00E94D30387EB91E00197F1F783
:1008600000C0000081E00E94D3039FE725EB81E0F8
:10087000915020408040E1F700C0000082E00E94DB
:100880000E048823D1F20E948B0380914C03809345
:1008900038018FEF0E945F0380E80E94D3038FE945
:1008A0009FE00197F1F700C000008FEE0E945F0308
:1008B00082E00E94D30381E00895CF9386E00E94F6
:1008C0000E04811102C080E01EC00E940004882333
:1008D000D1F3C09145020E944C038823A1F30E94EA
:1008E0008B03882381F3E0913501F0913601CF012C
:1008F0000196909336018093350180914C0380835B
:10090000C15049F781E0CF910895CF9387E00E94CD
:100910000E048823C1F00E9400048823A1F0C09136
:100920004502E0913501F0913601CF010196909397
:1009300036018093350180810E94D303C15089F72D
:10094000CF910C944C0380E0CF910895CF93C09148
:100950004402C695CF3090F488E00E940E048823AC
:1009600069F08C2F0E94D3030E94B303882331F0D7
:1009700080E00E94D303CF910C944C0380E0CF9190
:10098000089583E00E940E04882359F08EED0E94A2
:10099000D3038DEA0E94D30385EA0E94D3030C940B
:1009A0004C0380E008951F920F920FB60F9211240E
:1009B0000C9400000F900FBE0F901F90189580911F
:1009C0004302882329F084E08093B10023982B9A76
:1009D000089510923801109237010895EF92FF9216
:1009E0000F931F93CF93DF9310923801109237012A
:1009F00080914302882361F0853008F0F2C0C8E39B
:100A0000D0E014E003E0FF24F39482E0E82EB6C0C7
:100A10000E941904E4C08091C00087FDD9C0809174
:100A20004302843009F4AFC00E94960A882309F477
:100A3000AAC000934302809137019091380187301A
:100A4000934909F4A8C080913701909138018A3008
:100A5000934909F4A0C080913701909138018F30FB
:100A6000934909F498C0809137019091380131E0A1
:100A70008B30944909F030E0809137019091380132
:100A80008031934F09F489C08091370190913801EA
:100A90008033934F09F481C08091370190913801E0
:100AA0008031944F09F479C08091370190913801D9
:100AB0008039934F09F471C08091370190913801CA
:100AC0008035984F09F469C08091370190913801C1
:100AD000813B984E09F461C08091370190913801B3
:100AE00021E0823B984E09F020E0809137019091FF
:100AF000380186309F4109F452C0809137019091AE
:100B000038018630934309F44AC0809137019091AF
:100B100038018630944309F442C0809137019091A6
:100B2000380186309543D9F1809137019091380191
:100B300086309B42A1F1809137019091380151E0BC
:100B400040E08630974409F050E0852F942F482FDD
:100B5000311128C0211126C099279091430291306C
:100B600020F52197C1F1811135C08FEF94E32CE07E
:100B7000815090402040E1F700C000008091C1000A
:100B800084FF4DCF48CF0E944901882309F453CFF9
:100B90001093430250CF31E06FCF21E0A6CF81E028
:100BA00090E0D5CF81E090E0D8CF933010F0943032
:100BB000C1F6222319F0F0924302D3CF332319F068
:100BC000E0924302CECF442361F210934302C9CF97
:100BD00080E001C081E09091430290933A0181113D
:100BE00005C0109238011092370180E0DF91CF915B
:100BF0001F910F91FF90EF9008950FB6F894A8956C
:100C000080916000886180936000109260000FBE48
:100C10000E94DF040E94B40B0E948706EECF962745
:100C2000092E0294202D2F702927692F6025660F29
:100C3000607E2627602D6927607F6695092E000C4F
:100C4000661F9695969596959F7196279827822F61
:100C500008952F923F92EF92FF921F93CF93DF93CD
:100C6000E1016EE280E090E00E940F066F810E9439
:100C70000F06609144020E940F06609140020E949C
:100C80000F066E810E940F06382F292FEC80FD8001
:100C90001E81F70161917F01832F922F0E940F0621
:100CA000382F292F1150A9F76B810E940F06F82EBB
:100CB000E92E8EE20E94C90B8F810E94C90B8091A0
:100CC00044020E94C90B809140020E94C90B8E8190
:100CD0000E94C90B1E81EC81FD8180810E94C90B9D
:100CE0008C819D8101969D838C831150A1F78B810E
:100CF0000E94C90B8E2D0E94C90B8F2DDF91CF91C1
:100D00001F91FF90EF903F902F900C94C90B2F9262
:100D10003F924F925F926F927F928F929F92AF928B
:100D2000BF92CF92DF92EF92FF920F931F93CF93D8
:100D3000DF93CDB7DEB72A970FB6F894DEBF0FBEAC
:100D4000CDBFF8942E0129E0420E511C08E412E0B8
:100D500022E0B22E3BE3C32E31E0D32E44E0A42E9A
:100D600057E3652E51E0752E0E94D40B8F32E1F7C8
:100D70001A8619865E824D8281E08F830E94D40B91
:100D8000888790914D039111EFCF8F3219F40E9413
:100D9000D40B88876FE280E090E00E940F066885A0
:100DA0000E940F067C010E94D40B80934402909114
:100DB0004D03992311F081E048C0682FC7010E94BC
:100DC0000F067C010E94D40B8093400290914D034A
:100DD0009111F1CF682FC7010E940F067C010E947C
:100DE000D40B8B8390914D039111E5CF682FC701F0
:100DF0000E940F067C013B8098E4892E92E0992E98
:100E00000E94D40BF40181934F0190914D039111F5
:100E1000D2CF682FC7010E940F067C013A9431108F
:100E2000EFCF0E94D40B8A8380914D038111C3CFF1
:100E30000E94D40B898380914D038111BCCF2981FD
:100E40003A81E216F30609F083E08C83811178C1C0
:100E50001093360100933501E8858E2F90E0FC0158
:100E6000F097E131F10508F06AC1EC5CFF4F0C949A
:100E7000F00B80913701882309F462C1809143020D
:100E8000833028F4813040F40E94C20307C08330CD
:100E900049F0843009F054C10E94A101811150C170
:100EA0008FE04CC00E94240AF9CF8BE6898748C1A5
:100EB0008BE08F8385E191E09E838D8341C1BF826A
:100EC00088EC898793E09A873BC1FE0131961F0128
:100ED0000E94290680914302882329F0853028F456
:100EE00023982B9A02C00E9404030E94E904FFEF9A
:100EF00023EC89E0F15020408040E1F700C0000081
:100F00002A960FB6F894DEBF0FBECDBFDF91CF910A
:100F10001F910F91FF90EF90DF90CF90BF90AF9017
:100F20009F908F907F906F905F904F903F902F9009
:100F3000089580914802853018F089E08C8300C1C3
:100F4000809343020E94DF04FBC080914302833000
:100F500028F4813030F40E940403F2C0843009F098
:100F6000EFC00E94BD01ECC0AF827E826D820E9404
:100F7000EE0494CF809143028111E2C02B98E0C02F
:100F800080914302833030F4813008F0D8C00E9451
:100F9000C10484CF833009F0B2C00E945F0B7ECFC2
:100FA00090914302943018F4923020F0C8C09430ED
:100FB00009F0C6C0809148028987943019F4880FDF
:100FC000880F01C0880F8093440210924002911153
:100FD00003C00E94A60462CF0E949E025FCF809150
:100FE00048028093450280914302833028F4813087
:100FF00038F40E945D041BC0833029F08430F9F47A
:101000000E942E0214C00E94880B11C080914802D9
:101010008093450280914302823039F020F0833082
:1010200059F0843061F4BC820AC00E9459028111D7
:1010300006C08FE08C8303C00E94930BF8CF8C8195
:1010400081117EC0809145028F831E830D8378C0FD
:101050008B81809345028FE08C83809143028330A3
:1010600018F4813030F037C08330D1F1843099F1F9
:1010700067C00E948504882309F462C0D0923601BB
:10108000C09235010E945D04882309F459C01C8276
:101090001093360100933501D0924202C092410272
:1010A00080914502A0913501B0913601E091410255
:1010B000F09142022C9190812913AC821196B09349
:1010C0003601A09335013196F0934202E09341023C
:1010D000815041F735C00E94BD02882389F12BC0A1
:1010E0000E949E0BFACF8B81809345028FE08C8308
:1010F00080914302823031F010F1833031F084303E
:10110000F9F41DC00E947902E8CF0E94A90BE5CF37
:10111000E090430294E0E91212C08B818093450273
:101120008FE0F82EFC820E94E102803321F0803CA7
:1011300021F4EC8205C01C8203C0FC8201C0BC8289
:10114000FE0131961F010E9429060ECE9091520396
:1011500098279093520398E02B9A1092B20080FF48
:101160000FC02091B2002031E0F32B981092B20012
:101170002091B2002031E0F38695915069F70895EF
:101180002091B2002830E0F32B981092B200209109
:10119000B2002830E0F32B9A1092B2002091B200F6
:1011A0002830E0F32B981092B2002091B200283042
:1011B000E0F3E2CF239A8FEF0E94A6088FEF0E9400
:1011C000A6088FE70E94A608109252038BE10E94A6
:1011D000A60880914F038F5F80934F030C94A6085D
:1011E000809152030E94A6082B9A1092B20080911F
:1011F000B2008830E0F3239808951092B2001B9B50
:101200000AC08091B2008E37D0F38FEF089580919D
:10121000B2008E37D0F71B9BFACF8091B20080933B
:10122000510390915303981788F01092B2001B9BC2
:1012300009C08091B2008E37D0F3E7CF8091B20021
:101240008E3718F71B9BFACF80E0089581E0089550
:10125000FC01108280E090E041E050E01092B2008A
:101260001B9B0AC02091B2002E37D0F380E0089576
:101270002091B2002E37D0F71B9BFACF3091B200ED
:1012800020915303231780F01092B2001B9B09C0DA
:101290002091B2002E37D0F3E9CF2091B2002E3743
:1012A00028F71B9BFACF09C060819A01082E01C064
:1012B000220F0A94EAF7262B2083019688309105A5
:1012C00069F690914E038081892780934E0381E0D7
:1012D0000895CF93DF9388E1809353038091500367
:1012E000853139F0823129F0813031F0C6E4D0E027
:1012F00005C0C0E6DAEE02C0C1E0D0E00E94FD0801
:1013000087FF04C02197D1F780E017C0CAE00E9490
:10131000FD088F3FC9F3C150D1F780915103982F39
:10132000969586958695890F809353030E94FD08B4
:101330008F3F51F31816D4F381E0DF91CF910895D8
:10134000EF92FF920F931F93CF93DF9300D01F92E2
:10135000CDB7DEB77C011B820E946909811102C0F2
:1013600080E068C010924E03CE0103960E942809C7
:101370008823B1F38B818B3199F7CE0103960E94BC
:101380002809882369F39B8180914F039813E8CF44
:10139000CE0102960E942809882311F38A818230A7
:1013A000F8F6CE0101960E9428098823C9F28981A6
:1013B0009A81892BA9F2CE0103960E9428098823DD
:1013C00079F28B818E3061F6CE0103960E94280956
:1013D000882331F29B81809150039813C1CFCE01B5
:1013E00003960E942809882309F4BACF8B818111C2
:1013F000B7CF00E010E0C701800F911F29813A812B
:10140000225031090217130740F40E94280988234B
:1014100009F4A6CF0F5F1F4FEECFCE0103960E94B7
:101420002809882309F49CCF80914E03811198CF1D
:101430002B9A81E00F900F900F90DF91CF911F9129
:101440000F91FF90EF900895CF9381E08093500328
:101450000E94DA0880E00E94A60881E00E94A608A7
:101460008EE00E94A60881E00E94A6080E94F00873
:1014700082E291E00E94A009C82F811103C00E945E
:10148000E90401C0C1E08C2FCF910895FF920F9322
:101490001F93CF93DF938C01C62FF42ED22F8DE1B3
:1014A000809350030E94DA0880E00E94A60888E03A
:1014B0000E94A6088EE00E94A6088DE10E94A60860
:1014C00084E00E94A60884E00E94A60880E00E94B2
:1014D000A6088C2F0E94A6088F2D0E94A6088D2F8B
:1014E0000E94A60880E00E94A6080E94F00882E2FE
:1014F00091E00E94A009882399F080912201811136
:101500000EC080912301C81711F0811108C080918D
:101510002401811104C080912501F801808381E0BC
:10152000DF91CF911F910F91FF9008950E94240A9F
:10153000882399F021E040E060E388E391E00E9495
:10154000460A882351F022E040E060E387E391E01F
:101550000E94460A91E0811101C090E0892F089510
:10156000809144028F3F21F4809140028F3F29F106
:1015700086E0809350030E94DA0880E00E94A6086B
:1015800085E00E94A6088EE00E94A60886E00E94E0
:10159000A60880E00E94A60880E00E94A60880912C
:1015A00044020E94A608809140020E94A6080E9460
:1015B000F00882E291E00C94A00981E00895CF93B5
:1015C000C1E0809145028111C0E00E94DA0880E00C
:1015D0000E94A60884E00E94A6088EE00E94A60849
:1015E000809150030E94A6088C2F0E94A60880912B
:1015F00045020E94A60880EA0E94A6080E94F00800
:101600008091350190913601CF910C94A0090F93F0
:101610001F93CF93DF93C0914502CC2339F08C2FD9
:1016200090E00A96182F092FD0E003C01AE001E0DD
:10163000D1E00E94DA08802F0E94A608812F0E9424
:10164000A6088EE00E94A608809150030E94A6087A
:101650008D2F0E94A6088C2F0E94A60880E00E9471
:10166000A60880E00E94A60880E00E94A60880E00C
:101670000E94A60880E00E94A60880E00E94A608BA
:1016800080E00E94A608E0913501F091360180814A
:101690000E94A608809135019091360101969093A1
:1016A000360180933501C15071F70E94F00882E243
:1016B00091E0DF91CF911F910F910C94A00982E1ED
:1016C000809350030E94DA0880E00E94A60887E019
:1016D0000E94A6088EE00E94A60882E10E94A60849
:1016E00084E10E94A60880E00E94A6088CEA0E947D
:1016F000A60888E80E94A60883E10E94A60886E75B
:101700000E94A6080E94F00882E291E00C94A009D1
:101710000E94B00A882329F084E1809350030C943E
:10172000DF0A80E008950E94B00A882329F086E14C
:10173000809350030C94DF0A80E008950E94B00A61
:10174000882329F083E1809350030C94070B80E0F9
:1017500008950E94B00A882329F085E18093500300
:101760000C94070B80E00895E0ECF0E080818D7F21
:10177000808389E190E09093C5008093C40086E067
:101780008093C20088E18093C10085E0809381004E
:1017900008959091C00095FFFCCF8093C600809182
:1017A000C00086FFFCCF089510924D031092850073
:1017B000109284008091C00087FD0FC0809184004A
:1017C0009091850021E0853C39E0930708F420E002
:1017D00020934D03853C994068F38091C60008959D
:1017E000EE0FFF1F0590F491E02D0994F894FFCFC0
:1017F0003437310000000000000000000D424C486A
:10180000656C69F47D347741526D3332385031362E
:021810000000D6
:00000001FF
