:100000000C944D000C946A000C946A000C946A00E5
:100010000C946A000C946A000C946A000C946A00B8
:100020000C946A000C946A000C946A000C946A00A8
:100030000C946A000C94FB050C946A000C946A0002
:100040000C946A000C946A000C946A000C946A0088
:100050000C946A000C946A000C946A000C946A0078
:100060000C946A000C946A004007540768077C07E8
:100070009007A407B907CD0753096F0972097909D9
:100080008009C109E30ADC09020A120A310A6A0A74
:10009000D309480AB70AB609CC0A11241FBECFEF0C
:1000A000D8E0DEBFCDBF11E0A0E0B1E0E8E4FEE1C2
:1000B00002C005900D92A232B107D9F723E0A2E267
:1000C000B1E001C01D92AC35B207E1F70E941808FB
:1000D0000C94220F0C94000081E080934702E09181
:1000E0003301F091340120EC32E180814091320102
:1000F00090E002C0959587954A95E2F780FD03C090
:100100001092B20005C02150310979F780E00895BE
:100110008091B2008A30E0F3E0913301F091340134
:1001200080812091320190E002C0959587952A95B3
:10013000E2F780FDEBCF40E050E080E09AE061E044
:1001400070E0935F2091B2002917E0F32081A09125
:10015000320130E002C035952795AA95E2F720FFDD
:1001600007C09B01042E01C0220F0A94EAF7822BDC
:100170004F5F5F4F923729F79091B2009F37E0F3BE
:1001800020819091320130E002C0359527959A95F3
:10019000E2F720FFBBCF1092470208954091320151
:1001A000E0913A01F0913B01908121E030E002C002
:1001B000220F331F4A95E2F720953095292320839B
:1001C0001092B2009091B2009D30E0F39DE041E0CA
:1001D00050E0E0913A01F0913B01209132016081C1
:1001E000DA0102C0AA0FBB1F2A95E2F79D0180FF2A
:1001F00002C0262B03C02095309526232083935FD1
:1002000086952091B2002917E0F3953711F73091C8
:100210003201E0913A01F0913B01208181E090E0D0
:1002200001C0880F3A95EAF7822B80838091B20053
:100230008238E0F308952091350180914E0290912B
:100240004F0238E0AC0142279695879540FF04C0E5
:1002500041E0842740EA94272695315099F79093FE
:100260004F0280934E022093350108950F931F9300
:10027000CF938C01C62F10924F0210924E02109213
:100280003701109236010E946C00809335019091E5
:100290004702911127C0F80181938F010E941B0131
:1002A000C15089F780913E01882311F10E946C00B2
:1002B0008093360180914702811114C00E946C0026
:1002C000809337018091470281110CC020914E022A
:1002D00030914F02809136019091370128173907EC
:1002E00051F406C08FEF91E0803349F090E007C0F1
:1002F0000E946C00F8CF0E946C0082ECF4CF892F32
:10030000CF911F910F9108950F931F93CF938C015D
:10031000C62F30913201E0913801F09139012081EE
:1003200081E090E001C0880F3A95EAF7822B808344
:1003300087EC90E00197F1F700C0000010924F02A7
:1003400010924E02F80181918F01809335010E9435
:10035000CE000E941B01C150A9F780913E01882365
:1003600041F080914E020E94CE0080914F020E9487
:10037000CE0030913201E0913801F09139012081B5
:1003800081E090E002C0880F991F3A95E2F78095CE
:10039000909582238083CF911F910F910895CF93E1
:1003A000DF93CDB7DEB76D970FB6F894DEBF0FBE03
:1003B000CDBF8091000190910101A09102018B8F2E
:1003C0009C8FAD8F81E1E4E0F1E0DE0111960190B8
:1003D0000D928A95E1F761E1CE0101960E948401B8
:1003E00068E0CE0142960E9436018823C9F0FE01E2
:1003F0007296DE015B96CE01459631912D913213B6
:100400000EC0E817F907C9F78D89809340018E89DE
:1004100080933F018F8980933E0181E001C080E09D
:100420006D960FB6F894DEBF0FBECDBFDF91CF91B2
:100430000895CF93C82F0E946C00C150909147023D
:10044000992319F0C111F7CF8FEFCF910895CF9372
:10045000DF9300D0CDB7DEB78DEF89831A8262E0DB
:10046000CE0101960E94840181E00E941902813C24
:1004700021F00E94070680E001C081E00F900F90FC
:10048000DF91CF910895CF93DF9300D0CDB7DEB742
:1004900019821A8281E080933E0162E0CE010196CA
:1004A0000E9484010E9407060F900F90DF91CF9168
:1004B0000895CF93DF9300D000D0CDB7DEB79091F1
:1004C0004C02809148029F3F11F48F3F91F02FEF33
:1004D00029831A829B838C8364E0CE0101960E945B
:1004E000840182E00E94190291E0803319F090E0CB
:1004F00001C091E0892F0F900F900F900F90DF9126
:10050000CF910895CF93DF9300D000D0CDB7DEB761
:100510008EEF89831A821B8280914D028C83811118
:1005200002C081E08B8364E0CE0101960E948401C9
:1005300082E00E9419028F3F71F460914D02809118
:100540003C0190913D010E94840188E20E941902C1
:1005500091E0803309F090E0892F0F900F900F9079
:100560000F90DF91CF910895CF93DF9300D0CDB757
:10057000DEB70E9459028823E9F080914D028A83F8
:1005800080914B02823029F0843029F0813029F4A7
:1005900002C087E001C083E0898362E0CE0101965A
:1005A0000E94840160914D0280913C0190913D0137
:1005B0000E9436010F900F90DF91CF910895CF9355
:1005C000DF9300D0CDB7DEB70E945902882391F0A7
:1005D00084E0898380914D028A8362E0CE01019696
:1005E0000E94840160914D0280913C0190913D01F7
:1005F0000E9436010F900F90DF91CF910895CF9315
:10060000DF9300D0CDB7DEB70E945902982F882320
:10061000A9F00E948202982F882381F085E08983C7
:1006200081E08A8362E0CE0101960E94840180E02D
:100630000E94190291E0803309F090E0892F0F9019
:100640000F90DF91CF910895CF93DF9300D0CDB776
:10065000DEB70E945902882389F082E0898381E015
:100660008A8362E0CE0101960E94840180E00E94AC
:100670001902803311F481E001C080E00F900F90E7
:10068000DF91CF910895CF93DF9300D0CDB7DEB740
:100690000E945902982F8823A1F00E948202982F6D
:1006A000882379F081E089838A8362E0CE01019614
:1006B0000E94840182E30E94190291E0803309F0D4
:1006C00090E0892F0F900F90DF91CF910895CF93F5
:1006D000DF9300D0CDB7DEB70E945902882381F0A6
:1006E0000E948202882361F084E0898381E08A830A
:1006F00062E0CE0101960E94840184E00E9419020A
:100700000F900F90DF91CF91089520913201E091E9
:100710003A01F0913B01408181E090E0BC0102C0D0
:10072000660F771F2A95E2F79B01209530952423C9
:10073000208330913201E0913A01F0913B01208118
:1007400001C0880F3A95EAF7822B808308951092B2
:100750003E0110923F0110924001109241010E940F
:10076000F7070E94EE0720913201E0913801F091E5
:100770003901408181E090E0BC0102C0660F771F23
:100780002A95E2F79B012095309524232083EFE8FA
:10079000F1E03197F1F700C00000E0913301F091F2
:1007A000340120814091320130E002C03595279517
:1007B0004A95E2F7217040913201E0913801F091C1
:1007C00039013081BC0102C0660F771F4A95E2F7FC
:1007D000AB01432B408340913201E0913A01F0910B
:1007E0003B01308102C0880F991F4A95E2F780953E
:1007F00090958323808370E77A95F1F74A99226078
:100800005A98529840913201E0913A01F0913B019F
:10081000308181E090E0BC0102C0660F771F4A95ED
:10082000E2F7AB01432B408375E07A95F1F70000C6
:1008300040913201E0913801F0913901308102C0DC
:10084000880F991F4A95E2F78095909583238083BE
:100850002093400181E0211101C080E00895309192
:100860003201E0913801F0913901208181E090E07E
:1008700001C0880F3A95EAF7822B80830E94850396
:10088000529A08955A9852980E94850330913201E5
:10089000E0913801F0913901208181E090E002C0BF
:1008A000880F991F3A95E2F780959095822380836F
:1008B0000895CF93DF930E942F045A980E948503D6
:1008C0005A9A0E9485035A985298D8E0C0E0C6957B
:1008D0000E9485034A99C068D150C9F70E9442041A
:1008E0008C2FDF91CF910895CF93DF93CFEFDFEF80
:1008F0000E94590480FD04C0209711F02197F8CF81
:1009000081E0CD2B09F480E0DF91CF910895CF9362
:10091000DF93D82F0E942F045A9A0E9485030E94C9
:100920008503C8E0D0FF02C05A9A01C05A980E94BD
:100930008503D695C150B1F7DF91CF910C94420455
:10094000CF93DF935A985298CFEFDFEF0E94850341
:10095000219711F04A9BFACF81E0CD2B09F480E07A
:10096000DF91CF910895CF93109254030E942F04EA
:100970005A980E9485030E9485030E9485030E9465
:1009800085030E94A0048823A1F0C8E0809154034D
:100990008695809354030E9485034A9B05C08091ED
:1009A0005403806880935403C15081F70E9442042D
:1009B00081E0CF9108950E947404882349F00E9439
:1009C000B304882329F081E0909154039D3009F00D
:1009D00080E0089580E00E9487040E94B304809123
:1009E000540388508B3210F01092540380915403BA
:1009F00080933E010895CF93DF93D82F0E942F0458
:100A00005A9A0E9485035A980E9485030E94850382
:100A10000E948503C8E0D0FF02C05A9A01C05A98CC
:100A20000E948503D695C150B1F70E94A004882387
:100A300061F00E944204CFEFDFEF0E94590481FF72
:100A400004C0209711F02197F8CFDF91CF9108953E
:100A500080914C020E94FB04809148020E94FB049A
:100A600080914D020E94FB040C94DB04CF93C82FAD
:100A700084EB0E9487048C2F0E94FB04CF910C947E
:100A8000DB040E94A703811102C080E008950E9448
:100A9000EA048823D1F382E00E94870482E00E9466
:100AA000FB0484E00E94FB0487EB91E00197F1F7DF
:100AB00000C0000081E00E94FB049FE725EB81E07D
:100AC000915020408040E1F700C0000082E00E9489
:100AD00036058823D1F20E94B30480915403809399
:100AE0003F018FEF0E94870480E80E94FB048FE99A
:100AF0009FE00197F1F700C000008FEE0E9487048D
:100B000082E00E94FB0481E00895CF9386E00E947A
:100B10003605811102C080E01EC00E94280588238E
:100B2000D1F3C0914D020E9474048823A1F30E9466
:100B3000B304882381F3E0913C01F0913D01CF01A2
:100B4000019690933D0180933C01809154038083F2
:100B5000C15049F781E0CF910895CF9387E00E947B
:100B600036058823C1F00E9428058823A1F0C09192
:100B70004D02E0913C01F0913D01CF01019690932F
:100B80003D0180933C0180810E94FB04C15089F7A4
:100B9000CF910C94740480E0CF910895CF93C091CD
:100BA0004C02C695CF3090F488E00E943605882329
:100BB00069F08C2F0E94FB040E94DB04882331F033
:100BC00080E00E94FB04CF910C94740480E0CF91EC
:100BD000089583E00E943605882359F08EED0E9427
:100BE000FB048DEA0E94FB0485EA0E94FB040C943E
:100BF000740480E008951F920F920FB60F92112493
:100C00000C9400000F900FBE0F901F90189510923B
:100C10003F0110923E010895EF92FF920F931F93B0
:100C2000CF93DF9310923F0110923E0180914B02CF
:100C3000882361F0853008F0F2C0C3E0D0E014E012
:100C400003E0FF24F39482E0E82EB6C00E94410541
:100C5000E4C08091C00087FDD9C080914B028430F0
:100C600009F4AFC00E94C20D882309F4AAC0009302
:100C70004B0280913E0190913F018730934909F4E6
:100C8000A8C080913E0190913F018A30934909F4B8
:100C9000A0C080913E0190913F018F30934909F4AB
:100CA00098C080913E0190913F0131E08B30944992
:100CB00009F030E080913E0190913F018031934FE7
:100CC00009F489C080913E0190913F018033934F98
:100CD00009F481C080913E0190913F018031944F91
:100CE00009F479C080913E0190913F018039934F82
:100CF00009F471C080913E0190913F018035984F79
:100D000009F469C080913E0190913F01813B984E6A
:100D100009F461C080913E0190913F0121E0823B46
:100D2000984E09F020E080913E0190913F0186307D
:100D30009F4109F452C080913E0190913F0186305D
:100D4000934309F44AC080913E0190913F0186305F
:100D5000944309F442C080913E0190913F01863056
:100D60009543D9F180913E0190913F0186309B429D
:100D7000A1F180913E0190913F0151E040E0863029
:100D8000974409F050E0852F942F482F311128C047
:100D9000211126C0992790914B02913020F521977F
:100DA000C1F1811135C08FEF99EF20E08150904063
:100DB0002040E1F700C000008091C10084FF4DCFCA
:100DC00048CF0E94CF01882309F453CF10934B02E0
:100DD00050CF31E06FCF21E0A6CF81E090E0D5CFBA
:100DE00081E090E0D8CF933010F09430C1F6222308
:100DF00019F0F0924B02D3CF332319F0E0924B025B
:100E0000CECF442361F210934B02C9CF80E001C0E2
:100E100081E090914B0290934101811105C01092A5
:100E20003F0110923E0180E0DF91CF911F910F9121
:100E3000FF90EF900895909146029817B1F090912D
:100E40004B02911112C040913201E0913A01F091B0
:100E50003B01908121E030E002C0220F331F4A9510
:100E6000E2F72095309529232083482F50E0483021
:100E7000510508F0A7C0FA01EC5CFF4F0C941C0F61
:100E80002AE230E030933901209338012BE230E040
:100E900030933B0120933A0129E230E03093340152
:100EA0002093330193E08CC02AE230E03093390183
:100EB000209338012BE230E030933B0120933A013C
:100EC00029E230E0309334012093330194E078C07C
:100ED0002AE230E030933901209338012BE230E0F0
:100EE00030933B0120933A0129E230E03093340102
:100EF0002093330195E064C02AE230E03093390159
:100F0000209338012BE230E030933B0120933A01EB
:100F100029E230E0309334012093330196E050C051
:100F20002AE230E030933901209338012BE230E09F
:100F300030933B0120933A0129E230E030933401B1
:100F40002093330197E03CC024E230E03093390134
:100F50002093380125E230E030933B0120933A01A1
:100F600023E230E0309334012093330110923201B8
:100F700029C024E230E0309339012093380125E282
:100F800030E030933B0120933A0123E230E030938C
:100F900034012093330191E013C024E230E0309318
:100FA00039012093380125E230E030933B01209352
:100FB0003A0123E230E0309334012093330192E090
:100FC000909332018093460208955B9A5C9A5D9AF1
:100FD0005E9A5F9A289A299A2A9A08955B985C9853
:100FE0005D985E985F98289829982A980895539A52
:100FF000549A559A569A579A209A219A229A089565
:101000005398549855985698579820982198229814
:10101000089580914B02882351F084E08093B100C1
:101020000E9400080E94E50780E00C941B070895C9
:101030000FB6F894A8958091600088618093600055
:10104000109260000FBE0E9409080E94E00E0E94EC
:10105000A208EECF9627092E0294202D2F70292763
:10106000692F6025660F607E2627602D6927607FC7
:101070006695092E000C661F9695969596959F711C
:1010800096279827822F08952F923F92EF92FF92F2
:101090001F93CF93DF93E1016EE280E090E00E9426
:1010A0002A086F810E942A0860914C020E942A0837
:1010B000609148020E942A086E810E942A08382FF7
:1010C000292FEC80FD801E81F70161917F01832F24
:1010D000922F0E942A08382F292F1150A9F76B81CF
:1010E0000E942A08F82EE92E8EE20E94F50E8F81CA
:1010F0000E94F50E80914C020E94F50E80914802EC
:101100000E94F50E8E810E94F50E1E81EC81FD81FC
:1011100080810E94F50E8C819D8101969D838C8338
:101120001150A1F78B810E94F50E8E2D0E94F50EB5
:101130008F2DDF91CF911F91FF90EF903F902F90D7
:101140000C94F50E2F923F924F925F926F927F9286
:101150008F929F92AF92BF92CF92DF92EF92FF92C7
:101160000F931F93CF93DF93CDB7DEB72A970FB6B8
:10117000F894DEBF0FBECDBFF8945E0129E0A20E49
:10118000B11C00E512E022E4C22E21E0D22E44245C
:101190004394512C4EE3642E41E0742E0E94000FC4
:1011A0008F32E1F71A861986BE82AD8241E04F8305
:1011B0000E94000F8887909155039111EFCF8F32D5
:1011C00019F40E94000F88876FE280E090E00E948F
:1011D0002A0868850E942A087C010E94000F8093DB
:1011E0004C0290915503992311F081E048C0682F7B
:1011F000C7010E942A087C010E94000F80934802C8
:10120000909155039111F1CF682FC7010E942A08D0
:101210007C010E94000F8B83909155039111E5CFC3
:10122000682FC7010E942A087C013B8090E5892E27
:1012300092E0992E0E94000FF40181934F0190914A
:1012400055039111D2CF682FC7010E942A087C0153
:101250003A943110EFCF0E94000F8A83809155039A
:101260008111C3CF0E94000F8983809155038111A2
:10127000BCCF29813A81E216F30609F083E08C8322
:101280008111A3C110933D0100933C01E8858E2F8D
:1012900090E0FC01F097E131F10508F094C1E45CC5
:1012A000FF4F0C941C0F80913E01882309F48DC1DF
:1012B00080914B02833028F4813040F40E94EA048C
:1012C00007C0833049F0843009F07FC10E942702B3
:1012D00081117BC18FE078C10E94500DF9CF8BE660
:1012E000898773C18CE08F8345E151E05E834D8334
:1012F0006CC182E08F8388EC898753E05A8765C18F
:10130000CE0101961C010E94440880914B0281117C
:1013100006C00E94A7030E9400080E94EE0780E01A
:101320000E941B070E9407069FEFE3ECF9E0915033
:10133000E040F040E1F700C000002A960FB6F894B4
:10134000DEBF0FBECDBFDF91CF911F910F91FF90F8
:10135000EF90DF90CF90BF90AF909F908F907F9055
:101360006F905F904F903F902F9008958091500222
:10137000853010F089E028C180934B020E94090853
:1013800024C180915002883090F40E941B07809104
:101390004B02833028F4813060F40E94A70315C10A
:1013A000843039F012C180915002883090F088E08A
:1013B0000BC10E94430209C1809150028830B8F7E6
:1013C0000E941B0724E02F837E826D820E940C0600
:1013D0007FCF0E941B0780914B028111F6C0809144
:1013E0003201E0913A01F0913B012081A20102C05B
:1013F000440F551F8A95E2F7CA0180959095822384
:101400008083E3C080914B02833030F4813008F058
:10141000DAC00E94E9055CCF833009F0B4C00E94B5
:101420008B0E56CF90914B02943018F4923020F0EE
:10143000CAC0943009F0C9C08091500289879430A5
:1014400019F4880F880F01C0880F80934C02109206
:101450004802911103C00E94CE053ACF0E94240396
:1014600037CF8091500280934D0280914B028330A0
:1014700028F4813038F40E9485051BC0833029F0A0
:101480008430F9F40E94B40214C00E94B40E11C05A
:101490008091500280934D0280914B02823039F04E
:1014A00020F0833059F0843061F482E005C00E945E
:1014B000DF02811106C08FE08C8303C00E94BF0E43
:1014C000F8CF8C81811181C080914D028F831E8362
:1014D0000D837BC08B8180934D028FE08C83809144
:1014E0004B02833018F4813030F039C08330E1F1A1
:1014F0008430A9F16AC00E94AD05882309F465C053
:10150000D0923D01C0923C010E948505882309F4D8
:101510005CC01C8210933D0100933C01D0924A02B2
:10152000C092490280914D02A0913C01B0913D01D1
:10153000E0914902F0914A022C919081291711F013
:1015400054E05C831196B0933D01A0933C01319629
:10155000F0934A02E0934902815031F736C00E946D
:101560004303882391F12BC00E94CA0EFACF8B81CE
:1015700080934D028FE08C8380914B02823031F05A
:1015800010F1833031F0843001F51DC00E94FF025C
:10159000E8CF0E94D50EE5CFE0904B0284E0E81240
:1015A00012C08B8180934D028FE0F82EFC820E9446
:1015B0006703803321F0803C21F4EC8206C01C825A
:1015C00004C0FC8202C082E08C83FE0131961F01C0
:1015D0000E944408E3CD90915A03982790935A03B0
:1015E00098E021E030E0E0913A01F0913B01409138
:1015F00032016081D90102C0AA0FBB1F4A95E2F7F0
:10160000AD01462B40831092B20080FF20C0409174
:10161000B2004031E0F340913201E0913A01F091A3
:101620003B016081D90102C0AA0FBB1F4A95E2F7B6
:10163000AD0140955095462340831092B2004091F1
:10164000B2004031E0F38695915069F608954091DB
:10165000B2004830E0F340913201E0913A01F0915C
:101660003B016081D90102C0AA0FBB1F4A95E2F776
:10167000AD0140955095462340831092B2004091B1
:10168000B2004830E0F340913201E0913A01F0912C
:101690003B016081D90102C0AA0FBB1F4A95E2F746
:1016A000AD01462B40831092B2004091B200483009
:1016B000E0F340913201E0913A01F0913B01608109
:1016C000D90102C0AA0FBB1F4A95E2F7AD014095B0
:1016D0005095462340831092B2004091B2004830AA
:1016E000E0F3B1CF30913201E0913801F09139014E
:1016F000208181E090E001C0880F3A95EAF7822BC3
:1017000080838FEF0E94EB0A8FEF0E94EB0A8FE736
:101710000E94EB0A10925A038BE10E94EB0A80911F
:1017200057038F5F809357030C94EB0A80915A0301
:101730000E94EB0A30913201E0913A01F0913B01B5
:10174000208181E090E001C0880F3A95EAF7822B72
:1017500080831092B2008091B2008830E0F3309123
:101760003201E0913801F0913901208181E090E06F
:1017700002C0880F991F3A95E2F7809590958223D1
:10178000808308951092B200E0913301F09134010A
:1017900080812091320190E002C0959587952A952D
:1017A000E2F780FF0AC08091B2008E3788F38FEF96
:1017B00008958091B2008E37D0F780812091320158
:1017C00090E002C0959587952A95E2F780FFF1CFCA
:1017D0008091B2008093590390915B03981738F180
:1017E0001092B200E0913301F09134018081209198
:1017F000320190E002C0959587952A95E2F780FF27
:1018000009C08091B2008E3788F3D1CF8091B200A9
:101810008E3768F680812091320190E002C0959564
:1018200087952A95E2F780FFF1CF80E0089581E067
:101830000895FC01108280E090E041E050E01092B9
:10184000B200A0913301B09134012C91609132012A
:1018500030E002C0359527956A95E2F720FF0AC06F
:101860002091B2002E3788F380E008952091B200D5
:101870002E37D0F72C916091320130E002C03595BF
:1018800027956A95E2F720FFF1CF3091B2002091C1
:101890005B03231730F11092B200A0913301B09195
:1018A00034012C916091320130E002C035952795CA
:1018B0006A95E2F720FF09C02091B2002E3788F325
:1018C000D3CF2091B2002E3778F62C91609132015F
:1018D00030E002C0359527956A95E2F720FFF1CFF9
:1018E00009C060819A01082E01C0220F0A94EAF70C
:1018F000262B208301968830910509F0A0CF909186
:101900005603808189278093560381E00895CF9301
:10191000DF9388E180935B0380915803853139F030
:10192000823129F0813031F0C6E4D0E005C0C0E654
:10193000DAEE02C0C1E0D0E00E94C20B87FF04C013
:101940002197D1F780E017C0CAE00E94C20B8F3FF9
:10195000C9F3C150D1F780915903982F9695869578
:101960008695890F80935B030E94C20B8F3F51F3D2
:101970001816D4F381E0DF91CF910895EF92FF9292
:101980000F931F93CF93DF9300D01F92CDB7DEB795
:101990007C011B820E94870C811102C080E076C00E
:1019A00010925603CE0103960E94190C8823B1F3BE
:1019B0008B818B3199F7CE0103960E94190C8823F5
:1019C00069F39B81809157039813E8CFCE0102966B
:1019D0000E94190C882311F38A818230F8F6CE0117
:1019E00001960E94190C8823C9F289819A81892B5A
:1019F000A9F2CE0103960E94190C882379F28B81FB
:101A00008E3061F6CE0103960E94190C882331F2C4
:101A10009B81809158039813C1CFCE0103960E94F9
:101A2000190C882309F4BACF8B818111B7CF00E05C
:101A300010E0C701800F911F29813A81225031099E
:101A40000217130740F40E94190C882309F4A6CF4B
:101A50000F5F1F4FEECFCE0103960E94190C882313
:101A600009F49CCF80915603811198CF30913201B7
:101A7000E0913A01F0913B01208181E090E001C0CA
:101A8000880F3A95EAF7822B808381E00F900F90C0
:101A90000F90DF91CF911F910F91FF90EF900895DC
:101AA000CF9381E0809358030E94720B80E00E94E4
:101AB000EB0A81E00E94EB0A8EE00E94EB0A81E0D3
:101AC0000E94EB0A0E94960B82E291E00E94BE0CFB
:101AD000C82F811103C00E94070601C0C1E08C2FEE
:101AE000CF910895FF920F931F93CF93DF938C01B3
:101AF000C62FF42ED22F8DE1809358030E94720BD3
:101B000080E00E94EB0A88E00E94EB0A8EE00E94CF
:101B1000EB0A8DE10E94EB0A84E00E94EB0A84E06C
:101B20000E94EB0A80E00E94EB0A8C2F0E94EB0AD5
:101B30008F2D0E94EB0A8D2F0E94EB0A80E00E94FD
:101B4000EB0A0E94960B82E291E00E94BE0C882371
:101B500099F08091220181110EC080912301C81754
:101B600011F0811108C080912401811104C080917D
:101B70002501F801808381E0DF91CF911F910F91C2
:101B8000FF9008950E94500D882399F021E040E0D5
:101B900060E38FE391E00E94720D882351F022E010
:101BA00040E060E38EE391E00E94720D91E08111CC
:101BB00001C090E0892F089580914C028F3F21F45D
:101BC000809148028F3F29F186E0809358030E945C
:101BD000720B80E00E94EB0A85E00E94EB0A8EE027
:101BE0000E94EB0A86E00E94EB0A80E00E94EB0A6A
:101BF00080E00E94EB0A80914C020E94EB0A8091E7
:101C000048020E94EB0A0E94960B82E291E00C943B
:101C1000BE0C81E00895CF93C1E080914D02811107
:101C2000C0E00E94720B80E00E94EB0A84E00E94F8
:101C3000EB0A8EE00E94EB0A809158030E94EB0AA7
:101C40008C2F0E94EB0A80914D020E94EB0A80EAE1
:101C50000E94EB0A0E94960B80913C0190913D01FD
:101C6000CF910C94BE0C0F931F93CF93DF93C09131
:101C70004D02CC2339F08C2F90E00A96182F092FB3
:101C8000D0E003C01AE001E0D1E00E94720B802F87
:101C90000E94EB0A812F0E94EB0A8EE00E94EB0A61
:101CA000809158030E94EB0A8D2F0E94EB0A8C2F23
:101CB0000E94EB0A80E00E94EB0A80E00E94EB0A9F
:101CC00080E00E94EB0A80E00E94EB0A80E00E9424
:101CD000EB0A80E00E94EB0A80E00E94EB0AE091B0
:101CE0003C01F0913D0180810E94EB0A80913C0112
:101CF00090913D01019690933D0180933C01C1502C
:101D000071F70E94960B82E291E0DF91CF911F91D3
:101D10000F910C94BE0C82E1809358030E94720BC9
:101D200080E00E94EB0A87E00E94EB0A8EE00E94AE
:101D3000EB0A82E10E94EB0A84E10E94EB0A80E058
:101D40000E94EB0A8CEA0E94EB0A88E80E94EB0AE8
:101D500083E10E94EB0A86E70E94EB0A0E94960B41
:101D600082E291E00C94BE0C0E94DC0D882329F0E5
:101D700084E1809358030C940B0E80E008950E9438
:101D8000DC0D882329F086E1809358030C940B0E18
:101D900080E008950E94DC0D882329F083E1809380
:101DA00058030C94330E80E008950E94DC0D8823C4
:101DB00029F085E1809358030C94330E80E0089558
:101DC000E0ECF0E080818D7F808389E190E090936A
:101DD000C5008093C40086E08093C20088E18093B0
:101DE000C10085E08093810008959091C00095FF27
:101DF000FCCF8093C6008091C00086FFFCCF089581
:101E00001092550310928500109284008091C000BA
:101E100087FD0FC0809184009091850021E0853C72
:101E200039E0930708F420E020935503853C99405E
:101E300068F38091C6000895EE0FFF1F0590F4919E
:081E4000E02D0994F894FFCF96
:101E48003437310000000000000000000D424C480B
:101E5800656C69F47D6D3477414E6D33323850319D
:021E6800360042
:00000001FF
