:100000000C94A5000C94C6000C94C6000C94C60079
:100010000C94C6000C94C6000C94C6000C94C60048
:100020000C94C6000C94C6000C94C6000C94C60038
:100030000C94C6000C94C6000C94C6000C94C60028
:100040000C94C6000C94C6000C94C6000C94C60018
:100050000C943E050C94C6000C94C6000C94C6008B
:100060000C94C6000C94C6000C94C6000C94C600F8
:100070000C94C6000C94C6000C94C6000C94C600E8
:100080000C94C6000C94C6000C94C6000C94C600D8
:100090000C94C6000C94C6000C94C6000C94C600C8
:1000A0000C94C6000C94C6000C94C6000C94C600B8
:1000B0000C94C6000C94C6000C94C6000C94C600A8
:1000C0000C94C6000C94C6000C94C6000C94C60098
:1000D0000C94C6000C94C6000C94C6000C94C60088
:1000E0000C94C600A607C207C507CC07D2071208A2
:1000F0000C0921082D083D085C089508270873089D
:10010000E0080608F5080C94F5080C943D080C94DA
:1001100095080C94C5070C940C090C94D2070C9408
:1001200012080C94A6070C9406080C945C080C9416
:1001300027080C9473080C9421080C94E0080C9484
:10014000CC070C942D080C94C20711241FBECFEFCE
:10015000D1E2DEBFCDBF00E00CBF12E0A0E0B2E014
:10016000ECECF8E100E00BBF02C007900D92A23268
:10017000B107D9F724E0A2E2B2E001C01D92A43594
:10018000B207E1F70E9468060C94640C0C9400001E
:1001900081E080933F0383ED95E4799903C0109249
:1001A000B20004C00197C9F780E008958091B200C1
:1001B0008A30E0F37999F8CF20E030E080E09AE0EF
:1001C00041E050E0935F6091B2006917E0F3799BE2
:1001D00007C0BA01022E01C0660F0A94EAF7862B07
:1001E0002F5F3F4F923771F79091B2009F37E0F346
:1001F000799BDACF10923F03089589981092B2004C
:100200009091B2009D30E0F39DE080FF02C0899A9A
:1002100001C08998935F86952091B2002917E0F379
:10022000953799F7899A8091B2008238E0F3089562
:1002300020913202809146039091470338E0AC014F
:1002400042279695879540FF04C041E0842740EA05
:1002500094272695315099F790934703809346034E
:100260002093320208950F931F93CF938C01C62FD2
:1002700010924703109246031092340210923302F8
:100280000E94C8008093320290913F03911127C0D1
:10029000F80181938F010E941801C15089F7809164
:1002A0003702882311F10E94C800809333028091A5
:1002B0003F03811114C00E94C800809334028091D2
:1002C0003F0381110CC02091460330914703809178
:1002D0003302909134022817390751F406C08FEF8A
:1002E00091E0803349F090E007C00E94C800F8CF49
:1002F0000E94C80082ECF4CF892FCF911F910F91FB
:1003000008950F931F93CF938C01C62F819A87EC8A
:1003100090E00197F1F700C000001092470310929F
:100320004603F80181918F01809332020E94FD0003
:100330000E941801C150A9F780913702882341F02B
:10034000809146030E94FD00809147030E94FD00BA
:100350008198CF911F910F910895CF93DF93CDB7DF
:10036000DEB76D970FB6F894DEBF0FBECDBF80919C
:10037000000290910102A09102028B8F9C8FAD8FA1
:1003800081E1E4E0F2E0DE01119601900D928A95A0
:10039000E1F761E1CE0101960E94810168E0CE01A2
:1003A00042960E9433018823C9F0FE017296DE0155
:1003B0005B96CE01459631912D9132130EC0E81710
:1003C000F907C9F78D89809339028E8980933802A5
:1003D0008F898093370281E001C080E06D960FB66F
:1003E000F894DEBF0FBECDBFDF91CF910895CF93BC
:1003F000C82F0E94C800C15090913F03992319F063
:10040000C111F7CF8FEFCF910895CF93DF931F9254
:100410001F92CDB7DEB78DEF89831A8262E0CE01DD
:1004200001960E94810181E00E94F701813C21F048
:100430000E94540580E001C081E00F900F90DF9191
:10044000CF910895CF93DF931F921F92CDB7DEB760
:1004500019821A8281E08093370262E0CE01019610
:100460000E9481010E9454050F900F90DF91CF915F
:100470000895CF93DF9300D01F92CDB7DEB7909150
:100480004403809140039F3F11F48F3F91F02FEF81
:1004900029831A829B838C8364E0CE0101960E949B
:1004A000810182E00E94F70191E0803319F090E031
:1004B00001C091E0892F0F900F900F900F90DF9166
:1004C000CF910895CF93DF9300D01F92CDB7DEB7C1
:1004D0008EEF89831A821B82809145038C83811160
:1004E00002C081E08B8364E0CE0101960E9481010D
:1004F00082E00E94F7018F3F71F460914503809183
:100500003502909136020E94810188E20E94F70133
:1005100091E0803309F090E0892F0F900F900F90B9
:100520000F90DF91CF910895CF93DF931F921F9289
:10053000CDB7DEB70E9439028823E9F080914503E8
:100540008A8380914303823029F0843029F08130FE
:1005500029F402C087E001C083E0898362E0CE0114
:1005600001960E948101609145038091350290912E
:1005700036020E9433010F900F90DF91CF910895C2
:10058000CF93DF931F921F92CDB7DEB70E9439023F
:10059000882391F084E08983809145038A8362E017
:1005A000CE0101960E948101609145038091350240
:1005B000909136020E9433010F900F90DF91CF91FE
:1005C0000895CF93DF931F921F92CDB7DEB70E949D
:1005D0003902982F8823A9F00E946202982F88235D
:1005E00081F085E0898381E08A8362E0CE01019613
:1005F0000E94810180E00E94F70191E0803309F0C0
:1006000090E0892F0F900F90DF91CF910895CF93B5
:10061000DF931F921F92CDB7DEB70E943902882365
:1006200089F082E0898381E08A8362E0CE010196CD
:100630000E94810180E00E94F701803311F481E083
:1006400001C080E00F900F90DF91CF910895CF937C
:10065000DF931F921F92CDB7DEB70E943902982F09
:100660008823A1F00E946202982F882379F081E00C
:1006700089838A8362E0CE0101960E94810182E330
:100680000E94F70191E0803309F090E0892F0F90EC
:100690000F90DF91CF910895CF93DF931F921F9218
:1006A000CDB7DEB70E943902882381F00E94620232
:1006B000882361F084E0898381E08A8362E0CE014F
:1006C00001960E94810184E00E94F7010F900F9033
:1006D000DF91CF910895899800000000899A0895CC
:1006E00010923702109238021092390210923A0298
:1006F0009FB196959170819A899880E88A95F1F7D3
:100700007899926088988098899A8AE08A95F1F71A
:1007100000C081989093390281E0911101C080E07E
:100720000895819A0E946B03809A08958898809812
:100730000E946B0381980895CF93DF930E949103E9
:1007400088980E946B03889A0E946B03889880980F
:10075000D8E0C0E0C6950E946B037899C068D1507C
:10076000C9F70E9496038C2FDF91CF910895CF9304
:10077000DF93CFEFDFEF0E949C0380FD04C0209742
:1007800011F02197F8CF81E0CD2B09F480E0DF91C3
:10079000CF910895CF93DF93D82F0E949103889A29
:1007A0000E946B030E946B03C8E0D0FF02C0889ACE
:1007B00001C088980E946B03D695C150B1F7DF91B4
:1007C000CF910C949603CF93DF9388988098CFEFC6
:1007D000DFEF0E946B03219711F0789BFACF81E045
:1007E000CD2B09F480E0DF91CF910895CF93109243
:1007F0004C040E94910388980E946B030E946B0333
:100800000E946B030E946B030E94E3038823A1F004
:10081000C8E080914C04869580934C040E946B0341
:10082000789B05C080914C04806880934C04C15033
:1008300081F70E94960381E0CF9108950E94B7034B
:10084000882349F00E94F603882329F081E09091E3
:100850004C049D3009F080E0089580E00E94CA03B6
:100860000E94F60380914C0488508B3210F0109255
:100870004C0480914C04809337020895CF93DF930A
:10088000D82F0E949103889A0E946B0388980E9437
:100890006B030E946B030E946B03C8E0D0FF02C091
:1008A000889A01C088980E946B03D695C150B1F711
:1008B0000E94E303882361F00E949603CFEFDFEFED
:1008C0000E949C0381FF04C0209711F02197F8CF6C
:1008D000DF91CF910895809144030E943E0480915E
:1008E00040030E943E04809145030E943E040C9404
:1008F0001E04CF93C82F84EB0E94CA038C2F0E9442
:100900003E04CF910C941E040E947003811102C01A
:1009100080E008950E942D048823D1F382E00E9494
:10092000CA0382E00E943E0484E00E943E0487EBFA
:1009300091E00197F1F700C0000081E00E943E04C1
:100940009FE725EB81E0915020408040E1F700C017
:10095000000082E00E9479048823D1F20E94F6030D
:1009600080914C04809338028FEF0E94CA0380E884
:100970000E943E048FE99FE00197F1F700C000005C
:100980008FEE0E94CA0382E00E943E0481E0089537
:10099000CF9386E00E947904811102C080E01EC0DE
:1009A0000E946B048823D1F3C09145030E94B703D2
:1009B0008823A1F30E94F603882381F3E091350296
:1009C000F0913602CF010196909336028093350262
:1009D00080914C048083C15049F781E0CF91089504
:1009E000CF9387E00E9479048823C1F00E946B04B2
:1009F0008823A1F0C0914503E0913502F0913602C1
:100A0000CF010196909336028093350280810E9437
:100A10003E04C15089F7CF910C94B70380E0CF9189
:100A20000895CF93C0914403C695CF3090F488E0E9
:100A30000E947904882369F08C2F0E943E040E9452
:100A40001E04882331F080E00E943E04CF910C9474
:100A5000B70380E0CF91089583E00E947904882352
:100A600059F08EED0E943E048DEA0E943E0485EA14
:100A70000E943E040C94B70380E008951F920F92E9
:100A80000FB60F9211240C9400000F900FBE0F9020
:100A90001F90189580914303882329F084E0809368
:100AA000B1008198899A0895109238021092370205
:100AB0000895EF92FF920F931F93CF93DF931092BD
:100AC00038021092370280914303882361F0853009
:100AD00008F0F2C0C8E3D0E014E003E0FF24F39490
:100AE00082E0E82EB6C00E948404E4C08091C00079
:100AF00087FDD9C080914303843009F4AFC00E94C0
:100B0000020B882309F4AAC00093430380913702A3
:100B1000909138028730934909F4A8C08091370238
:100B2000909138028A30934909F4A0C0809137022D
:100B3000909138028F30934909F498C08091370220
:100B40009091380231E08B30944909F030E0809187
:100B50003702909138028031934F09F489C0809117
:100B60003702909138028033934F09F481C080910D
:100B70003702909138028031944F09F479C0809106
:100B80003702909138028039934F09F471C08091F7
:100B90003702909138028035984F09F469C08091EE
:100BA000370290913802813B984E09F461C08091E0
:100BB00037029091380221E0823B984E09F020E004
:100BC000809137029091380286309F4109F452C0DB
:100BD00080913702909138028630934309F44AC0DD
:100BE00080913702909138028630944309F442C0D4
:100BF000809137029091380286309543D9F18091E7
:100C000037029091380286309B42A1F180913702E1
:100C10009091380251E040E08630974409F050E06E
:100C2000852F942F482F311128C0211126C09927D4
:100C300090914303913020F52197C1F1811135C086
:100C40008FEF94E32CE0815090402040E1F700C00A
:100C500000008091C10084FF4DCF48CF0E94AD01BC
:100C6000882309F453CF1093430350CF31E06FCF63
:100C700021E0A6CF81E090E0D5CF81E090E0D8CF11
:100C8000933010F09430C1F6222319F0F092430310
:100C9000D3CF332319F0E0924303CECF442361F244
:100CA00010934303C9CF80E001C081E090914303DA
:100CB00090933A02811105C01092380210923702C7
:100CC00080E0DF91CF911F910F91FF90EF900895F9
:100CD0000FB6F894A89580916000886180936000B9
:100CE000109260000FBE0E944A050E94200C0E94D4
:100CF000F206EECF9627092E0294202D2F70292779
:100D0000692F6025660F607E2627602D6927607F2A
:100D10006695092E000C661F9695969596959F717F
:100D200096279827822F08952F923F92EF92FF9255
:100D30001F93CF93DF93E1016EE280E090E00E9489
:100D40007A066F810E947A06609144030E947A06B7
:100D5000609140030E947A066E810E947A06382FC5
:100D6000292FEC80FD801E81F70161917F01832F87
:100D7000922F0E947A06382F292F1150A9F76B81E4
:100D80000E947A06F82EE92E8EE20E94350C8F81A1
:100D90000E94350C809144030E94350C80914003E1
:100DA0000E94350C8E810E94350C1E81EC81FD81E4
:100DB00080810E94350C8C819D8101969D838C835E
:100DC0001150A1F78B810E94350C8E2D0E94350C9D
:100DD0008F2DDF91CF911F91FF90EF903F902F903B
:100DE0000C94350C2F923F924F925F926F927F92AC
:100DF0008F929F92AF92BF92CF92DF92EF92FF922B
:100E00000F931F93CF93DF93CDB7DEB72A970FB61B
:100E1000F894DEBF0FBECDBFF8942E0129E0420E3C
:100E2000511C08E413E022E0B22E3BE3C32E32E073
:100E3000D32E44E0A42E57E3652E52E0752E0E9477
:100E4000400C8F32E1F71A8619865E824D8281E06E
:100E50008F830E94400C888790914D049111EFCFB1
:100E60008F3219F40E94400C88876FE280E090E096
:100E70000E947A0668850E947A067C010E94400CD6
:100E80008093440390914D04992311F081E048C070
:100E9000682FC7010E947A067C010E94400C809353
:100EA000400390914D049111F1CF682FC7010E942A
:100EB0007A067C010E94400C8B8390914D04911125
:100EC000E5CF682FC7010E947A067C013B8098E439
:100ED000892E93E0992E0E94400CF40181934F01DA
:100EE00090914D049111D2CF682FC7010E947A06CC
:100EF0007C013A943110EFCF0E94400C8A8380919C
:100F00004D048111C3CF0E94400C898380914D0410
:100F10008111BCCF29813A81E216F30609F083E002
:100F20008C8381117AC11093360200933502E885D3
:100F30008E2F90E0FC01F097E131F10508F06CC1D3
:100F40008827EE58FF4F8F4F0C945C0C809137022E
:100F5000882309F462C180914303833028F48130EF
:100F600040F40E942D0407C0833049F0843009F01A
:100F700054C10E940502811150C18FE04CC00E94F3
:100F8000900AF9CF8BE6898748C18CE08F8385E191
:100F900092E09E838D8341C1BF8288EC898793E074
:100FA0009A873BC1FE0131961F010E9494068091F1
:100FB0004303882329F0853028F48198899A02C058
:100FC0000E9470030E945405FFEF23EC89E0F1506A
:100FD00020408040E1F700C000002A960FB6F89448
:100FE000DEBF0FBECDBFDF91CF911F910F91FF905C
:100FF000EF90DF90CF90BF90AF909F908F907F90B9
:101000006F905F904F903F902F900895809148038C
:10101000853018F089E08C8300C1809343030E94DF
:101020004A05FBC080914303833028F4813030F4BB
:101030000E947003F2C0843009F0EFC00E942202C7
:10104000ECC0AF827E826D820E94590594CF809160
:1010500043038111E2C08998E0C08091430383304B
:1010600030F4813008F0D8C00E942C0584CF833042
:1010700009F0B2C00E94CB0B7ECF90914303943015
:1010800018F4923020F0C8C0943009F0C6C08091A6
:1010900048038987943019F4880F880F01C0880F9E
:1010A0008093440310924003911103C00E941105E4
:1010B00062CF0E9407035FCF80914803809345036E
:1010C00080914303833028F4813038F40E94C804AF
:1010D0001BC0833029F08430F9F40E94940214C0BC
:1010E0000E94F40B11C080914803809345038091C6
:1010F0004303823039F020F0833059F0843061F4BA
:10110000BC820AC00E94C002811106C08FE08C839D
:1011100003C00E94FF0BF8CF8C8181117EC08091AB
:1011200045038F831E830D8378C08B818093450395
:101130008FE08C8380914303833018F4813030F04A
:1011400037C08330D1F1843099F167C00E94F00438
:10115000882309F462C0D0923602C09235020E9400
:10116000C804882309F459C01C82109336020093E6
:101170003502D0924203C092410380914503A09171
:101180003502B0913602E0914103F09142032C9177
:1011900090812913AC821196B0933602A093350248
:1011A0003196F0934203E0934103815041F735C0FB
:1011B0000E942703882389F12BC00E940A0CFACFD2
:1011C0008B81809345038FE08C8380914303823031
:1011D00031F010F1833031F08430F9F41DC00E94F9
:1011E000E102E8CF0E94150CE5CFE090430394E0C4
:1011F000E91212C08B81809345038FE0F82EFC82A8
:101200000E944C03803321F0803C21F4EC8205C025
:101210001C8203C0FC8201C0BC82FE0131961F010A
:101220000E9494060CCE90915204982790935204F9
:1012300098E0899A1092B20080FF0FC02091B2000E
:101240002031E0F389981092B2002091B200203151
:10125000E0F38695915069F708952091B200283007
:10126000E0F389981092B2002091B2002830E0F3A8
:10127000899A1092B2002091B2002830E0F3899848
:101280001092B2002091B2002830E0F3E2CF819AB0
:101290008FEF0E9413098FEF0E9413098FE70E94BE
:1012A0001309109252048BE10E94130980914F049C
:1012B0008F5F80934F040C941309809152040E9415
:1012C0001309899A1092B2008091B2008830E0F33D
:1012D000819808951092B200799B0AC08091B20063
:1012E0008E37D0F38FEF08958091B2008E37D0F70C
:1012F000799BFACF8091B20080935104909153046E
:10130000981788F01092B200799B09C08091B200C2
:101310008E37D0F3E7CF8091B2008E3718F7799BE4
:10132000FACF80E0089581E00895FC01108280E00A
:1013300090E041E050E01092B200799B0AC0209109
:10134000B2002E37D0F380E008952091B2002E37FE
:10135000D0F7799BFACF3091B20020915304231734
:1013600080F01092B200799B09C02091B2002E3714
:10137000D0F3E9CF2091B2002E3728F7799BFACF2E
:1013800009C060819A01082E01C0220F0A94EAF771
:10139000262B208301968830910569F690914E04A2
:1013A0008081892780934E0481E00895CF93DF9355
:1013B00088E18093530480915004853139F0823163
:1013C00029F0813031F0C6E4D0E005C0C0E6DAEEA5
:1013D00002C0C1E0D0E00E946A0987FF04C02197E3
:1013E000D1F780E017C0CAE00E946A098F3FC9F3B5
:1013F000C150D1F780915104982F96958695869586
:10140000890F809353040E946A098F3F51F3181685
:10141000D4F381E0DF91CF910895EF92FF920F9383
:101420001F93CF93DF9300D0CDB7DEB77C011B8233
:101430000E94D609811102C080E068C010924E045B
:10144000CE0103960E9495098823B1F38B818B31DD
:1014500099F7CE0103960E949509882369F39B8131
:1014600080914F049813E8CFCE0102960E9495090F
:10147000882311F38A818230F8F6CE0101960E940A
:1014800095098823C9F289819A81892BA9F2CE0115
:1014900003960E949509882379F28B818E3061F63C
:1014A000CE0103960E949509882331F29B81809199
:1014B00050049813C1CFCE0103960E94950988234A
:1014C00009F4BACF8B818111B7CF00E010E0C701DA
:1014D000800F911F29813A81225031090217130789
:1014E00040F40E949509882309F4A6CF0F5F1F4F8F
:1014F000EECFCE0103960E949509882309F49CCF74
:1015000080914E04811198CF899A81E00F900F90BD
:101510000F90DF91CF911F910F91FF90EF90089561
:10152000CF9381E0809350040E94470980E00E949D
:10153000130981E00E9413098EE00E94130981E0E3
:101540000E9413090E945D0982E292E00E940D0A46
:10155000C82F811103C00E94540501C0C1E08C2F27
:10156000CF910895FF920F931F93CF93DF938C0138
:10157000C62FF42ED22F8DE1809350040E9447098C
:1015800080E00E94130988E00E9413098EE00E9407
:1015900013098DE10E94130984E00E94130984E07D
:1015A0000E94130980E00E9413098C2F0E941309E6
:1015B0008F2D0E9413098D2F0E94130980E00E9435
:1015C00013090E945D0982E292E00E940D0A8823BD
:1015D00099F08091220281110EC080912302C817D8
:1015E00011F0811108C080912402811104C0809102
:1015F0002502F801808381E0DF91CF911F910F9147
:10160000FF9008950E94900A882399F021E040E01D
:1016100060E388E392E00E94B20A882351F022E05E
:1016200040E060E387E392E00E94B20A91E081111A
:1016300001C090E0892F0895809144038F3F21F4E9
:10164000809140038F3F29F186E0809350040E94EF
:10165000470980E00E94130985E00E9413098EE08B
:101660000E94130986E00E94130980E00E9413097A
:1016700080E00E941309809144030E941309809125
:1016800040030E9413090E945D0982E292E00C94DB
:101690000D0A81E00895CF93C1E080914503811147
:1016A000C0E00E94470980E00E94130984E00E9484
:1016B00013098EE00E941309809150040E941309BF
:1016C0008C2F0E941309809145030E94130980EA20
:1016D0000E9413090E945D098091350290913602A3
:1016E000CF910C940D0A0F931F93CF93DF93C0916A
:1016F0004503CC2339F08C2F90E00A96182F092F40
:10170000D0E003C01AE001E0D1E00E944709802F39
:101710000E941309812F0E9413098EE00E94130971
:10172000809150040E9413098D2F0E9413098C2F61
:101730000E94130980E00E94130980E00E941309AF
:1017400080E00E94130980E00E94130980E00E945B
:10175000130980E00E94130980E00E941309E091C0
:101760003502F091360280810E9413098091350282
:101770009091360201969093360280933502C150C3
:1017800071F70E945D0982E292E0DF91CF911F9193
:101790000F910C940D0A82E1809350040E94470936
:1017A00080E00E94130987E00E9413098EE00E94E6
:1017B000130982E10E94130984E10E94130980E069
:1017C0000E9413098CEA0E94130988E80E941309F9
:1017D00083E10E94130986E70E9413090E945D09B4
:1017E00082E292E00C940D0A0E941C0B882329F0DF
:1017F00084E1809350040C944B0B80E008950E9488
:101800001C0B882329F086E1809350040C944B0B29
:1018100080E008950E941C0B882329F083E18093C7
:1018200050040C94730B80E008950E941C0B8823D5
:1018300029F085E1809350040C94730B80E00895A7
:10184000E0ECF0E080818D7F808389E190E09093EF
:10185000C5008093C40086E08093C20088E1809335
:10186000C10085E08093810008959091C00095FFAC
:10187000FCCF8093C6008091C00086FFFCCF089506
:1018800010924D0410928500109284008091C00047
:1018900087FD0FC0809184009091850021E0853CF8
:1018A00039E0930708F420E020934D04853C9940EB
:1018B00068F38091C6000895EE0FFF1F881F8BBF4D
:0C18C0000790F691E02D1994F894FFCFEA
:1018CC003437310000000000000000000D424C488D
:1018DC00656C69F47D347741466D323536305F3155
:0218EC003600C4
:00000001FF
